:10000000EE2F00308A000408840A82070034573437
:100010006F3472346C3464340034483465346C3476
:060020006C346F34003463
:10086E0006340034023403340434053406340734B9
:10087E00FD00F901F90A7D08F125033083120313F7
:10088E00A1009730A000A00B4A2CA10B4A2C00000F
:10089E00080083120313A100602C7D088400012040
:1008AE00F9002108EF26013083120313A00020085F
:1008BE00FD077D0884000120003A031D672C682C7B
:1008CE00542C080083120313A500732C8030A4004F
:1008DE00832CC030A400832C2008A200A30123087F
:1008EE00003A03197B2C6D2C2208013A03196D2C4A
:1008FE00033A0319702C6D2C2108FF3EA20022082A
:10090E00A4072408F9002508F12508007308031927
:10091E00912C922CA52C0130F400720A982C031005
:10092E00F40DFF3E031D962C7408F500700884002C
:10093E008317711C831375088004B82C0130F400E2
:10094E00720AAB2C0310F40DFF3E031DA92C740884
:10095E00FF3AF500700884008317711C8313750825
:10096E0080050800F8007808840083130008F00062
:10097E00840A00088403F1007808033E840000080E
:10098E00F200F301F30A8D240330F7009730F600DE
:10099E00F60BCF2CF70BCF2CD42C780884008313B6
:1009AE000008F000840A00088403F1007808033E72
:1009BE0084000008F200F3018D2408008312031353
:1009CE00A400143083120313A3007930A200A20BEB
:1009DE00EE2CA30BEE2C00000330F9008312031350
:1009EE002408F125073083120313A3007C30A200E4
:1009FE00A20BFF2CA30BFF2C042D0330F900831246
:100A0E0003132408F125203083120313A200A20B36
:100A1E000E2D112D0330F900831203132408F12536
:100A2E000230F900831203132408F1252830F9004F
:100A3E00831203132408F1250C30F90083120313DB
:100A4E002408F1250630F900831203132408F1253A
:100A5E008312031324083F24080083160313860110
:100A6E002B308400333083120313A6000408A70032
:100A7E000830A8002608840083130008A900A60ADF
:100A8E002708840029088000A70AA80B412D2B30C7
:100A9E00E5242B303F2483120313A001A00AA101E9
:100AAE00A10A2B3069240730FD002B305024023070
:100ABE0083120313A000A101A10A2B306924013077
:100ACE00FD002B305024333083120313A800BB30AB
:100ADE00A700DF30A600A60B722DA70B722DA80B58
:100AEE00722D00002B303F2483120313AA01AA0A91
:100AFE00A001A00A2A08A1002B3069248312031337
:100B0E002A08403EF9002B30EF26033083120313E0
:100B1E00A8008A30A7005530A600A60B942DA70B6F
:100B2E00942DA80B942D0000013083120313A60000
:100B3E002608AA0711302A02031CA62DA72D7F2DE9
:100B4E001A3083120313A8005E30A7006E30A60081
:100B5E00A60BAF2DA70BAF2DA80BAF2D8312031332
:100B6E00AA01AA0A0230A0002A08A1002B3069248B
:100B7E00831203132A08483EF9002B30EF26033068
:100B8E0083120313A8008A30A7005530A600A60BC7
:100B9E00CE2DA70BCE2DA80BCE2D0000013083122B
:100BAE000313A6002608AA0711302A02031CE02D03
:100BBE00E12DB92D1A3083120313A8005E30A70061
:100BCE006E30A600A60BE92DA70BE92DA80BE92D7B
:100BDE00792D0028FC007C08840083130008F000A7
:100BEE00840A00088403F1007C08043E8400000897
:100BFE00F2007908FB0004300310FB0CFF3E031DCE
:100C0E00032E7B180B2E0D2E01300E2E0030F3000E
:100C1E008D247C08840083130008F000840A0008E9
:100C2E008403F1007C08053E84000008F200790878
:100C3E00FB0005300310FB0CFF3E031D212E7B181D
:100C4E00292E2B2E01302C2E0030F3008D247C0803
:100C5E00840083130008F000840A00088403F10066
:100C6E007C08063E84000008F2007908FB0006307E
:100C7E000310FB0CFF3E031D3F2E7B18472E492E03
:100C8E0001304A2E0030F3008D247C08840083133B
:100C9E000008F000840A00088403F1007C08073E77
:100CAE0084000008F2007908FB0007300310FB0CEB
:100CBE00FF3E031D5D2E7B18652E672E0130682EBC
:100CCE000030F3008D247C08840083130008F000AC
:100CDE00840A00088403F1007C08023E84000008A8
:100CEE00F200F3018D247C08B9247C088400831360
:100CFE000008F000840A00088403F1007C08043E1A
:100D0E0084000008F20079188D2E8F2E0130902E5F
:100D1E000030F3008D247C08840083130008F0005B
:100D2E00840A00088403F1007C08053E8400000854
:100D3E00F2007908FB0001300310FB0CFF3E031D8F
:100D4E00A32E7B18AB2EAD2E0130AE2E0030F3004D
:100D5E008D247C08840083130008F000840A0008A8
:100D6E008403F1007C08063E84000008F200790836
:100D7E00FB0002300310FB0CFF3E031DC12E7B183F
:100D8E00C92ECB2E0130CC2E0030F3008D247C08E2
:100D9E00840083130008F000840A00088403F10025
:100DAE007C08073E84000008F2007908FB0003303F
:100DBE000310FB0CFF3E031DDF2E7B18E72EE92EE2
:100DCE000130EA2E0030F3008D247C08B92408008F
:100DDE00FC007C08840083130008F000840A0008DD
:100DEE008403F1007C08043E84000008F2007908B8
:100DFE00FB0004300310FB0CFF3E031D012F7B187C
:100E0E00092F0B2F01300C2F0030F3008D247C089E
:100E1E00840083130008F000840A00088403F100A4
:100E2E007C08053E84000008F2007908FB000530BE
:100E3E000310FB0CFF3E031D1F2F7B18272F292F9E
:100E4E0001302A2F0030F3008D247C088400831398
:100E5E000008F000840A00088403F1007C08063EB6
:100E6E0084000008F2007908FB0006300310FB0C2A
:100E7E00FF3E031D3D2F7B18452F472F0130482F76
:100E8E000030F3008D247C08840083130008F000EA
:100E9E00840A00088403F1007C08073E84000008E1
:100EAE00F2007908FB0007300310FB0CFF3E031D18
:100EBE005B2F7B18632F652F0130662F0030F300F8
:100ECE008D247C08840083130008F000840A000837
:100EDE008403F1007C08023E84000008F200F30156
:100EEE00F30A8D247C08B9247C088400831300083F
:100EFE00F000840A00088403F1007C08043E84009C
:100F0E000008F20079188C2F8E2F01308F2F0030B1
:100F1E00F3008D247C08840083130008F000840AFB
:100F2E0000088403F1007C08053E84000008F200EE
:100F3E007908FB0001300310FB0CFF3E031DA22FAE
:100F4E007B18AA2FAC2F0130AD2F0030F3008D246B
:100F5E007C08840083130008F000840A00088403D0
:100F6E00F1007C08063E84000008F2007908FB00C0
:100F7E0002300310FB0CFF3E031DC02F7B18C82F41
:100F8E00CA2F0130CB2F0030F3008D247C08840053
:100F9E0083130008F000840A00088403F1007C0823
:100FAE00073E84000008F2007908FB0003300310AE
:100FBE00FB0CFF3E031DDE2F7B18E62FE82F0130C2
:100FCE00E92F0030F3008D247C08B9240800372463
:100FDE00B3003824B4003924B5003A24B6003B24BB
:100FEE00B7003C24B8003D24B9003E24BA0083016A
:020FFE00342D90
:02400E00383F39
:00000001FF
