:100000000A128A11F02F0310560D570DDD005D08FE
:10001000031D13280030D7000030D6000030D50073
:100020000030D40008005408D8005508D9005608FC
:10003000DA005708DB001F300310DB0CDA0CD90C98
:10004000D80CFF3E031D1C285808DC00D617FF30D3
:10005000D405FF30D505FF30D6050030D7059630E2
:10006000DD02DD1F48285D08803A973E031C0A2800
:1000700001300310D70CD60CD50CD40CFF3E031D59
:1000800039280130D8005808DD0703195B283828C3
:1000900020305D0203180A285D0803195B2801302F
:1000A000D8000310D40DD50DD60DD70DD80B51287F
:1000B0000130DD024C285C0803190800D409D50979
:1000C000D609D709D40A0319D50A0319D60A031980
:1000D000D70A08000A128A15E1240A128A110A12A4
:1000E0008A15D5240A128A110A128A15BF240A1207
:1000F0008A118316870168308400A0308312DE00E5
:100100000408DF000830E0005E0884008313000864
:10011000E100DE0A5F08840061088000DF0AE00B6E
:10012000842868300A128A1562260A128A116830F9
:100130000A128A1503250A128A1183120313A001D9
:10014000A00AA101A10A68300A128A1539250A12EB
:100150008A110130FD0068300A128A1517250A122B
:100160008A110A128A15FE250A128A115708E70019
:100170005608E6005508E5005408E4000A128A15FE
:100180005C250A128A117108E3007008E200630816
:10019000DF006208DE000310DF0CDE0C5E08F000FA
:1001A0005F08F100F201F30100300A128A155F279F
:1001B0000A128A117308C1007208C0007108BF00DA
:1001C0007008BE004530BD006430BC00E130BB00AB
:1001D000C030BA000A128A1117250A128A113D0886
:1001E000D7003C08D6003B08D5003A08D4000A12D4
:1001F0008A1103200A128A114230F3000430F200FF
:100200000030F1000030F0006708F7006608F600E3
:100210006508F5006408F4000A128A15CC260A1253
:100220008A110318152996302F294130F300F03038
:10023000F2000030F1000030F0006708F7006608B7
:10024000F6006508F5006408F4000A128A15CC2649
:100250000A128A1103182E2912302F29093095000D
:100260000B3083120313E0002630DF005D30DE0028
:10027000DE0B3829DF0B3829E00B3829B128FC00C8
:100280007C08840083130008F000840A00088403BB
:10029000F1007C08043E84000008F2007908FB00AD
:1002A00004300310FB0CFF3E031D51297B1C5A290F
:1002B00001305B290030F3000A128A15A2250A12C8
:1002C0008A117C08840083130008F000840A000867
:1002D0008403F1007C08053E84000008F2007908E0
:1002E000FB0005300310FB0CFF3E031D72297B1C35
:1002F0007B2901307C290030F3000A128A15A225DF
:100300000A128A117C08840083130008F000840A12
:1003100000088403F1007C08063E84000008F20017
:100320007908FB0006300310FB0CFF3E031D9329E8
:100330007B1C9C2901309D290030F3000A128A158C
:10034000A2250A128A117C08840083130008F00099
:10035000840A00088403F1007C08073E840000083A
:10036000F2007908FB0007300310FB0CFF3E031D71
:10037000B4297B1CBD290130BE290030F3000A12CC
:100380008A15A2250A128A117C08840083130008AA
:10039000F000840A00088403F1007C08023E840017
:1003A0000008F200F3010A128A15A2250A128A1126
:1003B0007C080A128A15CC250A128A117C0884004E
:1003C00083130008F000840A00088403F1007C080D
:1003D000043E84000008F200791CF0290130F12964
:1003E0000030F3000A128A15A2250A128A117C082D
:1003F000840083130008F000840A00088403F100DD
:100400007C08053E84000008F2007908FB000130FA
:100410000310FB0CFF3E031D082A7B1C112A013030
:10042000122A0030F3000A128A15A2250A128A1134
:100430007C08840083130008F000840A0008840309
:10044000F1007C08063E84000008F2007908FB00F9
:1004500002300310FB0CFF3E031D292A7B1C322AAD
:100460000130332A0030F3000A128A15A2250A123D
:100470008A117C08840083130008F000840A0008B5
:100480008403F1007C08073E84000008F20079082C
:10049000FB0003300310FB0CFF3E031D4A2A7B1CAC
:1004A000532A0130542A0030F3000A128A15A2257B
:1004B0000A128A117C080A128A15CC250800FC0051
:1004C0007C08840083130008F000840A0008840379
:1004D000F1007C08043E84000008F2007908FB006B
:1004E00004300310FB0CFF3E031D712A7B1C7A2A8B
:1004F00001307B2A0030F3000A128A15A2250A1265
:100500008A117C08840083130008F000840A000824
:100510008403F1007C08053E84000008F20079089D
:10052000FB0005300310FB0CFF3E031D922A7B1CD1
:100530009B2A01309C2A0030F3000A128A15A2255A
:100540000A128A117C08840083130008F000840AD0
:1005500000088403F1007C08063E84000008F200D5
:100560007908FB0006300310FB0CFF3E031DB32A85
:100570007B1CBC2A0130BD2A0030F3000A128A1508
:10058000A2250A128A117C08840083130008F00057
:10059000840A00088403F1007C08073E84000008F8
:1005A000F2007908FB0007300310FB0CFF3E031D2F
:1005B000D42A7B1CDD2A0130DE2A0030F3000A1227
:1005C0008A15A2250A128A117C0884008313000868
:1005D000F000840A00088403F1007C08023E8400D5
:1005E0000008F200F301F30A0A128A15A2250A1282
:1005F0008A117C080A128A15CC250A128A117C08F5
:10060000840083130008F000840A00088403F100CA
:100610007C08043E84000008F200791C112B013094
:10062000122B0030F3000A128A15A2250A128A1131
:100630007C08840083130008F000840A0008840307
:10064000F1007C08053E84000008F2007908FB00F8
:1006500001300310FB0CFF3E031D292B7B1C322BAA
:100660000130332B0030F3000A128A15A2250A123A
:100670008A117C08840083130008F000840A0008B3
:100680008403F1007C08063E84000008F20079082B
:10069000FB0002300310FB0CFF3E031D4A2B7B1CAA
:1006A000532B0130542B0030F3000A128A15A22577
:1006B0000A128A117C08840083130008F000840A5F
:1006C00000088403F1007C08073E84000008F20063
:1006D0007908FB0003300310FB0CFF3E031D6B2B5E
:1006E0007B1C742B0130752B0030F3000A128A1525
:1006F000A2250A128A117C080A128A15CC25080044
:1007000027088039B1002708A8002807B800A61BD1
:100710003814380803199A2B380A031D972B003018
:10072000A7000030A6000030A5000030A400A617E6
:10073000A701A22B0030A7000030A6000030A500C2
:100740000030A40023088039A8002808B106230837
:10075000A8002807B900A21B391439080319BE2BB9
:10076000390A031DBB2B0030A3000030A20000306B
:10077000A1000030A000A217A301C62B0030A300E7
:100780000030A2000030A1000030A00023082204A5
:1007900021042004031DE52B0030A7000030A60033
:1007A0000030A5000030A4008030A6047F30A704EC
:1007B0003108A8002808A7042708A3002608A200DB
:1007C0002508A1002408A00008003808031DF12B0B
:1007D0000030A3000030A2000030A1000030A000D3
:1007E00008003808A800A9012908AB003908280228
:1007F000AA00031CAB032A087F3EB2002B08031893
:10080000013E003EB3002708B0002608AF002508CF
:10081000AE002408AD000030A7000030A600003074
:10082000A5000030A4000030B7000030B600003052
:10083000B5000030B400B9011A3039020318642C35
:1008400039080319402C0130A8000310AD0DAE0D7E
:10085000AF0DB00DA80B252C0130A8000310A40D7E
:10086000A50DA60DA70DA80B2E2CB71B2414013027
:10087000A8000310B40DB50DB60DB70DA80B392C9B
:1008800023083002031D4E2C22082F02031D4E2C7C
:1008900021082E02031D4E2C20082D02031C5F2C64
:1008A00037172008AD022108031C210FAE022208D1
:1008B000031C220FAF022308031C230FB0020130D8
:1008C000A8002808B9071C2C30082F042E042D047A
:1008D000031D3414A61B872C0130A8000310A40D9F
:1008E000A50DA60DA70DA80B6E2CB71B2414013067
:1008F000A8000310B40DB50DB60DB70DA80B792CDB
:10090000FF30B2070318B30AFF30B3076A2CB901EE
:10091000B71FA02CFF303405A800FF303505A90013
:10092000FF303605AA007F303705AB002B082A04BC
:1009300029042804031924189E2CA02CB901B90AF3
:1009400039080319D22C0130A407003003180130F4
:10095000A507003003180130A60700300318013046
:10096000A707271CD22C2408A8002508A9002608C0
:10097000AA002708AB000130AC002B0DAB0CAA0C71
:10098000A90CA80CAC0BBD2C2B08A7002A08A600AC
:100990002908A5002808A4000130B2070318B30AEB
:1009A0000030B3073308803AFF0080307F02031D18
:1009B000DB2CFF303202031CEB2CFF3083120313BD
:1009C000B2000030B3000030A7000030A6000030B5
:1009D000A5000030A400831203133308803AFF00FF
:1009E00080307F02031DF62C013032020318052DE2
:1009F00083120313B201B3010030A7000030A60038
:100A00000030A5000030A400B101831203133208A6
:100A1000B800381C0D2DA617112D7F30A80028080E
:100A2000A6053808A8000310280CA700D82B3D08FD
:100A30008039C7003D08C2004207CD00BC1B4D14E1
:100A40004D080319302D4D0A031D2E2D0030BD0019
:100A50000030BC000030BB000030BA00BC17382D9D
:100A60000030BD000030BC000030BB000030BA00D8
:100A700041088039C2004208C7064108C200420747
:100A8000C800C01B481448080319532D480A031D09
:100A9000512D0030C1000030C0000030BF000030D8
:100AA000BE00C0175B2D0030C1000030C000003018
:100AB000BF000030BE004808031D4D08031D692D0E
:100AC0000030BD000030BC000030BB000030BA0078
:100AD00008003A08F00040080A128A157F250A1219
:100AE0008A117108D3007008D2005208C200C301F5
:100AF000C401C5014508CC004408CB004308CA0026
:100B00004208C9005308C200C301C401C501450819
:100B1000D1004408D0004308CF004208CE003B0873
:100B2000F0003F080A128A157F250A128A117108FF
:100B3000D3007008D2005208C200C301C401C5012D
:100B40004208C907430803110318013E031DCA07E1
:100B5000440803110318013E031DCB074508031188
:100B60000318013E031DCC075308C200C301C40192
:100B7000C5014208CE07430803110318013E031DB7
:100B8000CF07440803110318013E031DD007450891
:100B900003110318013E031DD1073C08F0003E0875
:100BA0000A128A157F250A128A117108D30070086B
:100BB000D2005208C200C301C401C5014208C907DE
:100BC000430803110318013E031DCA07440803111B
:100BD0000318013E031DCB07450803110318013E0E
:100BE000031DCC075308C200C301C401C50142085C
:100BF000CE07430803110318013E031DCF07440825
:100C000003110318013E031DD00745080311031803
:100C1000013E031DD1070830C2000310C90DCA0DE3
:100C2000CB0DCC0DC20B0D2E3B08F0003E080A1276
:100C30008A157F250A128A117108D3007008D20024
:100C40005208C2005308C300C401C5014208C907C5
:100C5000430803110318013E031DCA07440803118A
:100C60000318013E031DCB07450803110318013E7D
:100C7000031DCC073A08F0003F080A128A157F25A9
:100C80000A128A117108D3007008D2005208C200FB
:100C90005308C300C401C5014208C9074308031132
:100CA0000318013E031DCA07440803110318013E3F
:100CB000031DCB07450803110318013E031DCC0794
:100CC0000830C2000310C90DCA0DCB0DCC0DC20BEC
:100CD000622E3A08F0003E080A128A157F250A1291
:100CE0008A117108D3007008D2005208C20053085C
:100CF000C300C401C5014208C90743080311031812
:100D0000013E031DCA07440803110318013E031DD9
:100D1000CB07450803110318013E031DCC073B0810
:100D2000F00040080A128A157F250A128A117108FC
:100D3000D3007008D2005208C2005308C300C40197
:100D4000C5014208CE07430803110318013E031DE5
:100D5000CF07440803110318013E031DD0074508BF
:100D600003110318013E031DD1073C08F0003F08A2
:100D70000A128A157F250A128A117108D300700899
:100D8000D2005208C2005308C300C401C501420882
:100D9000CE07430803110318013E031DCF07440883
:100DA00003110318013E031DD00745080311031862
:100DB000013E031DD1073C08F00040080A128A15C5
:100DC0007F250A128A117108D3007008D2005208D8
:100DD000C2005308C300C401C50108300310C20D8E
:100DE000C30DC40DC50DFF3E031DEE2E4208CE07F8
:100DF000430803110318013E031DCF0744080311E4
:100E00000318013E031DD007450803110318013ED6
:100E1000031DD1074C08C200C301C401C50142082B
:100E2000CE07430803110318013E031DCF074408F2
:100E300003110318013E031DD007450803110318D1
:100E4000013E031DD1070830C2000310C90DCA0DB1
:100E5000CB0DCC0DC20B252F4D084807C200C30196
:100E6000C30D4208823ED20043080318013EFF3EF4
:100E7000D300D01B562F0130C2000310CE0DCF0D72
:100E8000D00DD10DC20B3D2FCC1B4E140130C20032
:100E90000310C90DCA0DCB0DCC0DC20B482FFF306E
:100EA000D2070318D30AFF30D307392FC801CC1F4C
:100EB0006F2FFF304905C200FF304A05C300FF30E5
:100EC0004B05C4007F304C05C5004508440443046D
:100ED000420403194E186D2F6F2FC801C80A480825
:100EE0000319A12F0130CE07003003180130CF07BE
:100EF000003003180130D007003003180130D1074B
:100F0000511CA12F4E08C2004F08C3005008C40056
:100F10005108C5000130C600450DC50CC40CC30CFA
:100F2000C20CC60B8C2F4508D1004408D0004308E2
:100F3000CF004208CE000130D2070318D30A003098
:100F4000D3075308803AFF0080307F02031DAA2F89
:100F5000FF305202031CB72F7F3083120313D100DE
:100F60008030D0000030CF000030CE00E32F83125D
:100F700003135308803AFF0080307F02031DC22F05
:100F8000013052020318D02F003083120313D10016
:100F90000030D0000030CF000030CE00C701E32F7A
:100FA000831203135208CD00FF30CE05FF30CF056A
:100FB0007F30D0050030D1054D18D0174D08C20044
:100FC0000310420CD1004708C2004208D104510866
:100FD000BD005008BC004F08BB004E08BA00080016
:100FE0008313A830FD000C30FE00B730FF00A030A6
:100FF00084000A128A15F62483010A128A116A28CB
:1010000008308A000408840A8207003443344F34CD
:101010004F344C34453452342034523450344D34EF
:10102000203443346F3475346E3474346534723420
:0210300000348A
:10196E0007340034013402340434053406340734A9
:10197E0006140317890103138112811107308104A4
:10198E00831281010800831203139F149F18CD2C1C
:10199E001E08F10083161E08F000080001308316A1
:1019AE00031788000130831203139F0080308316C3
:1019BE009F000800603083168F0087010730831266
:1019CE009200FF30831692000C308312970095011F
:1019DE000430920008007E088A007F088200F224FC
:1019EE000A128A158000840A04087D060319003441
:1019FE00FF0A0319FE0AF62CFD00F901F90A7D080B
:101A0E000A128A113F210A128A1503308312031318
:101A1E00A1009730A000A00B122DA10B122D0800D3
:101A2E0083120313A1007D0884000A128A15002078
:101A3E000A128A15003A031908007D0884000A125A
:101A4E008A1500200A128A15F90021080A128A1135
:101A5E005F220A128A15013083120313A000200898
:101A6E00FD071A2DA400402D80303E2DC030A5005C
:101A7E00502D2008A200A3012308003A0319482D77
:101A8E003B2D2208013A03193B2D033A03193D2D34
:101A9E003B2D2108FF3EA2002208A5072508F900CC
:101AAE0024080A128A113F210800F201F3010030C6
:101ABE0006180130F40081010B110B197A2D00303C
:101ACE0006180130F500750874060319772D750395
:101ADE00031D772D0130F2070318F30A0030F307C8
:101AEE007508F400642D7308F1007208F000080008
:101AFE00F800F401F5017008F200F3017208F60027
:101B0E007308F700781C912D7608F4070318F50A70
:101B1E007708F50701300310F60DF70DFF3E031D94
:101B2E00922D0310F80C7808031D892D7508F1000D
:101B3E007408F000080073080319B82D0130F40082
:101B4E00720AAB2D0310F40DFF3E031DA92D740870
:101B5E00F500700884008317711C831375088004C8
:101B6E0008000130F400720ABE2D0310F40DFF3E82
:101B7E00031DBC2D7408FF3AF5007008840083170E
:101B8E00711C8313750880050800F800780884001E
:101B9E0083130008F000840A00088403F10078081B
:101BAE00033E84000008F200F301F30A0A128A15BC
:101BBE00A2250A128A150330F7009730F600F60BAD
:101BCE00E62DF70BE62DEB2D780884008313000825
:101BDE00F000840A00088403F1007808033E8400B4
:101BEE000008F200F3010A128A15A22508000A1253
:101BFE008A15CA240A128A1571088312DD0070082C
:101C0E00DC004030BD00A030BC000030BB00003016
:101C1E00BA004430A3008030A2000030A100003092
:101C2E00A0005C08F0005D08F100F201F301003045
:101C3E000A128A155F270A128A157308A7007208FE
:101C4E00A6007108A5007008A4000A128A1180234C
:101C5E000A128A152308C1002208C0002108BF00FD
:101C6E002008BE000A128A1117250A128A153D088D
:101C7E00DB003C08DA003B08D9003A08D8003C30BB
:101C8E00A3002330A200D730A1000A30A0005B08C9
:101C9E00A7005A08A6005908A5005808A4000A1261
:101CAE008A1180232308D7002208D6002108D500E8
:101CBE002008D4000800A400143083120313A300DC
:101CCE007930A200A20B692EA30B692E0330F90006
:101CDE008312031324080A128A113F210A128A154D
:101CEE00073083120313A3007C30A200A20B7D2EBB
:101CFE00A30B7D2E00000330F9008312031324087A
:101D0E000A128A113F210A128A15203083120313F8
:101D1E00A200A20B902E00000330F90083120313D1
:101D2E0024080A128A113F210A128A150230F9007C
:101D3E008312031324080A128A113F210A128A15EC
:101D4E002830F9008312031324080A128A113F2146
:101D5E000A128A150C30F9008312031324080A1292
:101D6E008A113F210A128A150630F90083120313D5
:101D7E0024080A128A113F210A128A1583120313AC
:101D8E0024080A128A150325080000307005F80091
:101D9E0000307105F90080307205FA007F3073054E
:101DAE00FB007B087A0479047804031DE62E0030CC
:101DBE00F3000030F2000030F1000030F00000308F
:101DCE007405F80000307505F90080307605FA00CC
:101DDE007F307705FB007B087A0479047804031DB5
:101DEE00002F0030F7000030F6000030F500003014
:101DFE00F400F31F262F0030F8000030F9000030F9
:101E0E00FA008030FB007008F8027108031C710F95
:101E1E00112F122FF9027208031C720F172F182F91
:101E2E00FA027308031C730F1D2F1E2FFB027B0873
:101E3E00F3007A08F2007908F1007808F000F71F35
:101E4E004C2F0030F8000030F9000030FA008030DE
:101E5E00FB007408F8027508031C750F372F382F16
:101E6E00F9027608031C760F3D2F3E2FFA027708F3
:101E7E00031C770F432F442FFB027B08F7007A08D1
:101E8E00F6007908F5007808F4008030F30680300B
:101E9E00F70677087302031D080076087202031D09
:101EAE00080075087102031D08007408700208000E
:101EBE00F8007808031DF31F742F7009FA007109DA
:101ECE00FB007209FC007309FD00FA0A0319FB0AF4
:101EDE000319FC0A0319FD0A7C2F7308FD00720812
:101EEE00FC007108FB007008FA007308720471049C
:101EFE007004031D8B2F0030F3000030F200003011
:101F0E00F1000030F00008009630F900FE307D053B
:101F1E000319BA2F0130F4007408F90701300310C9
:101F2E00FD0CFC0CFB0CFA0CFF3E031D962F8D2FA7
:101F3E000130F4007408F9070130FA070030031875
:101F4E000130FB07003003180130FC070030031886
:101F5E000130FD0701300310FD0CFC0CFB0CFA0CDC
:101F6E00FF3E031DB22FFF307D050319CE2F9F2F8D
:101F7E0002307902031CD02F0130F9020130F40037
:101F8E000310FA0DFB0DFC0DFD0DF40BC72FFC1FFE
:101F9E00BF2F7918DA2FFF30FA05FF30FB057F309F
:101FAE00FC05FF30FD050310F90C7908F400F5016E
:101FBE00F601F70118300310F40DF50DF60DF70DBF
:101FCE00FF3E031DE22F7408FA047508FB04760821
:101FDE00FC047708FD047808031DF31FF72FFD1787
:101FEE007D08F3007C08F2007B08F1007A08F0000F
:021FFE000800D9
:02400E00F42F8D
:00000001FF
