:060000000A128A11E32F31
:10000C000800A7006F1C12282708F8007B080A12AA
:10001C008A1590250A128A11FD1F1628FC01FD0174
:10002C00A501A6012608803AA4007D08803A240286
:10003C00031D22287C08250203183A282030F000E2
:10004C000030F100831203132708F2000A128A15FC
:10005C00A5260A128A11013083120313A50703186F
:10006C00A60A0030A6071828831203136F1808007D
:10007C002708F8007B080A128A15902508008312BD
:10008C00A400143083120313A3007930A200A20B36
:10009C004D28A30B4D280330F900831203132408B9
:1000AC000A128A11C9220A128A1107308312031309
:1000BC00A3007C30A200A20B6128A30B61280000D6
:1000CC000330F9008312031324080A128A11C9227F
:1000DC000A128A11203083120313A200A20B742877
:1000EC0000000330F9008312031324080A128A114A
:1000FC00C9220A128A110230F90083120313240850
:10010C000A128A11C9220A128A112830F9008312A4
:10011C00031324080A128A11C9220A128A110C30FC
:10012C00F9008312031324080A128A11C9220A1235
:10013C008A110630F9008312031324080A128A115B
:10014C00C9220A128A118312031324080A128A156F
:10015C00BE240800B8003008840083130008840013
:10016C000A128A150A200A128A11253A031D2C2913
:10017C000130B2003008840032088007EB01EC013A
:10018C000310003003180130EF00FF30ED00FF309A
:10019C00EE003108F60030080A128A15F0260A1211
:1001AC008A11770883120313EC007608EB00EC1F1E
:1001BC00E5286F14EB09EC09EB0A0319EC0A30087B
:1001CC0084000008B900390884000A128A150A2034
:1001DC000A128A11753A031D22293108840000087D
:1001EC00B20002308007320884000008B400840A90
:1001FC000008B500300884003908013E80000F2942
:10020C003508A9003408A80038080A128A154227B4
:10021C000800390884000A128A150A200A128A1169
:10022C00B200B3013308003A03191D292229320800
:10023C00753A031906292229013083120313B200DF
:10024C0030088400320883138007080030088400CB
:10025C00000884000A128A150A200A128A11B200B8
:10026C00B3013208F0003308F1003808F2000A122A
:10027C008A15A5260A128A112229F8007808031D6E
:10028C00F31F58297009FA007109FB007209FC0070
:10029C007309FD00FA0A0319FB0A0319FC0A031976
:1002AC00FD0A60297308FD007208FC007108FB0050
:1002BC007008FA007308720471047004031D6F292E
:1002CC000030F3000030F2000030F1000030F0009C
:1002DC0008009630F900FE307D0503199E29013087
:1002EC00F4007408F90701300310FD0CFC0CFB0C36
:1002FC00FA0CFF3E031D7A2971290130F4007408B1
:10030C00F9070130FA07003003180130FB07003001
:10031C0003180130FC07003003180130FD070130D1
:10032C000310FD0CFC0CFB0CFA0CFF3E031D962974
:10033C00FF307D050319B229832902307902031C91
:10034C00B4290130F9020130F4000310FA0DFB0D51
:10035C00FC0DFD0DF40BAB29FC1FA3297918BE294C
:10036C00FF30FA05FF30FB057F30FC05FF30FD0543
:10037C000310F90C7908F400F501F601F7011830B7
:10038C000310F40DF50DF60DF70DFF3E031DC629F8
:10039C007408FA047508FB047608FC047708FD045D
:1003AC007808031DF31FDB29FD177D08F3007C087B
:1003BC00F2007B08F1007A08F00008000A128A1596
:1003CC0094240A128A110A128A15A0240A128A117C
:1003DC000A128A157E240A128A1163308400C030F6
:1003EC00CF000408D0000830D1004F0884008313DC
:1003FC000008D200CF0A5008840052088000D00AAE
:10040C00D10BFB298316880163300A128A1145200F
:10041C000A128A1163300A128A15BE240A128A1132
:10042C0083120313A001A00AA101A10A63300A12CE
:10043C008A1527250A128A11013083120313A00092
:10044C008030A10063300A128A15B5250A128A1170
:10045C000230A000A101A10A63300A128A152725D7
:10046C000A128A11143083120313A0008030A100E9
:10047C0063300A128A15B5250A128A110A128A15D6
:10048C0089240A128A1171088312DE007008DD00BB
:10049C000A128A156D250A128A117108E00070087B
:1004AC00DF006008D0005F08CF000310D00CCF0C29
:1004BC004F08F0005008F100F201F30100300A126D
:1004CC008A1143210A128A117308A7007208A60028
:1004DC007108A5007008A4004330A300B730A20037
:1004EC001B30A1000030A0000A128A110A250A1242
:1004FC008A112308BD002208BC002108BB0020087B
:10050C00BA000A128A1599270A128A113B08E200CE
:10051C003A08E1001A30BE006208C0006108BF0052
:10052C0053300A128A15D2240A128A110230A00002
:10053C000630A10063300A128A1527250A128A1187
:10054C00533083120313A0000030A10063300A1251
:10055C008A15B5250A128A115E08D0005D08CF00F5
:10056C000310D00CCF0C0310D00CCF0C4F089500FF
:10057C00823083120313D000DD30CF00CF0BC42A9E
:10058C00D00BC42A442AFC007C0884008313000886
:10059C00F000840A00088403F1007C08043E840007
:1005AC000008F2007908FB0004300310FB0CFF3E3E
:1005BC00031DDB2A7B1CE42A0130E52A0030F30002
:1005CC000A128A15DB250A128A117C08840083130F
:1005DC000008F000840A00088403F1007C08053E42
:1005EC0084000008F2007908FB0005300310FB0CB6
:1005FC00FF3E031DFC2A7B1C052B0130062B003013
:10060C00F3000A128A15DB250A128A117C08840071
:10061C0083130008F000840A00088403F1007C08AE
:10062C00063E84000008F2007908FB000630031037
:10063C00FB0CFF3E031D1D2B7B1C262B0130272B97
:10064C000030F3000A128A15DB250A128A117C0885
:10065C00840083130008F000840A00088403F1006E
:10066C007C08073E84000008F2007908FB00073084
:10067C000310FB0CFF3E031D3E2B7B1C472B013054
:10068C00482B0030F3000A128A15DB250A128A1156
:10069C007C08840083130008F000840A000884039B
:1006AC00F1007C08023E84000008F200F3010A12FB
:1006BC008A15DB250A128A117C080A128A1505266E
:1006CC000A128A117C08840083130008F000840A43
:1006DC0000088403F1007C08043E84000008F2004A
:1006EC00791C7A2B01307B2B0030F3000A128A150F
:1006FC00DB250A128A117C08840083130008F000A1
:10070C00840A00088403F1007C08053E840000087C
:10071C00F2007908FB0001300310FB0CFF3E031DB7
:10072C00922B7B1C9B2B01309C2B0030F3000A126C
:10073C008A15DB250A128A117C08840083130008B1
:10074C00F000840A00088403F1007C08063E840053
:10075C000008F2007908FB0002300310FB0CFF3E8E
:10076C00031DB32B7B1CBC2B0130BD2B0030F300C5
:10077C000A128A15DB250A128A117C08840083135D
:10078C000008F000840A00088403F1007C08073E8E
:10079C0084000008F2007908FB0003300310FB0C06
:1007AC00FF3E031DD42B7B1CDD2B0130DE2B0030D8
:1007BC00F3000A128A15DB250A128A117C080A1228
:1007CC008A1505260800FC007C08840083130008A9
:1007DC00F000840A00088403F1007C08043E8400C5
:1007EC000008F2007908FB0004300310FB0CFF3EFC
:1007FC00031DFB2B7B1C042C0130052C0030F3005B
:10080C000A128A15DB250A128A117C0884008313CC
:10081C000008F000840A00088403F1007C08053EFF
:10082C0084000008F2007908FB0005300310FB0C73
:10083C00FF3E031D1C2C7B1C252C0130262C00306C
:10084C00F3000A128A15DB250A128A117C0884002F
:10085C0083130008F000840A00088403F1007C086C
:10086C00063E84000008F2007908FB0006300310F5
:10087C00FB0CFF3E031D3D2C7B1C462C0130472CF2
:10088C000030F3000A128A15DB250A128A117C0843
:10089C00840083130008F000840A00088403F1002C
:1008AC007C08073E84000008F2007908FB00073042
:1008BC000310FB0CFF3E031D5E2C7B1C672C0130D0
:1008CC00682C0030F3000A128A15DB250A128A11F3
:1008DC007C08840083130008F000840A0008840359
:1008EC00F1007C08023E84000008F200F301F30AD8
:1008FC000A128A15DB250A128A117C080A128A153B
:10090C0005260A128A117C08840083130008F00063
:10091C00840A00088403F1007C08043E840000086B
:10092C00F200791C9B2C01309C2C0030F3000A1235
:10093C008A15DB250A128A117C08840083130008AF
:10094C00F000840A00088403F1007C08053E840052
:10095C000008F2007908FB0001300310FB0CFF3E8D
:10096C00031DB32C7B1CBC2C0130BD2C0030F300C0
:10097C000A128A15DB250A128A117C08840083135B
:10098C000008F000840A00088403F1007C08063E8D
:10099C0084000008F2007908FB0002300310FB0C05
:1009AC00FF3E031DD42C7B1CDD2C0130DE2C0030D3
:1009BC00F3000A128A15DB250A128A117C088400BE
:1009CC0083130008F000840A00088403F1007C08FB
:1009DC00073E84000008F2007908FB000330031086
:1009EC00FB0CFF3E031DF52C7B1CFE2C0130FF2C59
:1009FC000030F3000A128A15DB250A128A117C08D2
:100A0C000A128A150526080023088039AD00230830
:100A1C00A8002807B300A21B331433080319232D95
:100A2C00330A031D212D0030A3000030A20000303A
:100A3C00A1000030A000A2172B2D0030A300003025
:100A4C00A2000030A1000030A00027088039A800C7
:100A5C002808AD062708A8002807AE00A61B2E14F0
:100A6C002E080319462D2E0A031D442D0030A70015
:100A7C000030A6000030A5000030A400A6174E2DB3
:100A8C000030A7000030A6000030A5000030A40004
:100A9C002E08031D3308031D5C2D0030A30000300D
:100AAC00A2000030A1000030A00008002008F000D7
:100ABC0026080A128A154A250A128A117108B900E9
:100ACC007008B8003808A800A901AA01AB012B08CE
:100ADC00B2002A08B1002908B0002808AF00390874
:100AEC00A800A901AA01AB012B08B7002A08B6007F
:100AFC002908B5002808B4002108F00025080A12BE
:100B0C008A154A250A128A117108B9007008B800B2
:100B1C003808A800A901AA01AB012808AF072908C9
:100B2C0003110318013E031DB0072A080311031813
:100B3C00013E031DB1072B0803110318013E031DD1
:100B4C00B2073908A800A901AA01AB012808B4070B
:100B5C00290803110318013E031DB5072A080311C8
:100B6C000318013E031DB6072B0803110318013EA1
:100B7C00031DB7072208F00024080A128A154A251B
:100B8C000A128A117108B9007008B8003808A80058
:100B9C00A901AA01AB012808AF0729080311031802
:100BAC00013E031DB0072A0803110318013E031D63
:100BBC00B1072B0803110318013E031DB2073908B6
:100BCC00A800A901AA01AB012808B4072908031140
:100BDC000318013E031DB5072A0803110318013E33
:100BEC00031DB6072B0803110318013E031DB7079D
:100BFC000830A8000310AF0DB00DB10DB20DA80B4D
:100C0C00002E2108F00024080A128A154A250A121F
:100C1C008A117108B9007008B8003808A8003908A2
:100C2C00A900AA01AB012808AF0729080311031872
:100C3C00013E031DB0072A0803110318013E031DD2
:100C4C00B1072B0803110318013E031DB20720083E
:100C5C00F00025080A128A154A250A128A11710811
:100C6C00B9007008B8003808A8003908A900AA0112
:100C7C00AB012808AF07290803110318013E031D17
:100C8C00B0072A0803110318013E031DB1072B08F6
:100C9C0003110318013E031DB2070830A80003100E
:100CAC00AF0DB00DB10DB20DA80B552E2008F000F4
:100CBC0024080A128A154A250A128A117108B900E9
:100CCC007008B8003808A8003908A900AA01AB01BF
:100CDC002808AF07290803110318013E031DB007AC
:100CEC002A0803110318013E031DB1072B08031139
:100CFC000318013E031DB2072108F00026080A1252
:100D0C008A154A250A128A117108B9007008B800B0
:100D1C003808A8003908A900AA01AB012808B407B3
:100D2C00290803110318013E031DB5072A080311F6
:100D3C000318013E031DB6072B0803110318013ECF
:100D4C00031DB7072208F00025080A128A154A2548
:100D5C000A128A117108B9007008B8003808A80086
:100D6C003908A900AA01AB012808B4072908031106
:100D7C000318013E031DB5072A0803110318013E91
:100D8C00031DB6072B0803110318013E031DB707FB
:100D9C002208F00026080A128A154A250A128A111E
:100DAC007108B9007008B8003808A8003908A90003
:100DBC00AA01AB0108300310A80DA90DAA0DAB0DAB
:100DCC00FF3E031DE12E2808B40729080311031860
:100DDC00013E031DB5072A0803110318013E031D2C
:100DEC00B6072B0803110318013E031DB707320881
:100DFC00A800A901AA01AB012808B407290803110E
:100E0C000318013E031DB5072A0803110318013E00
:100E1C00031DB6072B0803110318013E031DB7076A
:100E2C000830A8000310AF0DB00DB10DB20DA80B1A
:100E3C00182F33082E07A800A901A90D2808823EF7
:100E4C00B80029080318013EFF3EB900B61B492F14
:100E5C000130A8000310B40DB50DB60DB70DA80BDD
:100E6C00302FB21B34140130A8000310AF0DB00D9D
:100E7C00B10DB20DA80B3B2FFF30B8070318B90A00
:100E8C00FF30B9072C2FAE01B21F622FFF302F0598
:100E9C00A800FF303005A900FF303105AA007F30D3
:100EAC003205AB002B082A04290428040319341832
:100EBC00602F622FAE01AE0A2E080319942F013059
:100ECC00B407003003180130B507003003180130A7
:100EDC00B607003003180130B707371C942F3408BD
:100EEC00A8003508A9003608AA003708AB00013065
:100EFC00AC002B0DAB0CAA0CA90CA80CAC0B7F2FC7
:100F0C002B08B7002A08B6002908B5002808B40039
:100F1C000130B8070318B90A0030B9073908803A0C
:100F2C00FF0080307F02031D9D2FFF303802031C11
:100F3C00AA2F7F3083120313B7008030B600003025
:100F4C00B5000030B400D62F831203133908803A51
:100F5C00FF0080307F02031DB52F013038020318CB
:100F6C00C32F003083120313B7000030B6000030DB
:100F7C00B5000030B400AD01D62F8312031338082E
:100F8C00B300FF30B405FF30B5057F30B605003037
:100F9C00B7053318B6173308A8000310280CB70090
:100FAC002D08A8002808B7043708A3003608A200AB
:100FBC003508A1003408A00008008313C830FD00D8
:100FCC000C30FE007630FF00C03084000A128A1507
:100FDC00B1240A128A11A0308400C0300A128A157A
:100FEC006E24EB01EC01ED01EE01EF0183010A121D
:100FFC008A11E429FF1B0A2883137F188317000822
:10100C00840A0319FF0A080008308A000408840ABD
:10101C008207003443344F344F344C34453452340B
:10102C002034523450344D34203443346F347534BE
:10103C006E347434653472340034523450344D345C
:0E104C003A3420340034253434347534003402
:1018DC0064008001840A04060319003404066F2C8A
:1018EC000834003402340334043405340634073429
:1018FC000614031789010313811281110730810427
:10190C00831281010800831203139F149F188C2CDF
:10191C001E08F10083161E08F00008000730920024
:10192C00FF30831692000C3083129700950104301F
:10193C0092000800831687010130031788000130DC
:10194C00831203139F00803083169F0008007E08CB
:10195C008A007F088200AD240A128A158000840A4E
:10196C0004087D0603190034FF0A0319FE0AB12C82
:10197C00FD00F901F90A7D080A128A11C9220A121E
:10198C008A15033083120313A1009730A000A00B1B
:10199C00CD2CA10BCD2C0800C3003F30C200430856
:1019AC00C400C601C701CD01CE013E08BA004230C9
:1019BC00BB0044300A128A15EB2446084307C100C9
:1019CC0041088400831380010800BC003A08BD0064
:1019DC003D0884000A128A150A200A128A15003A58
:1019EC000319032D3D30B0003B08B1003C080A122E
:1019FC008A11B0200A128A15EE2CBA01BB0108001C
:101A0C00F401F501701C102D7208F4070318F50A87
:101A1C007308F50701300310F20DF30DFF3E031DA3
:101A2C00112D01300310F10CF00CFF3E031D182D8D
:101A3C0070087104031D082D7508F1007408F0007E
:101A4C000800A5002E2D80302C2DC030A4003E2D7A
:101A5C002008A200A3012308003A0319362D292DD2
:101A6C002208013A0319292D033A03192B2D292D8C
:101A7C002108FF3EA2002208A4072408F90025082B
:101A8C000A128A11C9220800F800F401F501700845
:101A9C00F200F3017208F6007308F700781C5C2D55
:101AAC007608F4070318F50A7708F50701300310D8
:101ABC00F60DF70DFF3E031D5D2D0310F80C780895
:101ACC00031D542D7508F1007408F0000800F20194
:101ADC00F301003006180130F40081010B110B19D1
:101AEC008B2D003006180130F500750874060319AB
:101AFC00882D7503031D882D0130F2070318F30A96
:101B0C000030F3077508F400752D7308F1007208A6
:101B1C00F0000800A300A101A20121082307F9008D
:101B2C007908840083130008A0002008031908001A
:101B3C002008F900FA017908F0007A08F100780819
:101B4C00F2000A128A15A5260A128A150130831290
:101B5C000313A1070318A20A0030A207932DFD005E
:101B6C002108FF00200884000A128A1500200A129E
:101B7C008A15003A031908002108FF002008840088
:101B8C000A128A1500200A128A15F9007D080A1219
:101B9C008A11E9230A128A15013083120313A00754
:101BAC000318A10A0030A107B62D73080319F12DF3
:101BBC000130F400720AE42D0310F40DFF3E031DF6
:101BCC00E22D7408F500700884008317711C8313D0
:101BDC007508800408000130F400720AF72D031018
:101BEC00F40DFF3E031DF52D7408FF3AF500700847
:101BFC0084008317711C8313750880050800F80096
:101C0C007808840083130008F000840A0008840319
:101C1C00F1007808033E84000008F200F301F30A97
:101C2C000A128A15DB250A128A150330F700973041
:101C3C00F600F60B1F2EF70B1F2E242E78088400AF
:101C4C0083130008F000840A00088403F10078086C
:101C5C00033E84000008F200F3010A128A15DB250A
:101C6C000800700871040319642EF501F50AF11BC4
:101C7C004B2E01300310F00DF10DFF3E031D402ED5
:101C8C000130F4007408F5073D2E71087302031D32
:101C9C00512E70087202031C592E7008F202710842
:101CAC00031CF303F30201300310F10CF00CFF3EA4
:101CBC00031D5A2E0130F502031D4B2E7308F10043
:101CCC007208F0000800F501F601700871040319A0
:101CDC00A02EF701F70AF11B7F2E01300310F00D37
:101CEC00F10DFF3E031D742E0130F4007408F7074C
:101CFC00712E01300310F50DF60DFF3E031D802EE5
:101D0C0071087302031D8C2E70087202031C952E31
:101D1C007008F2027108031CF303F302751401300E
:101D2C000310F10CF00CFF3E031D962E0130F70250
:101D3C00031D7F2E7608F1007508F000080072086C
:101D4C00031D7208031DAF2E70080A128A1106209B
:101D5C0008007208093E840083130008F300840A0B
:101D6C000008F400730874040319D82E7208093E95
:101D7C0084000008F300840A0008F4007208023E94
:101D8C0084000008F500840A0008F6007608803A02
:101D9C00F7007408803A7702031DD62E730875027B
:101DAC00031808007208023E840083130008F30035
:101DBC007208840000087307F4007408840070082B
:101DCC0080007208023E840001308007840A0318E8
:101DDC00800A0800FC00FA01FB017C088400000862
:101DEC0084000A128A150A200A128A152A3A031D3F
:101DFC002E2F0130F8007C088400780880077608C4
:101E0C0084000008F800023080077808840000087D
:101E1C00FA00840A0008FB003D2F7B08F1007A08C9
:101E2C00F0000A30F2000030F3000A128A15062581
:101E3C000A128A1579087007FA000030031801306D
:101E4C007107FB000130F8007C08840078088007DB
:101E5C007C088400000884000A128A150A200A12E1
:101E6C008A15D03EF9000A307902031C132F7B0827
:101E7C00F7007A08F6000800AC00AD01AD0A6C085A
:101E8C00AB006B08AA001F30AE000030AF00831609
:101E9C00BF01882F2808290403192D0803198D2F39
:101EAC00FF30AE070318AF0AFF30AF072E08A03E75
:101EBC0084000A30F0000030F1002908F3002808F3
:101ECC00F2000A128A1537260A128A157008303E5B
:101EDC0083138000AD01FF30AA070318AB0AFF3053
:101EEC00AB070A30F0000030F1002908F300280895
:101EFC00F2000A128A1569260A128A157108A900BD
:101F0C007008A80083122E082F04031D502F2E08D2
:101F1C00A03EFB002B08FD002A08FC002C080A122E
:101F2C008A110720080003103C0D3D0DC300430827
:101F3C00031DA92F0030BD000030BC000030BB00D9
:101F4C000030BA0008003A08BE003B08BF003C084D
:101F5C00C0003D08C1001F300310C10CC00CBF0CE9
:101F6C00BE0CFF3E031DB22F3E08C200BC17FF3053
:101F7C00BA05FF30BB05FF30BC050030BD059630FF
:101F8C00C302C31FDE2F4308803A973E031CA02FC9
:101F9C0001300310BD0CBC0CBB0CBA0CFF3E031D76
:101FAC00CF2F0130BE003E08C3070319F12FCE2FEF
:101FBC00203043020318A02F43080319F12F0130DE
:101FCC00BE000310BA0DBB0DBC0DBD0DBE0BE72F33
:101FDC000130C302E22F420803190800BA09BB09F9
:101FEC00BC09BD09BA0A0319BB0A0319BC0A0319B7
:041FFC00BD0A080012
:02400E00F42F8D
:00000001FF
