:100000000A128A11F02F00308A000408840A82073D
:10001000003443344F344F344C344534523420345C
:10002000523450344D34203443346F3475346E348C
:080030007434653472340034AD
:10087C0007340034013402340434053406340734AC
:10088C007E088A007F08820046240A128A118000A2
:10089C00840A04087D0603190034FF0A0319FE0AB2
:1008AC004A2CFD00F901F90A7D080A128A11AF25BC
:1008BC000A128A11033083120313A1009730A0008F
:1008CC00A00B662CA10B662C080083120313A1004D
:1008DC007D0884000A128A1103200A128A11003A38
:1008EC00031908007D0884000A128A1103200A12D9
:1008FC008A11F90021080A128A11CF260A128A11CC
:10090C00013083120313A0002008FD076E2CA400F5
:10091C00942C8030922CC030A500A42C2008A2006E
:10092C00A3012308003A03199C2C8F2C2208013AAE
:10093C0003198F2C033A0319912C8F2C2108FF3E9D
:10094C00A2002208A5072508F90024080A128A111A
:10095C00AF25080073080319C62C0130F400720A85
:10096C00B92C0310F40DFF3E031DB72C7408F500D1
:10097C00700884008317711C8313750880040800A9
:10098C000130F400720ACC2C0310F40DFF3E031D51
:10099C00CA2C7408FF3AF500700884008317711C88
:1009AC008313750880050800F80078088400831309
:1009BC000008F000840A00088403F1007808033E64
:1009CC0084000008F200F301F30A0A128A11B02421
:1009DC000A128A110330F7009730F600F60BF42C4C
:1009EC00F70BF42CF92C7808840083130008F00022
:1009FC00840A00088403F1007808033E8400000890
:100A0C00F200F3010A128A11B02408002A30840083
:100A1C003230A6000408A7000830A800260884007D
:100A2C0083130008A900A60A27088400290880005F
:100A3C00A70AA80B142D831687012A300A128A11D3
:100A4C0044250A128A112A300A128A1157240A12D2
:100A5C008A1183120313A001A00AA101A10A2A3052
:100A6C000A128A118D240A128A110130FD002A30D3
:100A7C000A128A116B240A128A11432D8312A400C4
:100A8C00143083120313A3007930A200A20B4C2D57
:100A9C00A30B4C2D0330F9008312031324080A1204
:100AAC008A11AF250A128A11073083120313A3008F
:100ABC007C30A200A20B602DA30B602D0000033034
:100ACC00F9008312031324080A128A11AF250A12A3
:100ADC008A11203083120313A200A20B732D000085
:100AEC000330F9008312031324080A128A11AF256C
:100AFC000A128A110230F9008312031324080A1215
:100B0C008A11AF250A128A112830F90083120313B7
:100B1C0024080A128A11AF250A128A110C30F90026
:100B2C008312031324080A128A11AF250A128A11A0
:100B3C000630F9008312031324080A128A11AF2518
:100B4C000A128A118312031324080A128A115724D9
:100B5C000800FC007C08840083130008F000840A61
:100B6C0000088403F1007C08043E84000008F200B5
:100B7C007908FB0004300310FB0CFF3E031DC12D54
:100B8C007B1CCA2D0130CB2D0030F3000A128A11C8
:100B9C00B0240A128A117C08840083130008F00028
:100BAC00840A00088403F1007C08053E84000008D8
:100BBC00F2007908FB0005300310FB0CFF3E031D0F
:100BCC00E22D7B1CEB2D0130EC2D0030F3000A12D2
:100BDC008A11B0240A128A117C088400831300083D
:100BEC00F000840A00088403F1007C08063E8400AF
:100BFC000008F2007908FB0006300310FB0CFF3EE6
:100C0C00031D032E7B1C0C2E01300D2E0030F30027
:100C1C000A128A11B0240A128A117C0884008313E8
:100C2C000008F000840A00088403F1007C08073EE9
:100C3C0084000008F2007908FB0007300310FB0C5D
:100C4C00FF3E031D242E7B1C2D2E01302E2E00303A
:100C5C00F3000A128A11B0240A128A117C0884004B
:100C6C0083130008F000840A00088403F1007C0858
:100C7C00023E84000008F200F3010A128A11B0242B
:100C8C000A128A117C080A128A11DA240A128A11B1
:100C9C007C08840083130008F000840A0008840395
:100CAC00F1007C08043E84000008F200791C602EE0
:100CBC000130612E0030F3000A128A11B0240A129E
:100CCC008A117C08840083130008F000840A000851
:100CDC008403F1007C08053E84000008F2007908CA
:100CEC00FB0001300310FB0CFF3E031D782E7B1C18
:100CFC00812E0130822E0030F3000A128A11B024AA
:100D0C000A128A117C08840083130008F000840AFC
:100D1C0000088403F1007C08063E84000008F20001
:100D2C007908FB0002300310FB0CFF3E031D992ECB
:100D3C007B1CA22E0130A32E0030F3000A128A1164
:100D4C00B0240A128A117C08840083130008F00076
:100D5C00840A00088403F1007C08073E8400000824
:100D6C00F2007908FB0003300310FB0CFF3E031D5F
:100D7C00BA2E7B1CC32E0130C42E0030F3000A1295
:100D8C008A11B0240A128A117C080A128A11DA24F8
:100D9C000800FC007C08840083130008F000840A1F
:100DAC0000088403F1007C08043E84000008F20073
:100DBC007908FB0004300310FB0CFF3E031DE12EF1
:100DCC007B1CEA2E0130EB2E0030F3000A128A1144
:100DDC00B0240A128A117C08840083130008F000E6
:100DEC00840A00088403F1007C08053E8400000896
:100DFC00F2007908FB0005300310FB0CFF3E031DCD
:100E0C00022F7B1C0B2F01300C2F0030F3000A1229
:100E1C008A11B0240A128A117C08840083130008FA
:100E2C00F000840A00088403F1007C08063E84006C
:100E3C000008F2007908FB0006300310FB0CFF3EA3
:100E4C00031D232F7B1C2C2F01302D2F0030F30082
:100E5C000A128A11B0240A128A117C0884008313A6
:100E6C000008F000840A00088403F1007C08073EA7
:100E7C0084000008F2007908FB0007300310FB0C1B
:100E8C00FF3E031D442F7B1C4D2F01304E2F003095
:100E9C00F3000A128A11B0240A128A117C08840009
:100EAC0083130008F000840A00088403F1007C0816
:100EBC00023E84000008F200F301F30A0A128A11C0
:100ECC00B0240A128A117C080A128A11DA240A1236
:100EDC008A117C08840083130008F000840A00083F
:100EEC008403F1007C08043E84000008F200791CA5
:100EFC00812F0130822F0030F3000A128A11B024A6
:100F0C000A128A117C08840083130008F000840AFA
:100F1C0000088403F1007C08053E84000008F20000
:100F2C007908FB0001300310FB0CFF3E031D992FC9
:100F3C007B1CA22F0130A32F0030F3000A128A1160
:100F4C00B0240A128A117C08840083130008F00074
:100F5C00840A00088403F1007C08063E8400000823
:100F6C00F2007908FB0002300310FB0CFF3E031D5E
:100F7C00BA2F7B1CC32F0130C42F0030F3000A1290
:100F8C008A11B0240A128A117C0884008313000889
:100F9C00F000840A00088403F1007C08073E8400FA
:100FAC000008F2007908FB0003300310FB0CFF3E35
:100FBC00031DDB2F7B1CE42F0130E52F0030F300E9
:100FCC000A128A11B0240A128A117C080A128A1198
:100FDC00DA24080083133A30FD000430FE003E3062
:100FEC00FF00323084000A128A114A2483010A124B
:040FFC008A110C2D1D
:02400E00F42F8D
:00000001FF
