:100000000A128A11E32F7308031919280130F4002A
:10001000720A0C280310F40DFF3E031D0A28740811
:10002000F500700884008317711C83137508800421
:1000300008000130F400720A1F280310F40DFF3E7F
:10004000031D1D287408FF3AF5007008840083170B
:10005000711C83137508800508000A128A153B235A
:100060000A128A110A128A152F230A128A110A12F9
:100070008A1519230A128A11D2308400DA30DE0080
:100080000408DF000830E0005E08840083130008E5
:10009000E100DE0A5F08840061088000DF0AE00BEF
:1000A000442883168801D2300A128A15A1250A1223
:1000B0008A11D2300A128A1558230A128A11831221
:1000C0000313A001A00AA101A10AD2300A128A15C5
:1000D000C3230A128A11013083120313A000803057
:1000E000A100D2300A128A152D240A128A11023078
:1000F000A000A101A10AD2300A128A15C3230A1254
:100100008A11143083120313A0008030A100D23072
:100110000A128A152D240A128A110A128A153D25FF
:100120000A128A1157088316D100831256088316C3
:10013000D000831255088316CF008312540883160B
:10014000CE000A128A1509240A128A117108831630
:10015000CB007008CA004B088312DF0083164A08E0
:100160008312DE000310DF0CDE0C5E08F0005F0877
:10017000F1000030F200F3000A128A15A2230A12DD
:100180008A1171088316CD007008CC001A308312D2
:10019000A90083164D088312AB0083164C08831206
:1001A000AA00C0300A128A156C230A128A11023082
:1001B000A0000630A100D2300A128A15C3230A1209
:1001C0008A11C03083120313A0000030A100D23086
:1001D0000A128A152D240A128A114230F3000430C3
:1001E000F2000030F1000030F00083165108F700F3
:1001F0005008F6004F08F5004E08F4000A128A1560
:100200000C260A128A110318072996302129413039
:10021000F300F030F2000030F1000030F00051083F
:10022000F7005008F6004F08F5004E08F4000A12D7
:100230008A150C260A128A11031820291230212946
:100240000930831295000B3083120313E00026302F
:10025000DF005D30DE00DE0B2B29DF0B2B29E00BEE
:100260002B298D28FC007C08840083130008F000F3
:10027000840A00088403F1007C08043E840000081E
:10028000F2007908FB0004300310FB0CFF3E031D55
:1002900044297B1C4D2901304E290030F3000A12FD
:1002A0008A1103200A128A117C0884008313000833
:1002B000F000840A00088403F1007C08053E8400F5
:1002C0000008F2007908FB0005300310FB0CFF3E2C
:1002D000031D65297B1C6E2901306F290030F30056
:1002E0000A128A1103200A128A117C0884008313DF
:1002F0000008F000840A00088403F1007C08063E30
:1003000084000008F2007908FB0006300310FB0CA3
:10031000FF3E031D86297B1C8F2901309029003068
:10032000F3000A128A1103200A128A117C08840041
:1003300083130008F000840A00088403F1007C089D
:10034000073E84000008F2007908FB000730031024
:10035000FB0CFF3E031DA7297B1CB0290130B129EE
:100360000030F3000A128A1103200A128A117C0855
:10037000840083130008F000840A00088403F1005D
:100380007C08023E84000008F200F3010A128A1180
:1003900003200A128A117C080A128A1553240A12B1
:1003A0008A117C08840083130008F000840A000886
:1003B0008403F1007C08043E84000008F200791CEC
:1003C000E3290130E4290030F3000A128A110320E6
:1003D0000A128A117C08840083130008F000840A42
:1003E00000088403F1007C08053E84000008F20048
:1003F0007908FB0001300310FB0CFF3E031DFB29B5
:100400007B1C042A0130052A0030F3000A128A11ED
:1004100003200A128A117C08840083130008F0006C
:10042000840A00088403F1007C08063E840000086A
:10043000F2007908FB0002300310FB0CFF3E031DA5
:100440001C2A7B1C252A0130262A0030F3000A12C0
:100450008A1103200A128A117C0884008313000881
:10046000F000840A00088403F1007C08073E840041
:100470000008F2007908FB0003300310FB0CFF3E7C
:10048000031D3D2A7B1C462A0130472A0030F30019
:100490000A128A1103200A128A117C080A128A158C
:1004A00053240800FC007C08840083130008F0003B
:1004B000840A00088403F1007C08043E84000008DC
:1004C000F2007908FB0004300310FB0CFF3E031D13
:1004D000642A7B1C6D2A01306E2A0030F3000A1258
:1004E0008A1103200A128A117C08840083130008F1
:1004F000F000840A00088403F1007C08053E8400B3
:100500000008F2007908FB0005300310FB0CFF3EE9
:10051000031D852A7B1C8E2A01308F2A0030F300B0
:100520000A128A1103200A128A117C08840083139C
:100530000008F000840A00088403F1007C08063EED
:1005400084000008F2007908FB0006300310FB0C61
:10055000FF3E031DA62A7B1CAF2A0130B02A0030C3
:10056000F3000A128A1103200A128A117C088400FF
:1005700083130008F000840A00088403F1007C085B
:10058000073E84000008F2007908FB0007300310E2
:10059000FB0CFF3E031DC72A7B1CD02A0130D12A49
:1005A0000030F3000A128A1103200A128A117C0813
:1005B000840083130008F000840A00088403F1001B
:1005C0007C08023E84000008F200F301F30A0A12DC
:1005D0008A1103200A128A117C080A128A155324F0
:1005E0000A128A117C08840083130008F000840A30
:1005F00000088403F1007C08043E84000008F20037
:10060000791C042B0130052B0030F3000A128A11EB
:1006100003200A128A117C08840083130008F0006A
:10062000840A00088403F1007C08053E8400000869
:10063000F2007908FB0001300310FB0CFF3E031DA4
:100640001C2B7B1C252B0130262B0030F3000A12BB
:100650008A1103200A128A117C088400831300087F
:10066000F000840A00088403F1007C08063E840040
:100670000008F2007908FB0002300310FB0CFF3E7B
:10068000031D3D2B7B1C462B0130472B0030F30014
:100690000A128A1103200A128A117C08840083132B
:1006A0000008F000840A00088403F1007C08073E7B
:1006B00084000008F2007908FB0003300310FB0CF3
:1006C000FF3E031D5E2B7B1C672B0130682B003027
:1006D000F3000A128A1103200A128A117C080A12F6
:1006E0008A155324080027088039B1002708A8007C
:1006F0002807B800A61B3814380803198D2B380AB0
:10070000031D8A2B0030A7000030A6000030A50092
:100710000030A400A617A701952B0030A7000030D9
:10072000A6000030A5000030A40023088039A800EE
:100730002808B1062308A8002807B900A21B39140D
:1007400039080319B12B390A031DAE2B0030A30061
:100750000030A2000030A1000030A000A217A301C9
:10076000B92B0030A3000030A2000030A1000030FF
:10077000A0002308220421042004031DD82B0030EC
:10078000A7000030A6000030A5000030A400803093
:10079000A6047F30A7043108A8002808A70427086A
:1007A000A3002608A2002508A1002408A000080034
:1007B0003808031DE42B0030A3000030A2000030F5
:1007C000A1000030A00008003808A800A9012908ED
:1007D000AB0039082802AA00031CAB032A087F3E9D
:1007E000B2002B080318013E003EB3002708B000FA
:1007F0002608AF002508AE002408AD000030A70091
:100800000030A6000030A5000030A4000030B70082
:100810000030B6000030B5000030B400B9011A3025
:1008200039020318572C39080319332C0130A8005A
:100830000310AD0DAE0DAF0DB00DA80B182C01308F
:10084000A8000310A40DA50DA60DA70DA80B212C23
:10085000B71B24140130A8000310B40DB50DB60D5C
:10086000B70DA80B2C2C23083002031D412C2208A5
:100870002F02031D412C21082E02031D412C2008AC
:100880002D02031C522C37172008AD022108031C2F
:10089000210FAE022208031C220FAF022308031C03
:1008A000230FB0020130A8002808B9070F2C300828
:1008B0002F042E042D04031D3414A61B7A2C0130A2
:1008C000A8000310A40DA50DA60DA70DA80B612C63
:1008D000B71B24140130A8000310B40DB50DB60DDC
:1008E000B70DA80B6C2CFF30B2070318B30AFF300A
:1008F000B3075D2CB901B71F932CFF303405A80056
:10090000FF303505A900FF303605AA007F303705D6
:10091000AB002B082A042904280403192418912C5D
:10092000932CB901B90A39080319C52C0130A40761
:10093000003003180130A507003003180130A60766
:10094000003003180130A707271CC52C2408A80075
:100950002508A9002608AA002708AB000130AC0032
:100960002B0DAB0CAA0CA90CA80CAC0BB02C2B08B3
:10097000A7002A08A6002908A5002808A40001301D
:10098000B2070318B30A0030B3073308803AFF00F8
:1009900080307F02031DCE2CFF303202031CDE2C80
:1009A000FF3083120313B2000030B3000030A70001
:1009B0000030A6000030A5000030A400831203130D
:1009C0003308803AFF0080307F02031DE92C01309C
:1009D00032020318F82C83120313B201B301003062
:1009E000A7000030A6000030A5000030A400B1012F
:1009F000831203133208B800381C002DA617042DEB
:100A00007F30A8002808A6053808A8000310280C85
:100A1000A700CB2B3D088039C7003D08C200420724
:100A2000CD00BC1B4D144D080319232D4D0A031D89
:100A3000212D0030BD000030BC000030BB00003074
:100A4000BA00BC172B2D0030BD000030BC000030B8
:100A5000BB000030BA0041088039C2004208C70616
:100A60004108C2004207C800C01B481448080319C7
:100A7000462D480A031D442D0030C1000030C0003F
:100A80000030BF000030BE00C0174E2D0030C10046
:100A90000030C0000030BF000030BE004808031D19
:100AA0004D08031D5C2D0030BD000030BC0000303F
:100AB000BB000030BA0008003A08F00040080A12F3
:100AC0008A15E6230A128A117108D3007008D20031
:100AD0005208C200C301C401C5014508CC00440846
:100AE000CB004308CA004208C9005308C200C30132
:100AF000C401C5014508D1004408D0004308CF0017
:100B00004208CE003B08F0003F080A128A15E6238F
:100B10000A128A117108D3007008D2005208C2006C
:100B2000C301C401C5014208C907430803110318E2
:100B3000013E031DCA07440803110318013E031DAB
:100B4000CB07450803110318013E031DCC075308CA
:100B5000C200C301C401C5014208CE074308031106
:100B60000318013E031DCF07440803110318013E7B
:100B7000031DD007450803110318013E031DD107CB
:100B80003C08F0003E080A128A15E6230A128A1170
:100B90007108D3007008D2005208C200C301C4011A
:100BA000C5014208C907430803110318013E031D8C
:100BB000CA07440803110318013E031DCB0745086B
:100BC00003110318013E031DCC075308C200C301E3
:100BD000C401C5014208CE07430803110318013EB2
:100BE000031DCF07440803110318013E031DD0075E
:100BF000450803110318013E031DD1070830C20048
:100C00000310C90DCA0DCB0DCC0DC20B002E3B0835
:100C1000F0003E080A128A15E6230A128A117108AA
:100C2000D3007008D2005208C2005308C300C401A8
:100C3000C5014208C907430803110318013E031DFB
:100C4000CA07440803110318013E031DCB074508DA
:100C500003110318013E031DCC073A08F0003F08BA
:100C60000A128A15E6230A128A117108D300700845
:100C7000D2005208C2005308C300C401C501420893
:100C8000C907430803110318013E031DCA0744089E
:100C900003110318013E031DCB0745080311031878
:100CA000013E031DCC070830C2000310C90DCA0D58
:100CB000CB0DCC0DC20B552E3A08F0003E080A129F
:100CC0008A15E6230A128A117108D3007008D2002F
:100CD0005208C2005308C300C401C5014208C90735
:100CE000430803110318013E031DCA0744080311FA
:100CF0000318013E031DCB07450803110318013EED
:100D0000031DCC073B08F00040080A128A15E623B1
:100D10000A128A117108D3007008D2005208C2006A
:100D20005308C300C401C5014208CE07430803119C
:100D30000318013E031DCF07440803110318013EA9
:100D4000031DD007450803110318013E031DD107F9
:100D50003C08F0003F080A128A15E6230A128A119D
:100D60007108D3007008D2005208C2005308C300B3
:100D7000C401C5014208CE07430803110318013E10
:100D8000031DCF07440803110318013E031DD007BC
:100D9000450803110318013E031DD1073C08F0006C
:100DA00040080A128A15E6230A128A117108D30034
:100DB0007008D2005208C2005308C300C401C50124
:100DC00008300310C20DC30DC40DC50DFF3E031D39
:100DD000E12E4208CE07430803110318013E031D0C
:100DE000CF07440803110318013E031DD00745082F
:100DF00003110318013E031DD1074C08C200C301B3
:100E0000C401C5014208CE07430803110318013E7F
:100E1000031DCF07440803110318013E031DD0072B
:100E2000450803110318013E031DD1070830C20015
:100E30000310C90DCA0DCB0DCC0DC20B182F4D08D8
:100E40004807C200C301C30D4208823ED2004308D6
:100E50000318013EFF3ED300D01B492F0130C200D2
:100E60000310CE0DCF0DD00DD10DC20B302FCC1BEA
:100E70004E140130C2000310C90DCA0DCB0DCC0DAC
:100E8000C20B3B2FFF30D2070318D30AFF30D30722
:100E90002C2FC801CC1F622FFF304905C200FF3044
:100EA0004A05C300FF304B05C4007F304C05C50028
:100EB000450844044304420403194E18602F622F6E
:100EC000C801C80A48080319942F0130CE07003022
:100ED00003180130CF07003003180130D00700306D
:100EE00003180130D107511C942F4E08C2004F083F
:100EF000C3005008C4005108C5000130C600450DAC
:100F0000C50CC40CC30CC20CC60B7F2F4508D10006
:100F10004408D0004308CF004208CE000130D20779
:100F20000318D30A0030D3075308803AFF008030FB
:100F30007F02031D9D2FFF305202031CAA2F7F301A
:100F400083120313D1008030D0000030CF00003076
:100F5000CE00D62F831203135308803AFF0080304F
:100F60007F02031DB52F013052020318C32F00303A
:100F700083120313D1000030D0000030CF000030C6
:100F8000CE00C701D62F831203135208CD00FF30C5
:100F9000CE05FF30CF057F30D0050030D1054D188C
:100FA000D0174D08C2000310420CD1004708C20000
:100FB0004208D1045108BD005008BC004F08BB00D6
:100FC0004E08BA0008008313E230FD000B30FE002B
:100FD0001130FF00DA3084000A128A154B230A12FE
:100FE0008A11A0308400C0300A128A150923E20158
:100FF000E301E401E501E60183010A128A112D28CB
:10100000FF1B0A2883137F1883170008840A03191B
:10101000FF0A080008308A000408840A82070034A6
:1010200043344F344F344C344534523420345234EA
:1010300050344D34203443346F3475346E3474344A
:10104000653472340034523450344D343A342034E0
:0810500000342534753400342E
:10161000080064008001840A0406031900340406EB
:101620000A2B0834003402340334043405340634FD
:10163000073406140317890103138112811107303F
:101640008104831281010800831203139F149F18E1
:10165000272B1E08F10083161E08F0000800013039
:101660008316031788000130831203139F00803014
:1016700083169F00080007309200FF308316920007
:101680000C308312970095010430920008007E0808
:101690008A007F08820047230A128A158000840A84
:1016A00004087D0603190034FF0A0319FE0A4B2BB8
:1016B000FD00F901F90A7D080A128A1132210A1285
:1016C0008A15033083120313A1009730A000A00BEA
:1016D000672BA10B672B0800AE002A30AD002E0847
:1016E000AF00B101B201B801B9012908FC002D30E9
:1016F000FD002F300A128A15852331082E07AC0011
:101700002C088400831380010800A7007C08A8002F
:1017100083120313280884000A128A150A200A1269
:101720008A15003A03199F2B2830F8007D08F9002C
:1017300027080A128A1540270A128A15882BFC01ED
:10174000FD010800F401F501701CAC2B7208F407D0
:101750000318F50A7308F50701300310F20DF30DB5
:10176000FF3E031DAD2B01300310F10CF00CFF3ECA
:10177000031DB42B70087104031DA42B7508F10020
:101780007408F0000800A500CA2B8030C82BC030B8
:10179000A400DA2B2008A200A3012308003A0319B1
:1017A000D22BC52B2208013A0319C52B033A031982
:1017B000C72BC52B2108FF3EA2002208A40724083E
:1017C000F90025080A128A1132210800F800F401F4
:1017D000F5017008F200F3017208F6007308F700D3
:1017E000781CF82B7608F4070318F50A7708F50734
:1017F00001300310F60DF70DFF3E031DF92B03100A
:10180000F80C7808031DF02B7508F1007408F0003F
:101810000800F201F3010030831206180130F400D1
:1018200081010B110B19282C003006180130F5002E
:10183000750874060319252C7503031D252C01302A
:10184000F2070318F30A0030F3077508F400122CAE
:10185000B030F0000430F1000800FD002108FF0066
:10186000200884000A128A1500200A128A15003AFC
:10187000031908002108FF00200884000A128A15B5
:1018800000200A128A15F9007D080A128A115222D4
:101890000A128A15013083120313A0070318A10A44
:1018A0000030A1072E2CF80078088400831300086C
:1018B000F000840A00088403F1007808033E8400E5
:1018C0000008F200F301F30A0A128A1103200A1237
:1018D0008A150330F7009730F600F60B6D2CF70BE6
:1018E0006D2C722C7808840083130008F000840AA1
:1018F00000088403F1007808033E84000008F20029
:10190000F3010A128A1103200800700871040319F8
:10191000B22CF501F50AF11B992C01300310F00DE2
:10192000F10DFF3E031D8E2C0130F4007408F50705
:101930008B2C71087302031D9F2C70087202031C0C
:10194000A72C7008F2027108031CF303F3020130A4
:101950000310F10CF00CFF3E031DA82C0130F50222
:10196000031D992C7308F1007208F0000800F501BE
:10197000F601700871040319EE2CF701F70AF11B48
:10198000CD2C01300310F00DF10DFF3E031DC22CD4
:101990000130F4007408F707BF2C01300310F50D77
:1019A000F60DFF3E031DCE2C71087302031DDA2CC9
:1019B00070087202031CE32C7008F2027108031C09
:1019C000F303F302751401300310F10CF00CFF3E29
:1019D000031DE42C0130F702031DCD2C7608F10025
:1019E0007508F00008007208031D7208031DFD2C25
:1019F00070080A128A15082308007208093E84003C
:101A00000008F300840A0008F40073087404031942
:101A1000252D7208093E84000008F300840A00089E
:101A2000F4007208023E84000008F500840A0008F1
:101A3000F6007608803AF7007408803A7702031DB2
:101A4000232D73087502031808007208023E8400F3
:101A500083130008F3007208840000087307F40081
:101A600074088400700880007208023E840001300F
:101A70008007840A0318800A08000A128A152423A2
:101A80000A128A1571088312DD007008DC004030EC
:101A9000BD00A030BC000030BB000030BA004430B4
:101AA000A3008030A2000030A1000030A0005C083C
:101AB000F0005D08F100F201F30100300A128A150E
:101AC0009F260A128A157308A7007208A6007108DB
:101AD000A5007008A4000A128A1173230A128A153D
:101AE0002308C1002208C0002108BF002008BE0052
:101AF0000A128A110A250A128A153D08DB003C08E1
:101B0000DA003B08D9003A08D8003C30A300233063
:101B1000A200D730A1000A30A0005B08A7005A0835
:101B2000A6005908A5005808A4000A128A117323B8
:101B30002308D7002208D6002108D5002008D400A9
:101B400008008312A400143083120313A300793019
:101B5000A200A20BA92DA30BA92D0330F90083121B
:101B6000031324080A128A1132210A128A15073037
:101B700083120313A3007C30A200A20BBD2DA30B84
:101B8000BD2D00000330F9008312031324080A124C
:101B90008A1132210A128A15203083120313A200FF
:101BA000A20BD02D00000330F90083120313240888
:101BB0000A128A1132210A128A150230F9008312A0
:101BC000031324080A128A1132210A128A152830B6
:101BD000F9008312031324080A128A1132210A120F
:101BE0008A150C30F9008312031324080A128A1193
:101BF00032210A128A150630F900831203132408D1
:101C00000A128A1132210A128A1583120313240838
:101C10000A128A155823080000307005F8000030B9
:101C20007105F90080307205FA007F307305FB0002
:101C30007B087A0479047804031D262E0030F30013
:101C40000030F2000030F1000030F0000030740588
:101C5000F80000307505F90080307605FA007F3015
:101C60007705FB007B087A0479047804031D402E75
:101C70000030F7000030F6000030F5000030F400CE
:101C8000F31F662E0030F8000030F9000030FA0033
:101C90008030FB007008F8027108031C710F512E90
:101CA000522EF9027208031C720F572E582EFA0298
:101CB0007308031C730F5D2E5E2EFB027B08F3007E
:101CC0007A08F2007908F1007808F000F71F8C2EEE
:101CD0000030F8000030F9000030FA008030FB00DE
:101CE0007408F8027508031C750F772E782EF90218
:101CF0007608031C760F7D2E7E2EFA027708031CD1
:101D0000770F832E842EFB027B08F7007A08F600FB
:101D10007908F5007808F4008030F3068030F70683
:101D200077087302031D080076087202031D08007D
:101D300075087102031D0800740870020800F8009D
:101D40007808031DF31FB42E7009FA007109FB0017
:101D50007209FC007309FD00FA0A0319FB0A031952
:101D6000FC0A0319FD0ABC2E7308FD007208FC0072
:101D70007108FB007008FA007308720471047004A3
:101D8000031DCB2E0030F3000030F2000030F100D4
:101D90000030F00008009630F900FE307D05031990
:101DA000FA2E0130F4007408F90701300310FD0C1D
:101DB000FC0CFB0CFA0CFF3E031DD62ECD2E013081
:101DC000F4007408F9070130FA07003003180130F5
:101DD000FB07003003180130FC0700300318013006
:101DE000FD0701300310FD0CFC0CFB0CFA0CFF3E50
:101DF000031DF22EFF307D0503190E2FDF2E02305A
:101E00007902031C102F0130F9020130F400031095
:101E1000FA0DFB0DFC0DFD0DF40B072FFC1FFF2E23
:101E200079181A2FFF30FA05FF30FB057F30FC05CB
:101E3000FF30FD050310F90C7908F400F501F601F7
:101E4000F70118300310F40DF50DF60DF70DFF3EF8
:101E5000031D222F7408FA047508FB047608FC049D
:101E60007708FD047808031DF31F372FFD177D0841
:101E7000F3007C08F2007B08F1007A08F00008000B
:101E8000A000780884008313000884000A128A15D1
:101E90000A200A128A15253A031DE92F0130FA009B
:101EA000780884007A088007E201E301031000301B
:101EB00003180130E600FF30E400FF30E500780849
:101EC00084000008A500250884000A128A150A204B
:101ED0000A128A15753A031DE12F7908840000085B
:101EE000FA00023080077A0884000008A100840A02
:101EF0000008A200780884002508013E8000CE2F4B
:101F00002030A6000130A6022608A03E84000A3038
:101F1000F0000030F1002208F3002108F2000A125C
:101F20008A1585240A128A157008303E83138000B2
:101F30000A30F0000030F1002208F3002108F2001E
:101F40000A128A15B7240A128A157108A2007008AD
:101F5000A100210822040319C92F26080319C92F3B
:101F6000822F2608A03E840083130008FA00FB019C
:101F70007A08F0007B08F1002008F2000A128A15A6
:101F8000F3240A128A150130FA007A088312031327
:101F9000A6072030260603190800B12F2508840063
:101FA0000A128A150A200A128A15FA00FB017B0818
:101FB000003A0319DC2FE12F7A08753A0319802FB4
:101FC000E12F0130FA00780884007A088313800733
:101FD000080078088400000884000A128A150A2084
:101FE0000A128A15FA00FB017A08F0007B08F1005A
:101FF0002008F2000A128A15F3240A128A15E12F2A
:02400E00F42F8D
:00000001FF
