:100000000A128A11EE2F00308A000408840A82073F
:10001000003457346F3472346C34643400344834F0
:0A00200065346C346C346F34003426
:10080800073400340234033404340534063407341E
:100818007E088A007F0882000A128A110C240A12B4
:100828008A118000840A04087D0603190034FF0A2F
:100838000319FE0A102C83120313A000F801F80A0A
:1008480020080A128A1199250A128A110330FD001C
:100858009730FC00FC0B2E2CFD0B2E2C332C0800A3
:10086800FD00482C7C0884000A128A1103200A1211
:100878008A11F8007D080A128A11C3260A128A1101
:100888000130FF007F08FC077C0884000A128A11E7
:1008980003200A128A11003A031D532C542C362CBB
:1008A800080083120313A2005F2C8030A3006F2C72
:1008B800C030A3006F2C7C08A000A1012108003AD9
:1008C8000319672C592C2008013A0319592C033AAB
:1008D80003195C2C592C7D08FF3EFF007F08A307F5
:1008E8002308F80022080A128A1199250A128A1187
:1008F800080073080319812C822C952C0130F40010
:10090800720A882C0310F40DFF3E031D862C740810
:10091800FF00700884008317711C83137F0880040C
:10092800A82C0130F400720A9B2C0310F40DFF3E32
:10093800031D992C7408FF3AFF0070088400831780
:10094800711C83137F0880050800F700770884006E
:1009580083130008F000840A00088403F100770874
:10096800033E84000008F200F301F30A0A128A1118
:100978007D240A128A110330F6009730F500F50B32
:10098800C32CF60BC32CC82C7708840083130008EB
:10099800F000840A00088403F1007708033E84000D
:1009A8000008F200F3010A128A117D240A128A1142
:1009B800080083160313870128308400303083121F
:1009C8000313A4000408A5000830A6002408840026
:1009D80083130008A700A40A2508840027088000BC
:1009E800A50AA60BEA2C28300A128A112B250A120E
:1009F8008A1128300A128A111F240A128A11FC014E
:100A0800FC0AFD01FD0A28300A128A1155240A122F
:100A18008A110730FC0028300A128A1134240A127D
:100A28008A110230FC00FD01FD0A28300A128A11E1
:100A380055240A128A110130FC0028300A128A1142
:100A480034240A128A11272D0A128A1100288312C7
:100A58000313A300143083120313A2007930A100FA
:100A6800A10B342DA20B342D0330F800831203138D
:100A780023080A128A1199250A128A11073083124B
:100A88000313A2007C30A100A10B482DA20B482D16
:100A980000000330F8008312031323080A128A1196
:100AA80099250A128A11203083120313A100A10B81
:100AB8005B2D00000330F8008312031323080A1289
:100AC8008A1199250A128A110230F8008312031339
:100AD80023080A128A1199250A128A112830F80067
:100AE8008312031323080A128A1199250A128A11FC
:100AF8000C30F8008312031323080A128A1199256F
:100B08000A128A110630F8008312031323080A1206
:100B18008A1199250A128A118312031323080A12CB
:100B28008A111F240A128A110800FB007B0884001E
:100B380083130008F000840A00088403F1007B088E
:100B4800043E84000008F2007808FA00043003101C
:100B5800FA0CFF3E031DAB2D7A18B32DB52D0130CD
:100B6800B62D0030F3000A128A117D240A128A1168
:100B78007B08840083130008F000840A00088403BB
:100B8800F1007B08053E84000008F2007808FA00AE
:100B980005300310FA0CFF3E031DCD2D7A18D52D14
:100BA800D72D0130D82D0030F3000A128A117D2488
:100BB8000A128A117B08840083130008F000840A53
:100BC80000088403F1007B08063E84000008F20058
:100BD8007808FA0006300310FA0CFF3E031DEF2DCB
:100BE8007A18F72DF92D0130FA2D0030F3000A128A
:100BF8008A117D240A128A117B0884008313000855
:100C0800F000840A00088403F1007B08073E840092
:100C18000008F2007808FA0007300310FA0CFF3ECB
:100C2800031D112E7A18192E1B2E01301C2E003090
:100C3800F3000A128A117D240A128A117B088400A3
:100C480083130008F000840A00088403F1007B087D
:100C5800023E84000008F200F3010A128A117D2482
:100C68000A128A117B080A128A11A9240A128A1107
:100C78007B08840083130008F000840A00088403BA
:100C8800F1007B08043E84000008F20078184D2E1D
:100C98004F2E0130502E0030F3000A128A117D24A5
:100CA8000A128A117B08840083130008F000840A62
:100CB80000088403F1007B08053E84000008F20068
:100CC8007808FA0001300310FA0CFF3E031D672E66
:100CD8007A186F2E712E0130722E0030F3000A122E
:100CE8008A117D240A128A117B0884008313000864
:100CF800F000840A00088403F1007B08063E8400A3
:100D08000008F2007808FA0002300310FA0CFF3EDF
:100D1800031D892E7A18912E932E0130942E0030BF
:100D2800F3000A128A117D240A128A117B088400B2
:100D380083130008F000840A00088403F1007B088C
:100D4800073E84000008F2007808FA000330031018
:100D5800FA0CFF3E031DAB2E7A18B32EB52E0130C8
:100D6800B62E0030F3000A128A117D240A128A1165
:100D78007B080A128A11A9240A128A110800FB00AA
:100D88007B08840083130008F000840A00088403A9
:100D9800F1007B08043E84000008F2007808FA009D
:100DA80004300310FA0CFF3E031DD52E7A18DD2EF1
:100DB800DF2E0130E02E0030F3000A128A117D2464
:100DC8000A128A117B08840083130008F000840A41
:100DD80000088403F1007B08053E84000008F20047
:100DE8007808FA0005300310FA0CFF3E031DF72EB1
:100DF8007A18FF2E012F0130022F0030F3000A125B
:100E08008A117D240A128A117B0884008313000842
:100E1800F000840A00088403F1007B08063E840081
:100E28000008F2007808FA0006300310FA0CFF3EBA
:100E3800031D192F7A18212F232F0130242F00305A
:100E4800F3000A128A117D240A128A117B08840091
:100E580083130008F000840A00088403F1007B086B
:100E6800073E84000008F2007808FA0007300310F3
:100E7800FA0CFF3E031D3B2F7A18432F452F0130F4
:100E8800462F0030F3000A128A117D240A128A11B3
:100E98007B08840083130008F000840A0008840398
:100EA800F1007B08023E84000008F200F301F30A17
:100EB8000A128A117D240A128A117B080A128A11E1
:100EC800A9240A128A117B08840083130008F00001
:100ED800840A00088403F1007B08043E84000008AB
:100EE800F2007818782F7A2F01307B2F0030F3002A
:100EF8000A128A117D240A128A117B08840083133E
:100F08000008F000840A00088403F1007B08053E0D
:100F180084000008F2007808FA0001300310FA0C87
:100F2800FF3E031D922F7A189A2F9C2F01309D2F78
:100F38000030F3000A128A117D240A128A117B08F4
:100F4800840083130008F000840A00088403F10079
:100F58007B08063E84000008F2007808FA00023098
:100F68000310FA0CFF3E031DB42F7A18BC2FBE2FB6
:100F78000130BF2F0030F3000A128A117D240A12B3
:100F88008A117B08840083130008F000840A000893
:100F98008403F1007B08073E84000008F20078080B
:100FA800FA0003300310FA0CFF3E031DD62F7A18FF
:100FB800DE2FE02F0130E12F0030F3000A128A11F2
:100FC8007D240A128A117B080A128A11A9240A129E
:100FD8008A11080083133830FD000430FE00043005
:100FE800FF00303084000A128A1110240A128A1174
:080FF80083010A128A11DD2CAD
:02400E003B3F36
:00000001FF
