:10000000EE2F00308A000408840A82070034483446
:0A00100065346C346C346F34003436
:1009A2000634003400340134043405340634073488
:1009B20083120313A000F801F80A2008F12503307E
:1009C200FD009730FC00FC0BE42CFD0BE42CE92C21
:1009D2000800FD00F62C7C0884000120F8007D0848
:1009E200EF260130FF007F08FC077C08840001200D
:1009F200003A031DFD2CFE2CEC2C0800831203137D
:100A0200A200092D8030A300192DC030A300192D9A
:100A12007C08A000A1012108003A0319112D032D21
:100A22002008013A0319032D033A0319062D032D59
:100A32007D08FF3EFF007F08A3072308F800220875
:100A4200F125080028308400303083120313A400FB
:100A52000408A5000830A6002408840083130008B7
:100A6200A700A40A2508840027088000A50AA60B6F
:100A72002D2D2830A2252830D924FC01FC0AFD01A5
:100A8200FD0A2830FF240130FC002830EA24482DDA
:100A92000028730803194E2D4F2D622D0130F400EA
:100AA200720A552D0310F40DFF3E031D532D7408D9
:100AB200FF00700884008317711C83137F08800471
:100AC200752D0130F400720A682D0310F40DFF3EFB
:100AD200031D662D7408FF3AFF0070088400831717
:100AE200711C83137F0880050800F70077088400D3
:100AF20083130008F000840A00088403F1007708D9
:100B0200033E84000008F200F301F30A4A25033091
:100B1200F6009730F500F50B8C2DF60B8C2D912DF0
:100B22007708840083130008F000840A0008840315
:100B3200F1007708033E84000008F200F3014A2521
:100B4200080083120313A300143083120313A200BC
:100B52007930A100A10BAB2DA20BAB2D000003300D
:100B6200F800831203132308F125073083120313BD
:100B7200A2007C30A100A10BBC2DA20BBC2DC12D6B
:100B82000330F800831203132308F1252030831267
:100B92000313A100A10BCB2DCE2D0330F80083123D
:100BA20003132308F1250230F800831203132308EC
:100BB200F1252830F800831203132308F1250C30A5
:100BC200F800831203132308F1250630F80083127C
:100BD20003132308F125831203132308D9240800E1
:100BE200FB007B08840083130008F000840A0008DD
:100BF2008403F1007B08043E84000008F2007808B8
:100C0200FA0004300310FA0CFF3E031D032E7A187B
:100C12000B2E0D2E01300E2E0030F3004A257B08DC
:100C2200840083130008F000840A00088403F100A2
:100C32007B08053E84000008F2007808FA000530BF
:100C42000310FA0CFF3E031D212E7A18292E2B2E9B
:100C520001302C2E0030F3004A257B0884008313D8
:100C62000008F000840A00088403F1007B08063EB5
:100C720084000008F2007808FA0006300310FA0C2B
:100C8200FF3E031D3F2E7A18472E492E01304A2E71
:100C92000030F3004A257B08840083130008F0002B
:100CA200840A00088403F1007B08073E84000008E0
:100CB200F2007808FA0007300310FA0CFF3E031D19
:100CC2005D2E7A18652E672E0130682E0030F300F3
:100CD2004A257B08840083130008F000840A000878
:100CE2008403F1007B08023E84000008F200F30155
:100CF2004A257B0876257B08840083130008F000D0
:100D0200840A00088403F1007B08043E8400000882
:100D1200F20078188D2E8F2E0130902E0030F300C5
:100D22004A257B08840083130008F000840A000827
:100D32008403F1007B08053E84000008F200780875
:100D4200FA0001300310FA0CFF3E031DA32E7A189D
:100D5200AB2EAD2E0130AE2E0030F3004A257B08BB
:100D6200840083130008F000840A00088403F10061
:100D72007B08063E84000008F2007808FA00023080
:100D82000310FA0CFF3E031DC12E7A18C92ECB2E7A
:100D92000130CC2E0030F3004A257B0884008313F7
:100DA2000008F000840A00088403F1007B08073E73
:100DB20084000008F2007808FA0003300310FA0CED
:100DC200FF3E031DDF2E7A18E72EE92E0130EA2EB0
:100DD2000030F3004A257B0876250800FB007B08DB
:100DE200840083130008F000840A00088403F100E1
:100DF2007B08043E84000008F2007808FA00043000
:100E02000310FA0CFF3E031D012F7A18092F0B2F36
:100E120001300C2F0030F3004A257B088400831335
:100E22000008F000840A00088403F1007B08053EF4
:100E320084000008F2007808FA0005300310FA0C6A
:100E4200FF3E031D1F2F7A18272F292F01302A2F2B
:100E52000030F3004A257B08840083130008F00069
:100E6200840A00088403F1007B08063E840000081F
:100E7200F2007808FA0006300310FA0CFF3E031D58
:100E82003D2F7A18452F472F0130482F0030F300AD
:100E92004A257B08840083130008F000840A0008B6
:100EA2008403F1007B08073E84000008F200780802
:100EB200FA0007300310FA0CFF3E031D5B2F7A186D
:100EC200632F652F0130662F0030F3004A257B081F
:100ED200840083130008F000840A00088403F100F0
:100EE2007B08023E84000008F200F301F30A4A255F
:100EF2007B0876257B08840083130008F000840AAF
:100F020000088403F1007B08043E84000008F2001C
:100F120078188C2F8E2F01308F2F0030F3004A2546
:100F22007B08840083130008F000840A000884030D
:100F3200F1007B08053E84000008F2007808FA0000
:100F420001300310FA0CFF3E031DA22F7A18AA2FBC
:100F5200AC2F0130AD2F0030F3004A257B0884000E
:100F620083130008F000840A00088403F1007B0860
:100F7200063E84000008F2007808FA0002300310EE
:100F8200FA0CFF3E031DC02F7A18C82FCA2F01305A
:100F9200CB2F0030F3004A257B088400831300081E
:100FA200F000840A00088403F1007B08073E8400F5
:100FB2000008F2007808FA0003300310FA0CFF3E32
:100FC200031DDE2F7A18E62FE82F0130E92F0030BB
:100FD200F3004A257B0876250800D124B000D224EC
:100FE200B100D324B200D424B300D524B400D62453
:0E0FF200B500D724B600D824B7008301232D04
:02400E00383F39
:00000001FF
