:10000000EE2F00308A000408840A820700344F343F
:10001000693420344D3475346E3464346F340034B4
:100996000634003400340134043405340634073494
:1009A600FD00F901F90A7D08F125033083120313CE
:1009B600A1009730A000A00BDE2CA10BDE2C0000BE
:1009C600080083120313A100F42C7D088400012083
:1009D600F9002108EF26013083120313A000200836
:1009E600FD077D0884000120003A031DFB2CFC2C2A
:1009F600E82C080083120313A400072D8030A500FD
:100A0600172DC030A500172D2008A200A30123082A
:100A1600003A03190F2D012D2208013A0319012D61
:100A2600033A0319042D012D2108FF3EA2002208D6
:100A3600A5072508F9002408F12508002A308400B6
:100A4600323083120313A6000408A7000830A8005A
:100A56002608840083130008A900A60A2708840034
:100A660029088000A70AA80B2B2D2A30A2252A3098
:100A7600D32483120313A001A00AA101A10A2A30DC
:100A8600FD240130FD002A30E424482D0028730897
:100A960003194E2D4F2D622D0130F400720A552D8B
:100AA6000310F40DFF3E031D532D7408F500700866
:100AB60084008317711C831375088004752D01301B
:100AC600F400720A682D0310F40DFF3E031D662D17
:100AD6007408FF3AF500700884008317711C8313AD
:100AE600750880050800F80078088400831300085C
:100AF600F000840A00088403F1007808033E8400AD
:100B06000008F200F301F30A4A250330F700973094
:100B1600F600F60B8C2DF70B8C2D912D78088400A2
:100B260083130008F000840A00088403F1007808A3
:100B3600033E84000008F200F3014A2508008312F0
:100B46000313A400143083120313A3007930A20008
:100B5600A20BAB2DA30BAB2D00000330F9008312C3
:100B660003132408F125073083120313A3007C30F6
:100B7600A200A20BBC2DA30BBC2DC12D0330F90086
:100B8600831203132408F125203083120313A200D5
:100B9600A20BCB2DCE2D0330F900831203132408AC
:100BA600F1250230F900831203132408F1252830B9
:100BB600F900831203132408F1250C30F90083127F
:100BC60003132408F1250630F900831203132408C1
:100BD600F125831203132408D3240800FC007C08A3
:100BE600840083130008F000840A00088403F100DF
:100BF6007C08043E84000008F2007908FB000430FB
:100C06000310FB0CFF3E031D032E7B180B2E0D2E2F
:100C160001300E2E0030F3004A257C088400831331
:100C26000008F000840A00088403F1007C08053EF1
:100C360084000008F2007908FB0005300310FB0C65
:100C4600FF3E031D212E7B18292E2B2E01302C2E24
:100C56000030F3004A257C08840083130008F00066
:100C6600840A00088403F1007C08063E840000081C
:100C7600F2007908FB0006300310FB0CFF3E031D53
:100C86003F2E7B18472E492E01304A2E0030F300A6
:100C96004A257C08840083130008F000840A0008B3
:100CA6008403F1007C08073E84000008F2007908FE
:100CB600FB0007300310FB0CFF3E031D5D2E7B1867
:100CC600652E672E0130682E0030F3004A257C0819
:100CD600840083130008F000840A00088403F100EE
:100CE6007C08023E84000008F200F3014A257C08D5
:100CF60076257C08840083130008F000840A000827
:100D06008403F1007C08043E84000008F200791890
:100D16008D2E8F2E0130902E0030F3004A257C0850
:100D2600840083130008F000840A00088403F1009D
:100D36007C08053E84000008F2007908FB000130BB
:100D46000310FB0CFF3E031DA32E7B18AB2EAD2E0E
:100D56000130AE2E0030F3004A257C088400831350
:100D66000008F000840A00088403F1007C08063EAF
:100D760084000008F2007908FB0002300310FB0C27
:100D8600FF3E031DC12E7B18C92ECB2E0130CC2E63
:100D96000030F3004A257C08840083130008F00025
:100DA600840A00088403F1007C08073E84000008DA
:100DB600F2007908FB0003300310FB0CFF3E031D15
:100DC600DF2E7B18E72EE92E0130EA2E0030F300E5
:100DD6004A257C0876250800FC007C0884008313DD
:100DE6000008F000840A00088403F1007C08043E31
:100DF60084000008F2007908FB0004300310FB0CA5
:100E0600FF3E031D012F7B18092F0B2F01300C2FDE
:100E16000030F3004A257C08840083130008F000A4
:100E2600840A00088403F1007C08053E840000085B
:100E3600F2007908FB0005300310FB0CFF3E031D92
:100E46001F2F7B18272F292F01302A2F0030F30060
:100E56004A257C08840083130008F000840A0008F1
:100E66008403F1007C08063E84000008F20079083D
:100E7600FB0006300310FB0CFF3E031D3D2F7B18C5
:100E8600452F472F0130482F0030F3004A257C08B4
:100E9600840083130008F000840A00088403F1002C
:100EA6007C08073E84000008F2007908FB00073042
:100EB6000310FB0CFF3E031D5B2F7B18632F652F72
:100EC6000130662F0030F3004A257C088400831326
:100ED6000008F000840A00088403F1007C08023E42
:100EE60084000008F200F301F30A4A257C087625FF
:100EF6007C08840083130008F000840A0008840339
:100F0600F1007C08043E84000008F20079188C2F5A
:100F16008E2F01308F2F0030F3004A257C08840085
:100F260083130008F000840A00088403F1007C089B
:100F3600053E84000008F2007908FB00013003102A
:100F4600FB0CFF3E031DA22F7B18AA2FAC2F0130EE
:100F5600AD2F0030F3004A257C0884008313000877
:100F6600F000840A00088403F1007C08063E840031
:100F76000008F2007908FB0002300310FB0CFF3E6C
:100F8600031DC02F7B18C82FCA2F0130CB2F00306E
:100F9600F3004A257C08840083130008F000840AC5
:100FA60000088403F1007C08073E84000008F20074
:100FB6007908FB0003300310FB0CFF3E031DDE2FF8
:100FC6007B18E62FE82F0130E92F0030F3004A2581
:100FD6007C0876250800CB24B200CC24B300CD24AF
:100FE600B400CE24B500CF24B600D024B700D12457
:0A0FF600B800D224B9008301212DB8
:02400E00383F39
:00000001FF
