:060000000A128A11E72F2D
:10000C000800FD00F901F90A7D080A128A11CD22B7
:10001C000A128A11033083120313A1009730A00037
:10002C00A00B1628A10B162808008312A40014306C
:10003C0083120313A3007930A200A20B2328A30B75
:10004C0023280330F9008312031324080A128A119F
:10005C00CD220A128A11073083120313A3007C30BD
:10006C00A200A20B3728A30B372800000330F9009D
:10007C008312031324080A128A11CD220A128A1140
:10008C00203083120313A200A20B4A280000033075
:10009C00F9008312031324080A128A11CD220A12C2
:1000AC008A110230F9008312031324080A128A11F0
:1000BC00CD220A128A112830F90083120313240866
:1000CC000A128A11CD220A128A110C30F9008312FD
:1000DC00031324080A128A11CD220A128A1106303F
:1000EC00F9008312031324080A128A11CD220A1272
:1000FC008A118312031324080A128A11072008009C
:10010C003608C2003708C3003808C4003908C500D7
:10011C003208C2023308031C330F95289628C302F9
:10012C003408031C340F9B289C28C4023508031C7C
:10013C00350FA128A228C5024508A3004408A20037
:10014C004308A1004208A0002E08C6002F08C700D3
:10015C003008C8003108C9003208C6023308031C35
:10016C00330FB928BA28C7023408031C340FBF2830
:10017C00C028C8023508031C350FC528C628C9027B
:10018C004908F3004808F2004708F1004608F0005F
:10019C003E08CA003F08CB004008CC004108CD0007
:1001AC003A08CA023B08031C3B0FDD28DE28CB02B1
:1001BC003C08031C3C0FE328E428CC023D08031C3C
:1001CC003D0FE928EA28CD024D08F7004C08F6004F
:1001DC004B08F5004A08F4000A128A153B250A124E
:1001EC008A117308A7007208A6007108A500700890
:1001FC00A4000A128A15D92620083A07CE0000302E
:10020C00031801302107D0010318D00A3B07CF0097
:10021C000318D00A22085007D1010318D10A3C0751
:10022C00D0000318D10A230851073D07D10051080B
:10023C00B1005008B0004F08AF004E08AE000800E7
:10024C00F8007808031DF31F3B297009FA007109A7
:10025C00FB007209FC007309FD00FA0A0319FB0A82
:10026C000319FC0A0319FD0A43297308FD007208DF
:10027C00FC007108FB007008FA007308720471042A
:10028C007004031D52290030F3000030F2000030DE
:10029C00F1000030F00008009630F900FE307D05CA
:1002AC00031981290130F4007408F9070130031097
:1002BC00FD0CFC0CFB0CFA0CFF3E031D5D295429B4
:1002CC000130F4007408F9070130FA070030031804
:1002DC000130FB07003003180130FC070030031815
:1002EC000130FD0701300310FD0CFC0CFB0CFA0C6B
:1002FC00FF3E031D7929FF307D05031995296629D9
:10030C0002307902031C97290130F9020130F40004
:10031C000310FA0DFB0DFC0DFD0DF40B8E29FC1FCB
:10032C0086297918A129FF30FA05FF30FB057F30AB
:10033C00FC05FF30FD050310F90C7908F400F501FC
:10034C00F601F70118300310F40DF50DF60DF70D4D
:10035C00FF3E031DA9297408FA047508FB047608EE
:10036C00FC047708FD047808031DF31FBE29FD1754
:10037C007D08F3007C08F2007B08F1007A08F0009D
:10038C0008000A128A1500230A128A110A128A1509
:10039C000C230A128A110A128A15EA220A128A11ED
:1003AC0066308400C430D2000408D3000830D40076
:1003BC005208840083130008D500D20A5308840025
:1003CC0055088000D30AD40BDE29831688016630C9
:1003DC000A128A111B200A128A1166300A128A111B
:1003EC0007200A128A1183120313A001A00AA1018B
:1003FC00A10A66300A128A157F230A128A1101306B
:10040C0083120313A0008030A10066300A128A15F3
:10041C000D240A128A110230A000A101A10A663033
:10042C000A128A157F230A128A11143083120313BD
:10043C00A0008030A10066300A128A150D240A1221
:10044C008A110A128A15F5220A128A11710883126E
:10045C00E1007008E0000A128A15C5230A128A11FD
:10046C007108E3007008E2006308D3006208D20050
:10047C000310D30CD20C5208F0005308F100F20117
:10048C00F30100300A128A1126210A128A1173080C
:10049C00A7007208A6007108A5007008A4004330DC
:1004AC00A300B730A2001B30A1000030A0000A123C
:1004BC008A110E250A128A112308BD002208BC00DD
:1004CC002108BB002008BA000A128A1572260A12EB
:1004DC008A113B08E5003A08E4001A30BE006508B2
:1004EC00C0006408BF0056300A128A152A230A126B
:1004FC008A110230A0000630A10066300A128A155B
:10050C007F230A128A11563083120313A000003085
:10051C00A10066300A128A150D240A128A1160088D
:10052C00AE006108AF00B001B1010030B500003081
:10053C00B4000030B3000030B2000030B90000301D
:10054C00B8000330B700FF30B6000030BD000030FB
:10055C00BC000030BB000030BA000030C1000030DD
:10056C00C0000030BF00FF30BE000A128A11862086
:10057C000A128A112E089500823083120313D300BD
:10058C00DD30D200D20BC82AD30BC82A272AFC0094
:10059C007C08840083130008F000840A000884039C
:1005AC00F1007C08043E84000008F2007908FB008E
:1005BC0004300310FB0CFF3E031DDF2A7B1CE82AD2
:1005CC000130E92A0030F3000A128A1533240A128A
:1005DC008A117C08840083130008F000840A000848
:1005EC008403F1007C08053E84000008F2007908C1
:1005FC00FB0005300310FB0CFF3E031D002B7B1C86
:10060C00092B01300A2B0030F3000A128A1533240F
:10061C000A128A117C08840083130008F000840AF3
:10062C0000088403F1007C08063E84000008F200F8
:10063C007908FB0006300310FB0CFF3E031D212B39
:10064C007B1C2A2B01302B2B0030F3000A128A154D
:10065C0033240A128A117C08840083130008F000EA
:10066C00840A00088403F1007C08073E840000081B
:10067C00F2007908FB0007300310FB0CFF3E031D52
:10068C00422B7B1C4B2B01304C2B0030F3000A12FD
:10069C008A1533240A128A117C08840083130008FB
:1006AC00F000840A00088403F1007C08023E8400F8
:1006BC000008F200F3010A128A1533240A128A1177
:1006CC007C080A128A155D240A128A117C0884009F
:1006DC0083130008F000840A00088403F1007C08EE
:1006EC00043E84000008F200791C7E2B01307F2B25
:1006FC000030F3000A128A1533240A128A117C087E
:10070C00840083130008F000840A00088403F100BD
:10071C007C08053E84000008F2007908FB000130DB
:10072C000310FB0CFF3E031D962B7B1C9F2B0130F3
:10073C00A02B0030F3000A128A1533240A128A11F6
:10074C007C08840083130008F000840A00088403EA
:10075C00F1007C08063E84000008F2007908FB00DA
:10076C0002300310FB0CFF3E031DB72B7B1CC02B70
:10077C000130C12B0030F3000A128A1533240A12FF
:10078C008A117C08840083130008F000840A000896
:10079C008403F1007C08073E84000008F20079080D
:1007AC00FB0003300310FB0CFF3E031DD82B7B1CFE
:1007BC00E12B0130E22B0030F3000A128A153324AE
:1007CC000A128A117C080A128A155D240800FC00A2
:1007DC007C08840083130008F000840A000884035A
:1007EC00F1007C08043E84000008F2007908FB004C
:1007FC0004300310FB0CFF3E031DFF2B7B1C082C4D
:10080C000130092C0030F3000A128A1533240A1225
:10081C008A117C08840083130008F000840A000805
:10082C008403F1007C08053E84000008F20079087E
:10083C00FB0005300310FB0CFF3E031D202C7B1C22
:10084C00292C01302A2C0030F3000A128A1533248B
:10085C000A128A117C08840083130008F000840AB1
:10086C0000088403F1007C08063E84000008F200B6
:10087C007908FB0006300310FB0CFF3E031D412CD6
:10088C007B1C4A2C01304B2C0030F3000A128A15C9
:10089C0033240A128A117C08840083130008F000A8
:1008AC00840A00088403F1007C08073E84000008D9
:1008BC00F2007908FB0007300310FB0CFF3E031D10
:1008CC00622C7B1C6B2C01306C2C0030F3000A1258
:1008DC008A1533240A128A117C08840083130008B9
:1008EC00F000840A00088403F1007C08023E8400B6
:1008FC000008F200F301F30A0A128A1533240A12D3
:10090C008A117C080A128A155D240A128A117C0845
:10091C00840083130008F000840A00088403F100AB
:10092C007C08043E84000008F200791C9F2C0130E6
:10093C00A02C0030F3000A128A1533240A128A11F3
:10094C007C08840083130008F000840A00088403E8
:10095C00F1007C08053E84000008F2007908FB00D9
:10096C0001300310FB0CFF3E031DB72C7B1CC02C6D
:10097C000130C12C0030F3000A128A1533240A12FC
:10098C008A117C08840083130008F000840A000894
:10099C008403F1007C08063E84000008F20079080C
:1009AC00FB0002300310FB0CFF3E031DD82C7B1CFC
:1009BC00E12C0130E22C0030F3000A128A153324AA
:1009CC000A128A117C08840083130008F000840A40
:1009DC0000088403F1007C08073E84000008F20044
:1009EC007908FB0003300310FB0CFF3E031DF92CB0
:1009FC007B1C022D0130032D0030F3000A128A15E6
:100A0C0033240A128A117C080A128A155D24080004
:100A1C0023088039AD002308A8002807B300A21BC7
:100A2C00331433080319272D330A031D252D0030E9
:100A3C00A3000030A2000030A1000030A000A217DB
:100A4C002F2D0030A3000030A2000030A100003098
:100A5C00A00027088039A8002808AD062708A800A0
:100A6C002807AE00A61B2E142E0803194A2D2E0A99
:100A7C00031D482D0030A7000030A6000030A50053
:100A8C000030A400A617522D0030A7000030A6009D
:100A9C000030A5000030A4002E08031D3308031DF0
:100AAC00602D0030A3000030A2000030A100003007
:100ABC00A00008002008F00026080A128A15A223BC
:100ACC000A128A117108B9007008B8003808A80019
:100ADC00A901AA01AB012B08B2002A08B100290810
:100AEC00B0002808AF003908A800A901AA01AB0181
:100AFC002B08B7002A08B6002908B5002808B4004E
:100B0C002108F00025080A128A15A2230A128A115C
:100B1C007108B9007008B8003808A800A901AA012A
:100B2C00AB012808AF07290803110318013E031D68
:100B3C00B0072A0803110318013E031DB1072B0847
:100B4C0003110318013E031DB2073908A800A901BF
:100B5C00AA01AB012808B407290803110318013EA8
:100B6C00031DB5072A0803110318013E031DB60720
:100B7C002B0803110318013E031DB7072208F000D0
:100B8C0024080A128A15A2230A128A117108B900C4
:100B9C007008B8003808A800A901AA01AB01280800
:100BAC00AF07290803110318013E031DB0072A08DB
:100BBC0003110318013E031DB1072B080311031881
:100BCC00013E031DB2073908A800A901AA01AB0117
:100BDC002808B407290803110318013E031DB507A3
:100BEC002A0803110318013E031DB6072B08031135
:100BFC000318013E031DB7070830A8000310AF0D02
:100C0C00B00DB10DB20DA80B042E2108F000240874
:100C1C000A128A15A2230A128A117108B9007008E7
:100C2C00B8003808A8003908A900AA01AB012808A7
:100C3C00AF07290803110318013E031DB0072A084A
:100C4C0003110318013E031DB1072B0803110318F0
:100C5C00013E031DB2072008F00025080A128A1570
:100C6C00A2230A128A117108B9007008B80038085A
:100C7C00A8003908A900AA01AB012808AF07290868
:100C8C0003110318013E031DB0072A0803110318B2
:100C9C00013E031DB1072B0803110318013E031D70
:100CAC00B2070830A8000310AF0DB00DB10DB20D96
:100CBC00A80B592E2008F00024080A128A15A2232A
:100CCC000A128A117108B9007008B8003808A80017
:100CDC003908A900AA01AB012808AF07290803119C
:100CEC000318013E031DB0072A0803110318013E27
:100CFC00031DB1072B0803110318013E031DB20796
:100D0C002108F00026080A128A15A2230A128A1159
:100D1C007108B9007008B8003808A8003908A90093
:100D2C00AA01AB012808B407290803110318013ED6
:100D3C00031DB5072A0803110318013E031DB6074E
:100D4C002B0803110318013E031DB7072208F000FE
:100D5C0025080A128A15A2230A128A117108B900F1
:100D6C007008B8003808A8003908A900AA01AB011E
:100D7C002808B407290803110318013E031DB50701
:100D8C002A0803110318013E031DB6072B08031193
:100D9C000318013E031DB7072208F00026080A12AB
:100DAC008A15A2230A128A117108B9007008B800BA
:100DBC003808A8003908A900AA01AB0108300310B3
:100DCC00A80DA90DAA0DAB0DFF3E031DE52E28089D
:100DDC00B407290803110318013E031DB5072A089F
:100DEC0003110318013E031DB6072B08031103184A
:100DFC00013E031DB7073208A800A901AA01AB01E7
:100E0C002808B407290803110318013E031DB50770
:100E1C002A0803110318013E031DB6072B08031102
:100E2C000318013E031DB7070830A8000310AF0DCF
:100E3C00B00DB10DB20DA80B1C2F33082E07A80056
:100E4C00A901A90D2808823EB80029080318013E03
:100E5C00FF3EB900B61B4D2F0130A8000310B40D96
:100E6C00B50DB60DB70DA80B342FB21B34140130D1
:100E7C00A8000310AF0DB00DB10DB20DA80B3F2F94
:100E8C00FF30B8070318B90AFF30B907302FAE018D
:100E9C00B21F662FFF302F05A800FF303005A900C8
:100EAC00FF303105AA007F303205AB002B082A0435
:100EBC002904280403193418642F662FAE01AE0AD6
:100ECC002E080319982F0130B40700300318013095
:100EDC00B507003003180130B60700300318013095
:100EEC00B707371C982F3408A8003508A900360816
:100EFC00AA003708AB000130AC002B0DAB0CAA0CD0
:100F0C00A90CA80CAC0B832F2B08B7002A08B60031
:100F1C002908B5002808B4000130B8070318B90A2D
:100F2C000030B9073908803AFF0080307F02031D7A
:100F3C00A12FFF303802031CAE2F7F308312031316
:100F4C00B7008030B6000030B5000030B400DA2FA6
:100F5C00831203133908803AFF0080307F02031D8F
:100F6C00B92F013038020318C72F00308312031336
:100F7C00B7000030B6000030B5000030B400AD0151
:100F8C00DA2F831203133808B300FF30B405FF3097
:100F9C00B5057F30B6050030B7053318B6173308E2
:100FAC00A8000310280CB7002D08A8002808B704C7
:100FBC003708A3003608A2003508A1003408A000A9
:100FCC0008008313CC30FD000A30FE00E230FF0035
:100FDC00C43084000A128A151D230A128A11A0300B
:100FEC008400C4300A128A15DA22EE0183010A1237
:100FFC008A11C729FF1B0A2883137F18831700083F
:10100C00840A0319FF0A080008308A000408840ABD
:10101C008207003443344F344F344C34453452340B
:10102C002034523450344D34203443346F347534BE
:10103C006E347434653472340034523450344D345C
:0E104C003A3420340034253434347534003402
:1015B40064008001840A0406031900340406DB2A4B
:1015C4000834003402340334043405340634073454
:1015D4000614031789010313811281110730810452
:1015E400831281010800831203139F149F18F82AA1
:1015F4001E08F10083161E08F00008000730920050
:10160400FF30831692000C3083129700950104304A
:101614009200080083168701013003178800013007
:10162400831203139F00803083169F0008007E08F6
:101634008A007F08820019230A128A158000840A0E
:1016440004087D0603190034FF0A0319FE0A1D2B42
:10165400C3003F30C2004308C400C601C701CD0126
:10166400CE013E08BA004230BB0044300A128A154B
:10167400432346084307C1004108840083138001C3
:101684000800BC003A08BD003D0884000A128A150F
:101694000A200A128A15003A03195B2B3D30B00068
:1016A4003B08B1003C080A128A1566270A128A15FB
:1016B400462BBA01BB010800F401F501701C682B2C
:1016C4007208F4070318F50A7308F50701300310CC
:1016D400F20DF30DFF3E031D692B01300310F10CD5
:1016E400F00CFF3E031D702B70087104031D602B6A
:1016F4007508F1007408F0000800A500862B8030FE
:10170400842BC030A400962B2008A200A301230838
:10171400003A03198E2B812B2208013A0319812BDD
:10172400033A0319832B812B2108FF3EA2002208D0
:10173400A4072408F90025080A128A11CD220800FA
:10174400F800F401F5017008F200F3017208F600E4
:101754007308F700781CB42B7608F4070318F50A0D
:101764007708F50701300310F60DF70DFF3E031D52
:10177400B52B0310F80C7808031DAC2B7508F10089
:101784007408F0000800F201F3010030061801307B
:10179400F40081010B110B19E32B00300618013002
:1017A400F500750874060319E02B7503031DE02B7F
:1017B4000130F2070318F30A0030F3077508F40048
:1017C400CD2B7308F1007208F0000800A300A101FA
:1017D400A20121082307F900790884008313000873
:1017E400A0002008031908002008F900FA0179086C
:1017F400F0007A08F1007808F2000A128A157A25B6
:101804000A128A15013083120313A1070318A20ACE
:101814000030A207EB2BFD002108FF002008840004
:101824000A128A1500200A128A15003A03190800C0
:101834002108FF00200884000A128A1500200A12D9
:101844008A15F9007D080A128A11ED230A128A15F5
:10185400013083120313A0070318A10A0030A10763
:101864000E2C73080319492C0130F400720A3C2C25
:101874000310F40DFF3E031D3A2C7408F5007008A4
:1018840084008317711C83137508800408000130D9
:10189400F400720A4F2C0310F40DFF3E031D4D2C6F
:1018A4007408FF3AF500700884008317711C8313D1
:1018B400750880050800F800780884008313000880
:1018C400F000840A00088403F1007808033E8400D1
:1018D4000008F200F301F30A0A128A1533240A12EB
:1018E4008A150330F7009730F600F60B772CF70BC8
:1018F400772C7C2C7808840083130008F000840A79
:1019040000088403F1007808033E84000008F20014
:10191400F3010A128A1533240800700871040319AC
:10192400BC2CF501F50AF11BA32C01300310F00DBA
:10193400F10DFF3E031D982C0130F4007408F507E7
:10194400952C71087302031DA92C70087202031CE4
:10195400B12C7008F2027108031CF303F302013086
:101964000310F10CF00CFF3E031DB22C0130F50204
:10197400031DA32C7308F1007208F0000800F501A0
:10198400F601700871040319F82CF701F70AF11B2A
:10199400D72C01300310F00DF10DFF3E031DCC2CAC
:1019A4000130F4007408F707C92C01300310F50D59
:1019B400F60DFF3E031DD82C71087302031DE42CA1
:1019C40070087202031CED2C7008F2027108031CEB
:1019D400F303F302751401300310F10CF00CFF3E15
:1019E400031DEE2C0130F702031DD72C7608F100FD
:1019F4007508F0000800A7006E1C082D2708F800E1
:101A04007B080A128A15E8230A128A15FD1F0C2D79
:101A1400FC01FD01A501A6012608803AA4007D0869
:101A2400803A2402031D182D7C0825020318302D4A
:101A34002030F0000030F100831203132708F20075
:101A44000A128A157A250A128A15013083120313A1
:101A5400A5070318A60A0030A6070E2D8312031348
:101A64006E1808002708F8007B080A128A15E82374
:101A740008000030FC000030FB000030FA000030A9
:101A8400F900701C592D7408F9077508031103181F
:101A9400013E031DFA07760803110318013E031DD6
:101AA400FB07770803110318013E031DFC070130EF
:101AB400F8000310F40DF50DF60DF70DF80B5B2D82
:101AC40001300310F30CF20CF10CF00CFF3E031D7B
:101AD400632D7308720471047004031D432D7C0884
:101AE400F3007B08F2007A08F1007908F00008009E
:101AF4007208031D7208031D842D70080A128A11CE
:101B0400062008007208093E840083130008F300CD
:101B1400840A0008F400730874040319AD2D7208D4
:101B2400093E84000008F300840A0008F4007208E7
:101B3400023E84000008F500840A0008F6007608D6
:101B4400803AF7007408803A7702031DAB2D7308BE
:101B54007502031808007208023E8400831300080B
:101B6400F3007208840000087307F400740884000A
:101B7400700880007208023E840001308007840AE5
:101B84000318800A0800FC00FA01FB017C088400A9
:101B9400000884000A128A150A200A128A152A3AB1
:101BA400031D032E0130F8007C08840078088007A8
:101BB400760884000008F800023080077808840062
:101BC4000008FA00840A0008FB00122E7B08F100CA
:101BD4007A08F0000A30F2000030F3000A128A1585
:101BE4005E230A128A1579087007FA000030031878
:101BF40001307107FB000130F8007C08840078088C
:101C040080077C088400000884000A128A150A20D0
:101C14000A128A15D03EF9000A307902031CE82D15
:101C24007B08F7007A08F6000800AC00AD01AD0AA5
:101C3400831621088312AB00831620088312AA009E
:101C44001F30AE000030AF008316C301612E280898
:101C5400290403192D080319662EFF30AE07031853
:101C6400AF0AFF30AF072E08A43E84000A30F0000C
:101C74000030F1002908F3002808F2000A128A153E
:101C84008F240A128A157008303E83138000AD0138
:101C9400FF30AA070318AB0AFF30AB070A30F00085
:101CA4000030F1002908F3002808F2000A128A150E
:101CB400C1240A128A157108A9007008A8008312A9
:101CC4002E082F04031D292E2E08A43EFB002B08EA
:101CD400FD002A08FC002C080A128A15FD240800BD
:101CE40003103C0D3D0DC3004308031D822E00303C
:101CF400BD000030BC000030BB000030BA0008005A
:101D04003A08BE003B08BF003C08C0003D08C100C3
:101D14001F300310C10CC00CBF0CBE0CFF3E031DD2
:101D24008B2E3E08C200BC17FF30BA05FF30BB053E
:101D3400FF30BC050030BD059630C302C31FB72E6B
:101D44004308803A973E031C792E01300310BD0CE2
:101D5400BC0CBB0CBA0CFF3E031DA82E0130BE0008
:101D64003E08C3070319CA2EA72E203043020318C6
:101D7400792E43080319CA2E0130BE000310BA0D90
:101D8400BB0DBC0DBD0DBE0BC02E0130C302BB2E5E
:101D9400420803190800BA09BB09BC09BD09BA0AFB
:101DA4000319BB0A0319BC0A0319BD0A0800A901D7
:101DB400A31FE92EA009A109A209A309A00A0319D6
:101DC400A10A0319A20A0319A30AA901A90AA71FB0
:101DD400FA2EA409A509A609A709A40A0319A50AA4
:101DE4000319A60A0319A70A0130FD007D08A906F4
:101DF4000030AD000030AC000030AB000030AA0071
:101E0400230822042104200403194F2FA801A80A3F
:101E1400A31B1A2F0130FD000310A00DA10DA20D6C
:101E2400A30DFD0B0E2F0130FD007D08A8070A2F1E
:101E34000130FD000310AA0DAB0DAC0DAD0DFD0B73
:101E44001C2F23082702031D312F22082602031DFD
:101E5400312F21082502031D312F20082402031CE1
:101E6400422F2008A4022108031C210FA5022208E6
:101E7400031C220FA6022308031C230FA7022A1403
:101E840001300310A30CA20CA10CA00CFF3E031DF7
:101E9400432F0130A802031D1A2F290803195D2FAF
:101EA400AA09AB09AC09AD09AA0A0319AB0A0319BB
:101EB400AC0A0319AD0A2D08A3002C08A2002B08B4
:101EC400A1002A08A0000800B80030088400831389
:101ED400000884000A128A150A200A128A15253A73
:101EE400031DE92F0130B200300884003208800756
:101EF4008316A001A10103100030031801308312DE
:101F0400EE00FF308316A200FF30A30083123108D5
:101F1400F60030080A128A15C5250A128A157708B0
:101F240083160313A1007608A000A11FA12F83121A
:101F34006E148316A009A109A00A0319A10A831229
:101F4400300884000008B900390884000A128A1590
:101F54000A200A128A15753A031DDF2F31088400FE
:101F64000008B20002308007320884000008B40080
:101F7400840A0008B500300884003908013E800056
:101F8400CC2F3508A9003408A80038080A128A158D
:101F940017260800390884000A128A150A200A1232
:101FA4008A15B200B3013308003A0319DA2FDF2F80
:101FB4003208753A0319C32FDF2F0130831203133C
:101FC400B200300884003208831380070800300808
:101FD4008400000884000A128A150A200A128A154D
:101FE400B200B3013208F0003308F1003808F200FF
:0C1FF4000A128A157A250A128A15DF2FBE
:02400E00F42F8D
:00000001FF
