:100000000A128A11DC2F0800083400340234033449
:1000100004340534063407341834183400340F34EB
:100020000834083408340F34FC00FA01FB017C0862
:1000300084008313000884000A168A110A200A1219
:100040008A112A3A031D2528262856280130F8004F
:100050007C08840078088007760884000008F8008F
:1000600002308007780884000008FA00840A00083B
:10007000FB0067287B08F1007A08F0000A30F200E4
:100080000030F3000A168A11FE230A128A11790839
:100090007007FA000030031801307107FB000130CF
:1000A000F8007C0884007808831380077C088400AB
:1000B000000884000A168A110A200A128A11D03E0A
:1000C000F9000A307902031C662867283A287B0861
:1000D000F7007A08F6000800FC007C08840083130F
:1000E0000008F000840A00088403F1007C08043E44
:1000F00084000008F2007908FB0004300310FB0CB8
:10010000FF3E031D7E287B18862888280130892819
:100110000030F3000A168A11F2240A128A117C08B0
:10012000840083130008F000840A00088403F100AF
:100130007C08053E84000008F2007908FB000530C9
:100140000310FB0CFF3E031DA0287B18A828AA283B
:100150000130AB280030F3000A168A11F2240A128B
:100160008A117C08840083130008F000840A0008C8
:100170008403F1007C08063E84000008F200790840
:10018000FB0006300310FB0CFF3E031DC2287B184A
:10019000CA28CC280130CD280030F3000A168A1175
:1001A000F2240A128A117C08840083130008F000EC
:1001B000840A00088403F1007C08073E84000008DC
:1001C000F2007908FB0007300310FB0CFF3E031D13
:1001D000E4287B18EC28EE280130EF280030F300EB
:1001E0000A168A11F2240A128A117C0884008313E9
:1001F0000008F000840A00088403F1007C08023E35
:1002000084000008F200F301F30A0A168A11F224AE
:100210000A128A117C080A168A111E250A128A11EE
:100220007C08840083130008F000840A000884031B
:10023000F1007C08043E84000008F20079182129AE
:100240002329013024290030F3000A168A11F224F0
:100250000A128A117C08840083130008F000840AC3
:1002600000088403F1007C08053E84000008F200C9
:100270007908FB0001300310FB0CFF3E031D3B29F6
:100280007B1843294529013046290030F3000A161E
:100290008A11F2240A128A117C0884008313000850
:1002A000F000840A00088403F1007C08063E840004
:1002B0000008F2007908FB0002300310FB0CFF3E3F
:1002C000031D5D297B1865296729013068290030E5
:1002D000F3000A168A11F2240A128A117C0884009B
:1002E00083130008F000840A00088403F1007C08EE
:1002F000073E84000008F2007908FB000330031079
:10030000FB0CFF3E031D7F297B18872989290130BB
:100310008A290030F3000A168A11F2240A128A117F
:100320007C080A168A111E250A128A1108008312F7
:1003300003136108803983160313A000831203138B
:100340006108E600660783160313A20083120313F5
:10035000E01FAB29AC29AF2983160313221483169F
:10036000031322080319B529B629C929220A031D36
:10037000BA29BB29C529003083120313E1000030DC
:10038000E0000030DF000030DE008312E017E10102
:10039000D329003083120313E1000030E000003065
:1003A000DF000030DE006508803983160313A100EA
:1003B000210820060319DD29DE29DF2920178312F1
:1003C00003136508E600660783160313A100831272
:1003D0000313E41FEC29ED29F029831603132114DC
:1003E0008316031321080319F629F7290A2A210A7B
:1003F000031DFB29FC29062A003083120313E500A4
:100400000030E4000030E3000030E2008312E41723
:10041000E501142A003083120313E5000030E400E4
:100420000030E3000030E2008316031322082102AB
:1004300003181B2A1C2A682A201F1F2A202A282A60
:10044000803083120313E600660883160313A006A8
:100450002208A3002108A2002308A100831203138D
:100460005E0883160313A300831203136208DE00E1
:1004700083160313230883120313E2005F08831615
:100480000313A300831203136308DF00831603130F
:10049000230883120313E300600883160313A300E9
:1004A000831203136408E0008316031323088312E6
:1004B0000313E400610883160313A30083120313DC
:1004C0006508E10083160313230883120313E50074
:1004D00083160313A301210883120313E600E70127
:1004E0006708E900831603132208831203136602C8
:1004F000E800031CE9036908803AFF0080307F02AE
:10050000031D842A1A306802031C872A882AD02AED
:1005100083120313610860045F045E04031D912AC3
:10052000932A0130942A003083160313A30000306D
:1005300083120313E1000030E0000030DF000030E0
:10054000DE00831603132108A200D82A231CA92A3F
:10055000AA2AB52A230883120313E6000310660CA7
:10056000013883160313A300B72A0310A30C8312C8
:1005700003135E1CBC2ABD2AC02A83160313A317CB
:1005800001308312E600610DE10CE00CDF0CDE0CA3
:10059000E60BC32A0130E600660883160313A207A0
:1005A0008316031321082202031CD72AD82AA62A5D
:1005B000201BDB2ADC2A362B2208031DE02AE12A35
:1005C000EC2A003083120313E1000030E000003019
:1005D000DF000030DE00962C831203136208DE0772
:1005E000630803110318013E0319F72ADF076408A3
:1005F00003110318013E0319FE2AE00765080311E1
:100600000318013E0319052BE107611C082B092B78
:10061000FC2B83160313231C0E2B0F2B1A2B2308E2
:1006200083120313E6000310660C013883160313CC
:10063000A3001C2B0310A30C831203135E1C212B9D
:10064000222B252B83160313A31701308312E600F8
:10065000610DE10CE00CDF0CDE0CE60B282B013009
:10066000E600660883160313A207FC2B831203130C
:100670006108803AFF006508803A7F02031D4A2B1B
:1006800064086002031D4A2B63085F02031D4A2BA6
:1006900062085E0203184D2B4E2BAA2BFF30E6009A
:1006A000FF30E700FF30E800FF30E9006208EA00B1
:1006B0006308EB006408EC006508ED005E08EA02E0
:1006C0005F08031C5F0F652B662BEB026008031CA1
:1006D000600F6B2B6C2BEC026108031C610F712BFC
:1006E000722BED026A08E6076B0803186B0F792B73
:1006F0007A2BE7076C0803186C0F7F2B802BE80719
:100700006D0803186D0AE9076908E1006808E00050
:100710006708DF006608DE008030E60066088316A2
:100720000313A006A309A30A2308031D982B992BE2
:10073000B82B013083120313DE0700300318013099
:10074000DF07003003180130E007003003180130E4
:10075000E107B82B6208DE026308031C630FDF02A7
:100760006408031C640FE0026508031C650FE102C6
:100770008312610860045F045E04031DC02BC12B5B
:10078000F72B831603132308031DC72BC82BF72B46
:10079000003083120313E1000030E0000030DF007E
:1007A0000030DE00962C0130E6000310DE0DDF0D78
:1007B000E00DE10DE60BD52B83160313A31FE12BF0
:1007C000E22BE52B831203135E1483160313231C01
:1007D000EA2BEB2BEE2B0314A30DF02B0310A30D30
:1007E00022080319F42BF52BF72B0130A2028312F8
:1007F000E01FFB2BFC2BD32B83160313A101A31F9C
:10080000022C032C152C23087F390319082C092CE2
:100810000E2C83160313A101A10A152C83120313B6
:100820005E1C132C142C152C092C83160313210881
:1008300003191B2C1C2C582C013083120313DE07C8
:10084000003003180130DF07003003180130E007E3
:10085000003003180130E107611C2F2C302C582C7C
:100860005E08E6005F08E7006008E8006108E9004C
:100870000130EA00690DE90CE80CE70CE60CEA0B24
:100880003A2C6908E1006808E0006708DF006608A4
:10089000DE0083160313220A03194F2C502C582C08
:1008A000013083120313E600660883160313A207C0
:1008B00083160313220A03195E2C5F2C642C220872
:1008C000031D632C642C762C003083120313E1008B
:1008D0000030E0000030DF000030DE00831603133C
:1008E0002208031D742C752C762CA001221C792C57
:1008F0007A2C7E2C83120313E017842C7F30831212
:100900000313E6006608E00583160313220883122A
:100910000313E6000310660CE10083160313A01F07
:10092000922C932C962C83120313E1170800831248
:1009300003133D088039C7003D08C2004207CD00BF
:10094000BC1FA32CA42CA52C4D144D080319A92CB5
:10095000AA2CB92C4D0A031DAE2CAF2CB72C00309D
:10096000BD000030BC000030BB000030BA00BC1736
:10097000C12C0030BD000030BC000030BB00003096
:10098000BA0041088039C2004208C7064108C200C7
:100990004207CC00C01FCD2CCE2CCF2C4C144C08C1
:1009A0000319D32CD42CE32C4C0A031DD82CD92C9E
:1009B000E12C0030C1000030C0000030BF0000302A
:1009C000BE00C017EB2C0030C1000030C00000306A
:1009D000BF000030BE004C080319EF2CF02CF52CA2
:1009E0004D08031DF42CF52CFE2C0030BD0000300A
:1009F000BC000030BB000030BA00DB2F3A08F0002A
:100A000040080A168A1123240A128A1171088312D7
:100A10000313D3007008D2005208C200C301C401FE
:100A2000C5014508CB004408CA004308C900420874
:100A3000C8005308C200C301C401C5014508D10064
:100A40004408D0004308CF004208CE003B08F00025
:100A50003F080A168A1123240A128A117108831288
:100A60000313D3007008D2005208C200C301C401AE
:100A7000C5014208C807430803110318013E0319C2
:100A8000422DC907440803110318013E0319492DDB
:100A9000CA07450803110318013E0319502DCB075F
:100AA0005308C200C301C401C5014208CE07430870
:100AB00003110318013E03195E2DCF0744080311EB
:100AC0000318013E0319652DD007450803110318CB
:100AD000013E03196C2DD1073C08F0003E080A16B0
:100AE0008A1123240A128A11710883120313D30076
:100AF0007008D2005208C200C301C401C5014208F7
:100B0000C807430803110318013E0319882DC907BC
:100B1000440803110318013E03198F2DCA07450825
:100B200003110318013E0319962DCB075308C20089
:100B3000C301C401C5014208CE07430803110318CD
:100B4000013E0319A42DCF07440803110318013EE9
:100B50000319AB2DD007450803110318013E0319F3
:100B6000B22DD1070830C2000310C80DC90DCA0D3F
:100B7000CB0DC20BB42D3B08F0003E080A168A11BB
:100B800023240A128A11710883120313D3007008F8
:100B9000D2005208C2005308C300C401C501420874
:100BA000C807430803110318013E0319D82DC907CC
:100BB000440803110318013E0319DF2DCA07450835
:100BC00003110318013E0319E62DCB073A08F00084
:100BD0003F080A168A1123240A128A117108831207
:100BE0000313D3007008D2005208C2005308C30098
:100BF000C401C5014208C807430803110318013E98
:100C00000319032EC907440803110318013E0319F1
:100C10000A2ECA07450803110318013E0319112EB5
:100C2000CB070830C2000310C80DC90DCA0DCB0D8B
:100C3000C20B132E3A08F0003E080A168A1123242C
:100C40000A128A11710883120313D3007008D200AC
:100C50005208C2005308C300C401C5014208C807B6
:100C6000430803110318013E0319372EC90744082E
:100C700003110318013E03193E2ECA07450803114C
:100C80000318013E0319452ECB073B08F00040082E
:100C90000A168A1123240A128A1171088312031377
:100CA000D3007008D2005208C2005308C300C40128
:100CB000C5014208CE07430803110318013E03197A
:100CC000622ECF07440803110318013E0319692E51
:100CD000D007450803110318013E0319702ED107F0
:100CE0003C08F0003F080A168A1123240A128A11D0
:100CF000710883120313D3007008D2005208C20097
:100D00005308C300C401C5014208CE0743080311BC
:100D10000318013E03198D2ECF0744080311031851
:100D2000013E0319942ED007450803110318013E14
:100D300003199B2ED1073C08F00040080A168A11BF
:100D400023240A128A11710883120313D300700836
:100D5000D2005208C2005308C300C401C5010830C4
:100D60000310C20DC30DC40DC50DFF3E031DB02EF3
:100D70004208CE07430803110318013E0319C12E90
:100D8000CF07440803110318013E0319C82ED007EA
:100D9000450803110318013E0319CF2ED107480857
:100DA000C2004908C3004A08C4004B08C5001830F7
:100DB0000310C50CC40CC30CC20CFF3E031DD82E7F
:100DC0004208CE07430803110318013E0319E92E18
:100DD000CF07440803110318013E0319F02ED00772
:100DE000450803110318013E0319F72ED1070830F7
:100DF000C2000310C80DC90DCA0DCB0DC20BF92ED0
:100E00004D084C07C200C301C30D4208823ED20008
:100E100043080318013EFF3ED3002B2F0130C200D0
:100E20000310CE0DCF0DD00DD10DC20B102FCB1F47
:100E30001A2F1B2F1C2F4E140130C2000310C80D97
:100E4000C90DCA0DCB0DC20B1E2FFF30D2070318E0
:100E5000D30AFF30D307D01F2E2F2F2F0E2FCC01F8
:100E6000CB1F332F342F502FFF304805C200FF30E7
:100E70004905C300FF304A05C4007F304B05C5005B
:100E800045084404430442040319472F482F4B2FBD
:100E9000CC01CC0A502F4E1C4E2F4F2F502F482FD5
:100EA0004C080319542F552F862F0130CE070030E0
:100EB00003180130CF07003003180130D00700308D
:100EC00003180130D107511C662F672F862F4E085B
:100ED000C2004F08C3005008C4005108C5000130CB
:100EE000C600450DC50CC40CC30CC20CC60B712F3B
:100EF0004508D1004408D0004308CF004208CE0086
:100F00000130D2070318D30A0030D3075308803AC0
:100F1000FF0080307F02031D8F2FFF305202031C21
:100F2000922F932F9E2F7F3083120313D100803096
:100F3000D0000030CF000030CE00CF2F831203133B
:100F40005308803AFF0080307F02031DA92F013033
:100F500052020318AC2FAD2FB92F003083120313A8
:100F6000D1000030D0000030CF000030CE00C701EB
:100F7000CF2F831203135208CD00FF30CE05FF3070
:100F8000CF057F30D0050030D1054D1CC82FC92FAB
:100F9000CA2FD0174D08C2000310420CD1004708D9
:100FA000C2004208D1045108BD005008BC004F08DF
:100FB000BB004E08BA0008008313D930FD00003092
:100FC000FE000430FF00C93084000A168A1186230F
:100FD0000A128A11831790308400B0300A168A11E1
:100FE00043230A128A1183160313D901DA01DB01A4
:100FF000DC0183120313EF0183010A128A15752D98
:1010020083120313AC00AD01AD0A831603135A0811
:1010120083120313AB0083160313590883120313BD
:10102200AA001F30AE000030AF0083160317AF01D5
:101032005028FF30AE070318AF0AFF30AF072E0863
:10104200903E84000A30F0000030F1002908F300DD
:101052002808F2000A168A118B250A128A157008CE
:10106200303E8317800083120313AD01FF30AA07BD
:101072000318AB0AFF30AB070A30F0000030F10072
:101082002908F3002808F2000A168A11C5250A1257
:101092008A15710883120313A9007008A80083122D
:1010A20003132E082F0403195728582863282808E9
:1010B2002904031D5D285E281A282D08031D6228B5
:1010C20063281A282E08903EFB002B08FD002A08F0
:1010D200FC002C080A168A1109260A128A15080031
:1010E20000307005F80000307105F900803072059B
:1010F200FA007F307305FB007B087A0479047804D8
:10110200031D842885288D280030F3000030F2006A
:101112000030F1000030F00000307405F8000030BB
:101122007505F90080307605FA007F307705FB00FF
:101132007B087A0479047804031DA028A128A92831
:101142000030F7000030F6000030F5000030F40007
:10115200F31FAC28AD28D1280030F8000030F90088
:101162000030FA008030FB007008F8027108031C9E
:10117200710FBC28BD28F9027208031C720FC22825
:10118200C328FA027308031C730FC828C928FB027C
:101192007B08F3007A08F2007908F1007808F00081
:1011A200F71FD428D528F9280030F8000030F900BC
:1011B2000030FA008030FB007408F8027508031C46
:1011C200750FE428E528F9027608031C760FEA2851
:1011D200EB28FA027708031C770FF028F128FB02AC
:1011E2007B08F7007A08F6007908F5007808F40021
:1011F2008030F3068030F70677087302031D0B294F
:1012020076087202031D0B2975087102031D0B2952
:101212007408700203180E290F29112903101229CC
:101222000314080083120313B800300884008313E8
:10123200000884000A168A110A200A128A15253A21
:10124200031D24292529A8290130B2003008840071
:101252003208800783160313D901DA010310003024
:101262000318013083120313EF00FF3083160313B8
:10127200DB00FF30DC00831203133108F600300874
:101282000A128A1114200A128A1577088316031388
:10129200DA007608D900DA1F4F2950295A29831219
:1012A20003136F1483160313D909DA09D90A031930
:1012B200DA0A831203133008840083130008B9008A
:1012C200390884000A168A110A200A128A15753A08
:1012D200031D6C296D299E29310884000008B20083
:1012E20002308007320884000008B400840A000833
:1012F200B500300884003908013E80008B2935088A
:10130200A9003408A80038080A128A1501200A1216
:101312008A15BF29390884000A168A110A200A127E
:101322008A15B200B3013308003A031999299E299C
:101332003208753A031980299E290130831203135A
:10134200B20030088400320883138007BF293008B6
:101352008400000884000A168A110A200A128A15DB
:10136200B200B3013208F0003308F1003808F2008D
:101372000A168A1155260A128A159E290800F800B3
:1013820078080319C529C629DA29F31FC929CA29E8
:10139200DA297009FA007109FB007209FC0073096D
:1013A200FD00FA0A0319FB0A0319FC0A0319FD0AD4
:1013B200E2297308FD007208FC007108FB00700846
:1013C200FA007308720471047004031DE929EA2902
:1013D200F3290030F3000030F2000030F100003059
:1013E200F000772A9630F900032A0130F4007408DD
:1013F200F90701300310FD0CFC0CFB0CFA0CFF3E4C
:10140200031DFB29FE307D05031D082A092AF62942
:10141200252A0130F4007408F9070130FA07003078
:1014220003180130FB07003003180130FC070030BD
:1014320003180130FD0701300310FD0CFC0CFB0CFE
:10144200FA0CFF3E031D1D2AFF307D05031D2A2ACB
:101452002B2A0A2A372A0130F9020130F40003103C
:10146200FA0DFB0DFC0DFD0DF40B302AFC1B3A2A84
:101472003B2A412A023079020318402A412A2C2AA7
:101482007918442A452A4D2AFF30FA05FF30FB0518
:101492007F30FC05FF30FD050310F90C7908F400DC
:1014A200F501F601F70118300310F40DF50DF60DF4
:1014B200F70DFF3E031D552A7408FA047508FB0454
:1014C2007608FC047708FD0478080319692A6A2A59
:1014D2006F2AF31F6D2A6E2A6F2AFD177D08F3000B
:1014E2007C08F2007B08F1007A08F0000800FC009A
:1014F2007C08840083130008F000840A0008840337
:10150200F1007C08043E84000008F2007908FB0028
:1015120004300310FB0CFF3E031D8A2A7B18922A1B
:10152200942A0130952A0030F3000A168A11F22417
:101532000A128A157C08840083130008F000840ACA
:1015420000088403F1007C08053E84000008F200D4
:101552007908FB0005300310FB0CFF3E031DAC2A8B
:101562007B18B42AB62A0130B72A0030F3000A16D3
:101572008A11F2240A128A157C0884008313000857
:10158200F000840A00088403F1007C08063E84000F
:101592000008F2007908FB0006300310FB0CFF3E46
:1015A200031DCE2A7B18D62AD82A0130D92A003028
:1015B200F3000A168A11F2240A128A157C088400A2
:1015C20083130008F000840A00088403F1007C08F9
:1015D200073E84000008F2007908FB000730031080
:1015E200FB0CFF3E031DF02A7B18F82AFA2A013071
:1015F200FB2A0030F3000A168A11F2240A128A1515
:101602007C08840083130008F000840A0008840325
:10161200F1007C08023E84000008F200F3010A1681
:101622008A11F2240A128A157C080A168A111E25CA
:101632000A128A157C08840083130008F000840AC9
:1016420000088403F1007C08043E84000008F200D4
:1016520079182C2B2E2B01302F2B0030F3000A1679
:101662008A11F2240A128A157C0884008313000866
:10167200F000840A00088403F1007C08053E84001F
:101682000008F2007908FB0001300310FB0CFF3E5A
:10169200031D462B7B184E2B502B0130512B003053
:1016A200F3000A168A11F2240A128A157C088400B1
:1016B20083130008F000840A00088403F1007C0808
:1016C200063E84000008F2007908FB000230031095
:1016D200FB0CFF3E031D682B7B18702B722B013015
:1016E200732B0030F3000A168A11F2240A128A15AB
:1016F2007C08840083130008F000840A0008840335
:10170200F1007C08073E84000008F2007908FB0023
:1017120003300310FB0CFF3E031D8A2B7B18922B18
:10172200942B0130952B0030F3000A168A11F22413
:101732000A128A157C080A168A111E250A128A15AF
:1017420008008312031327088039B1002708A80074
:101752002807B800A61FAE2BAF2BB02B38143808C1
:101762000319B42BB52BC52B380A031DB92BBA2B81
:10177200C22B0030A7000030A6000030A5000030C8
:10178200A400A617A701CD2B0030A7000030A600A9
:101792000030A5000030A40023088039A8002808E2
:1017A200B1062308A8002807B900A21FD92BDA2BFB
:1017B200DB2B391439080319DF2BE02BF02B390A04
:1017C200031DE42BE52BED2B0030A3000030A2001B
:1017D2000030A1000030A000A217A301F82B0030B6
:1017E200A3000030A2000030A1000030A0002308B6
:1017F200220421042004031DFF2B002C192C00308D
:10180200A7000030A6000030A5000030A400803000
:10181200A6047F30A7043108A8002808A7042708D7
:10182200A3002608A2002508A1002408A000742D08
:101832003808031D1D2C1E2C272C0030A30000305D
:10184200A2000030A1000030A000742D3808A800CA
:10185200A9012908AB0039082802AA00031CAB031E
:101862002A087F3EB2002B080318013E003EB30057
:101872002708B0002608AF002508AE002408AD00F6
:101882000030A7000030A6000030A5000030A40000
:101892000030B7000030B6000030B5000030B400B0
:1018A200B9019D2C39080319572C582C782C01307A
:1018B200A8000310AD0DAE0DAF0DB00DA80B5A2C44
:1018C2000130A8000310A40DA50DA60DA70DA80BAD
:1018D200632CB71F6D2C6E2C6F2C24140130A800C2
:1018E2000310B40DB50DB60DB70DA80B712C23085E
:1018F2003002031D862C22082F02031D862C21088C
:101902002E02031D862C20082D02031C892C8A2CF2
:10191200992C37172008AD022108031C210FAE02B3
:101922002208031C220FAF022308031C230FB0025C
:101932000130A8002808B9071A303902031CA22C6A
:10194200A32C532C30082F042E042D040319AA2C87
:10195200AB2CCA2C3414CA2C0130A8000310A40DDD
:10196200A50DA60DA70DA80BAF2CB71FB92CBA2C2D
:10197200BB2C24140130A8000310B40DB50DB60D14
:10198200B70DA80BBD2CFF30B2070318B30AFF3006
:10199200B307A61FCD2CCE2CAD2CB901B71FD22C6C
:1019A200D32CEF2CFF303405A800FF303505A900F9
:1019B200FF303605AA007F303705AB002B082A041A
:1019C200290428040319E62CE72CEA2CB901B90AE8
:1019D200EF2C241CED2CEE2CEF2CE72C39080319EC
:1019E200F32CF42C252D0130A4070030031801300C
:1019F200A507003003180130A60700300318013094
:101A0200A707271C052D062D252D2408A80025082B
:101A1200A9002608AA002708AB000130AC002B0D54
:101A2200AB0CAA0CA90CA80CAC0B102D2B08A70010
:101A32002A08A6002908A5002808A4000130B20738
:101A42000318B30A0030B3073308803AFF0080302E
:101A52007F02031D2E2DFF303202031C312D322D49
:101A6200402DFF3083120313B2000030B300003068
:101A7200A7000030A6000030A5000030A4008312A9
:101A820003133308803AFF0080307F02031D4B2D81
:101A92000130320203184E2D4F2D5C2D8312031399
:101AA200B201B3010030A7000030A6000030A5004B
:101AB2000030A400B101831203133208B800381CAD
:101AC200632D642D662DA6176A2D7F30A800280885
:101AD200A6053808A8000310280CA7003108A800A2
:101AE2002808A704102C08000A168A11A9230A1232
:101AF2008A150A168A1157230A128A150A168A119A
:101B020072230A128A15C1308400C9308316031366
:101B1200A4000408A5000830A6002408840083134A
:101B22000008A700A40A2508840027088000A50A47
:101B3200A60B8E2D8801C1300A168A11AB260A1215
:101B42008A15C1300A168A1195230A128A15831240
:101B52000313A001D130A100C1300A168A11522507
:101B62000A128A1583120313A001A00AA101A10A75
:101B7200C1300A168A114A240A128A1501308312C8
:101B82000313A0008030A100C1300A168A119C24E0
:101B92000A128A15023083120313A000A101A10ABE
:101BA200C1300A168A114A240A128A150230831297
:101BB2000313A0000630A100C1300A168A114A247C
:101BC2000A128A150F3083120313A0008030A1007D
:101BD200C1300A168A119C240A128A150030831613
:101BE2000313BB000030BA000030B9000030B80067
:101BF2000A168A11C7240A128A157108831603135A
:101C0200B5007008B4003508A5003408A40003101C
:101C1200A50CA40C2408F0002508F100F201F30140
:101C220000300A128A15C0210A128A15730883121B
:101C32000313C1007208C0007108BF007008BE0023
:101C42004330BD00B730BC001B30BB000030BA00CF
:101C52000A128A1197240A128A15831203133D0865
:101C6200D7003C08D6003B08D5003A08D4000A1633
:101C72008A1188270A128A158312031355088316BC
:101C82000313B70083120313540883160313B60019
:101C9200183083120313DE008316031337088312EE
:101CA2000313E00083160313360883120313DF00C5
:101CB200AE300A168A11BE230A128A150230831226
:101CC2000313A0000A30A100C1300A168A114A2467
:101CD2000A128A15AE3083120313A0000030A1004D
:101CE200C1300A168A119C240A128A15831603131C
:101CF200BC010A168A1119270A128A1583120313C4
:101D02005708E1005608E0005508DF005408DE00DD
:101D1200831603133B0883120313E5008316031390
:101D22003A0883120313E40083160313390883125B
:101D32000313E30083160313380883120313E2002C
:101D42000A128A1197210A128A1583120313610853
:101D520083160313BB008312031360088316031355
:101D6200BA00831203135F0883160313B9008312A8
:101D720003135E0883160313B8008230831603131D
:101D8200A500DD30A400A40BC42EA50BC42E013087
:101D920083160313A4002408BC070A303C02031C68
:101DA200D32ED42E7A2E413083120313A300203077
:101DB200A2000030A1000030A000831603133B08EC
:101DC20083120313A700831603133A088312031323
:101DD200A60083160313390883120313A500831682
:101DE2000313380883120313A4000A128A15A223CC
:101DF2000A128A1583120313230883160313C000E1
:101E020083120313220883160313BF0083120313E2
:101E1200210883160313BE008312031320088316BE
:101E22000313BD00143083120313DE008316031361
:101E3200400883120313D700831603133F0883124B
:101E42000313D600831603133E0883120313D5002F
:101E5200831603133D0883120313D4000A168A1152
:101E620088270A128A15831203135508E0005408C2
:101E7200DF00A8300A168A11BE230A128A15023020
:101E820083120313A000A101A10AC1300A168A110C
:101E92004A240A128A15A83083120313A0000030C4
:101EA200A100C1300A168A119C240A128A15023036
:101EB20083120313A0000330A100C1300A168A1155
:101EC2004A240A128A15FD01C1300A168A114B23CF
:101ED2000A128A154230F3001430F2000030F10089
:101EE2000030F000831603134008F7003F08F600A5
:101EF2003E08F5003D08F4000A128A1571200A1204
:101F02008A150318852F862F8B2FC830831203134F
:101F12009500EE2F4130F300F030F2000030F10076
:101F22000030F000831603134008F7003F08F60064
:101F32003E08F5003D08F4000A128A1571200A12C3
:101F42008A150318A52FA62FAB2F32308312031345
:101F52009500EE2F4130F300D030F2000030F10056
:101F62000030F000831603134008F7003F08F60024
:101F72003E08F5003D08F4000A128A1571200A1283
:101F82008A150318C52FC62FCB2F1E3083120313B9
:101F92009500EE2F4130F300B830F2000030F1002E
:101FA2000030F000831603134008F7003F08F600E4
:101FB2003E08F5003D08F4000A128A1571200A1243
:101FC2008A150318E52FE62FEB2F0F308312031328
:101FD2009500EE2F8312031395010B308316031322
:101FE200A6002630A5005D30A400A40BF62FA50B99
:101FF200F62FA60BF62FEF2D0A128A110028FF1BCF
:102002000A2883137F1883170008840A0319FF0A1A
:10201200080010308A000408840A8207003443341E
:102022006F346F346C346534723420342634203487
:102032004C344D34333435340034523450344D340E
:102042003A3400342534323475340034253434348F
:0420520075340034AD
:1026860064008001840A0406031900340406442BFE
:1026960083120313A0007D08F90020080A128A118C
:1026A6006C200A168A110800013083160317880069
:1026B6000130831203139F008030831603139F009B
:1026C6000800831203139F149F186A2B6B2B672B2A
:1026D6001E08F100831603131E08F0000800831677
:1026E6000313061483160317890183160313811235
:1026F60081110730810483120313810108007E08CB
:102706008A007F0882000A168A1182230A168A1115
:102716008000840A04087D0603190034FF0A0319A1
:10272600FE0A862BFD00F901F90A7D080A128A15B0
:1027360078220A168A11033083120313A1009730F8
:10274600A000A00BA42BA10BA42B080060308316BD
:1027560003138F0087010730831203139200FF30A3
:102766008316031392000C3083120313970095010E
:1027760004309200080083120313E3005F30E20086
:102786006308E400E601E701ED01EE015E08BA0028
:102796006230BB0064300A168A11DD230A168A11DC
:1027A6008312031366086307E1006108840083133C
:1027B6008001080083120313BC003A08BD00ED2B0C
:1027C6003D30B0003B08B1003C080A128A151321BF
:1027D6000A168A11831203133D0884000A168A1109
:1027E6000A200A168A11003A031DFA2BFB2BE32B4B
:1027F600BA01BB010800F401F501701C032C042C7E
:102806000A2C7208F4070318F50A7308F507013055
:102816000310F20DF30DFF3E031D0B2C01300310C8
:10282600F10CF00CFF3E031D122C70087104031D01
:102836001D2C1E2C002C7508F1007408F0000800F1
:10284600F800F401F5017008F200F3017208F600D1
:102856007308F700781C302C312C372C7608F407D7
:102866000318F50A7708F50701300310F60DF70D82
:10287600FF3E031D382C0310F80C7808031D442C6A
:10288600452C2D2C7508F1007408F0000800831201
:102896000313A500542C8030A400642CC030A4007F
:1028A600642C2008A200A3012308003A03195C2C1B
:1028B6004E2C2208013A03194E2C033A0319512CC7
:1028C6004E2C2108FF3EA2002208A4072408F90086
:1028D60025080A128A1578220A168A110800831218
:1028E6000313A300A101A2018E2C2008F900FA010E
:1028F6007908F0007A08F1007808F2000A168A11C1
:1029060055260A168A11013083120313A1070318EC
:10291600A20A0030A20721082307F90079088400DB
:1029260083170008A0002008031D9A2C9B2C782CE6
:102936000800FD00B62C2108FF00200884000A16B6
:102946008A1100200A168A11F9007D080A128A11D6
:102956006C200A168A11013083120313A00703188C
:10296600A10A0030A107831203132108FF002008E3
:1029760084000A168A1100200A168A11003A031DDD
:10298600C52CC62C9E2C0800F201F30100308312E0
:10299600031306180130F40081010B11E92C0030F5
:1029A60006180130F500750874060319DB2CDC2CBB
:1029B600E72C7503031DE02CE12CE72C0130F20710
:1029C6000318F30A0030F3077508F4000B1DEC2C0E
:1029D600ED2CD22C7308F1007208F0000800730881
:1029E6000319F62CF72C0A2D0130F400720AFD2C7F
:1029F6000310F40DFF3E031DFB2C7408F500700850
:102A060084008317711C8313750880041D2D013003
:102A1600F400720A102D0310F40DFF3E031D0E2D57
:102A26007408FF3AF500700884008317711C83133D
:102A3600750880050800F8007808840083130008EC
:102A4600F000840A00088403F1007808033E84003D
:102A56000008F200F301F30A0A168A11F2240A1694
:102A66008A110330F7009730F600F60B382DF70B76
:102A7600382D3D2D7808840083130008F000840A61
:102A860000088403F1007808033E84000008F20081
:102A9600F3010A168A11F2240A168A110800831213
:102AA6000313A2000830200203185A2D5B2D8A2D2D
:102AB6002008FD0002300310FD0DFF3E031D5E2DB4
:102AC60003107D0D403EF90022080A128A1578226D
:102AD6000A168A1183120313A30123082107FD0096
:102AE6007D08840083130008F90022080A128A115F
:102AF6006C200A168A110130FD007D08831203132B
:102B0600A30708302302031C892D8A2D702D080087
:102B1600700871040319902D912DC02DF501F50A49
:102B26009F2D01300310F00DF10DFF3E031D952D75
:102B36000130F4007408F507F11FA22DA32D942D82
:102B460071087302031DA92D70087202031CAC2DB7
:102B5600AD2DB32D7008F2027108031CF303F302C6
:102B660001300310F10CF00CFF3E031DB42D0130B3
:102B7600F502031DBF2DC02DA32D7308F1007208A9
:102B8600F0000800F501F601700871040319CC2D58
:102B9600CD2D042EF701F70ADB2D01300310F00DC1
:102BA600F10DFF3E031DD12D0130F4007408F70727
:102BB600F11FDE2DDF2DD02D01300310F50DF60DA2
:102BC600FF3E031DE02D71087302031DEC2D7008F6
:102BD6007202031CEF2DF02DF72D7008F20271081A
:102BE600031CF303F302751401300310F10CF00C0F
:102BF600FF3E031DF82D0130F702031D032E042EA0
:102C0600DF2D7608F1007508F00008008312031323
:102C1600A7006F1C0F2E102E182E2708F8007B0811
:102C26000A168A1172240A168A11FD1F1B2E1C2EE3
:102C36001E2EFC01FD0183120313A501A601382EE9
:102C46002030F0000030F100831203132708F20051
:102C56000A168A1155260A168A11013083120313A1
:102C6600A5070318A60A0030A6072608803AA4007E
:102C76007D08803A2402031D422E7C082502031C8F
:102C8600452E462E232E831203136F184B2E4C2EE1
:102C9600542E2708F8007B080A168A1172240A1691
:102CA6008A11080072080319592E5A2E5F2E7208CF
:102CB600031D5E2E5F2E662E70080A128A110320EF
:102CC6000A168A11AA2E7208093E84008313000888
:102CD600F300840A0008F400730874040319742EC0
:102CE600752E932E7208093E84000008F300840AAC
:102CF6000008F4007208023E84000008F500840A09
:102D06000008F6007608803AF7007408803A7702E1
:102D1600031D8F2E730875020318922E932EAA2E6A
:102D26007208023E840083130008F30072088400D0
:102D360000087307F40074088400700880007208A5
:102D4600023E840001308007840A0318800A0800C6
:102D560083120313A400143083120313A3007930E3
:102D6600A200A20BB42EA30BB42E0330F9008312DB
:102D7600031324080A128A1578220A168A110730C4
:102D860083120313A3007C30A200A20BC82EA30B50
:102D9600C82E00000330F9008312031324080A1218
:102DA6008A1578220A168A11203083120313A2008C
:102DB600A20BDB2E00000330F90083120313240854
:102DC6000A128A1578220A168A110230F90083122D
:102DD600031324080A128A1578220A168A11283043
:102DE600F9008312031324080A128A1578220A1698
:102DF6008A110C30F9008312031324080A128A156B
:102E060078220A168A110630F90083120313240861
:102E16000A128A1578220A168A11831203132408C5
:102E26000A168A1195230A168A1108000A168A11AB
:102E360064230A168A11710883120313DD007008D1
:102E4600DC004030BD00A030BC000030BB000030CC
:102E5600BA004430A3008030A2000030A100003048
:102E6600A0005C08F0005D08F100F201F3010030FB
:102E76000A128A15C0210A168A11730883120313CF
:102E8600A7007208A6007108A5007008A4000A121F
:102E96008A15A2230A168A11831203132308C10076
:102EA6002208C0002108BF002008BE000A128A11AD
:102EB60097240A168A11831203133D08DB003C0887
:102EC600DA003B08D9003A08D8003C30A30023308A
:102ED600A200D730A1000A30A0005B08A7005A085C
:102EE600A6005908A5005808A4000A128A15A223AC
:102EF6000A168A11831203132308D7002208D60064
:102F06002108D5002008D4000800031083120313FB
:102F1600560D570DDD005D08031D922F932F9C2F34
:102F26000030D7000030D6000030D5000030D40085
:102F3600FF2F5408D8005508D9005608DA0057085C
:102F4600DB001F300310DB0CDA0CD90CD80CFF3E6B
:102F5600031DA52F5808DC00D617FF30D405FF3017
:102F6600D505FF30D6050030D7059630DD02DD1FCA
:102F7600BD2FBE2FD82F5D08803A973E0318C42F69
:102F8600C52FC62F932F01300310D70CD60CD50CA6
:102F9600D40CFF3E031DC72F0130D8005808DD07AB
:102FA600031DD62FD72FC62FEF2F20305D02031C0F
:102FB600DD2FDE2FEA2F932F0130D8000310D40D1A
:102FC600D50DD60DD70DD80BE12F0130DD025D08EA
:102FD600031DEE2FEF2FDF2F5C080319F32FF42FBD
:102FE600FF2FD409D509D609D709D40A0319D50A5A
:0A2FF6000319D60A0319D70A0800D0
:02400E00F42F8D
:00000001FF
