:060000000A128A11FC2F18
:10004C0001308316031788000130831203139F00BD
:10005C008030831603139F000800831203139F1430
:10006C009F1839283A2836281E08F10083160313E6
:10007C001E08F00008006030831603138F00870100
:10008C000730831203139200FF3083160313920080
:10009C000C30831203139700950104309200080072
:1000AC00F800F401F5017008F200F3017208F60093
:1000BC007308F700781C632864286A287608F4070C
:1000CC000318F50A7708F50701300310F60DF70D44
:1000DC00FF3E031D6B280310F80C7808031D7728CE
:1000EC00782860287508F1007408F00008000A12DE
:1000FC008A1133200A128A11710883120313DD004E
:10010C007008DC004030BD00A030BC000030BB00EB
:10011C000030BA004430A3008030A2000030A100AF
:10012C000030A0005C08F0005D08F100F201F30162
:10013C0000300A128A112C220A128A1173088312B7
:10014C000313A7007208A6007108A5007008A4008C
:10015C000A128A11E4220A128A1183120313230849
:10016C00C1002208C0002108BF002008BE000A12EE
:10017C008A11B7240A128A11831203133D08DB007B
:10018C003C08DA003B08D9003A08D8003C30A30000
:10019C002330A200D730A1000A30A0005B08A700D2
:1001AC005A08A6005908A5005808A4000A128A117A
:1001BC00E4220A128A11831203132308D70022089F
:1001CC00D6002108D5002008D40008000A128A1194
:1001DC0041200A128A110A128A1126200A128A1147
:1001EC0064308312031395001A3083120313E0005A
:1001FC005E30DF006D30DE00DE0B0229DF0B0229E2
:10020C00E00B022909298312031395010A128A11A2
:10021C007D200A128A11831203135708E400560832
:10022C00E3005508E2005408E1004230F3000430CA
:10023C00F2000030F1000030F0006408F7006308B1
:10024C00F6006208F5006108F4000A128A118A218E
:10025C000A128A110318332934293929C830831218
:10026C000313950078294130F300F030F200003090
:10027C00F1000030F000831203136408F7006308E8
:10028C00F6006208F5006108F4000A128A118A214E
:10029C000A128A110318532954295929123083122E
:1002AC000313950078294130F300A030F2000030A0
:1002BC00F1000030F000831203136408F7006308A8
:1002CC00F6006208F5006108F4000A128A118A210E
:1002DC000A128A1103187329742978290930831298
:1002EC00031395000B3083120313E0002630DF005C
:1002FC005D30DE00DE0B8029DF0B8029E00B8029CE
:10030C000C290A128A11002800307005F800003000
:10031C007105F90080307205FA007F307305FB001F
:10032C007B087A0479047804031D9D299E29A6294B
:10033C000030F3000030F2000030F1000030F0002B
:10034C0000307405F80000307505F9008030760532
:10035C00FA007F307705FB007B087A047904780477
:10036C00031DB929BA29C2290030F7000030F60064
:10037C000030F5000030F400F31FC529C629EA2926
:10038C000030F8000030F9000030FA008030FB003B
:10039C007008F8027108031C710FD529D629F902CF
:1003AC007208031C720FDB29DC29FA027308031C88
:1003BC00730FE129E229FB027B08F3007A08F200B3
:1003CC007908F1007808F000F71FED29EE29122AC0
:1003DC000030F8000030F9000030FA008030FB00EB
:1003EC007408F8027508031C750FFD29FE29F90223
:1003FC007608031C760F032A042AFA027708031CDA
:10040C00770F092A0A2AFB027B08F7007A08F60004
:10041C007908F5007808F4008030F3068030F70690
:10042C0077087302031D242A76087202031D242AFE
:10043C0075087102031D242A740870020318272AF8
:10044C00282A2A2A03102B2A03140800F8007808FB
:10045C000319312A322A462AF31F352A362A462A0C
:10046C007009FA007109FB007209FC007309FD00A8
:10047C00FA0A0319FB0A0319FC0A0319FD0A4E2A8E
:10048C007308FD007208FC007108FB007008FA008C
:10049C007308720471047004031D552A562A5F2ACE
:1004AC000030F3000030F2000030F1000030F000BA
:1004BC00E32A9630F9006F2A0130F4007408F9072A
:1004CC0001300310FD0CFC0CFB0CFA0CFF3E031D61
:1004DC00672AFE307D05031D742A752A622A912A2B
:1004EC000130F4007408F9070130FA0700300318E2
:1004FC000130FB07003003180130FC0700300318F3
:10050C000130FD0701300310FD0CFC0CFB0CFA0C48
:10051C00FF3E031D892AFF307D05031D962A972A6D
:10052C00762AA32A0130F9020130F4000310FA0DE7
:10053C00FB0DFC0DFD0DF40B9C2AFC1BA62AA72A17
:10054C00AD2A023079020318AC2AAD2A982A791800
:10055C00B02AB12AB92AFF30FA05FF30FB057F30EB
:10056C00FC05FF30FD050310F90C7908F400F501CA
:10057C00F601F70118300310F40DF50DF60DF70D1B
:10058C00FF3E031DC12A7408FA047508FB047608A3
:10059C00FC047708FD0478080319D52AD62ADB2A2F
:1005AC00F31FD92ADA2ADB2AFD177D08F3007C0811
:1005BC00F2007B08F1007A08F000080083120313A4
:1005CC0027088039B1002708A8002807B800A61F03
:1005DC00F02AF12AF22A381438080319F62AF72AD5
:1005EC00072B380A031DFB2AFC2A042B0030A7001A
:1005FC000030A6000030A5000030A400A617A7010B
:10060C000F2B0030A7000030A6000030A5000030F2
:10061C00A40023088039A8002808B1062308A800E4
:10062C002807B900A21F1B2B1C2B1D2B39143908B2
:10063C000319212B222B322B390A031D262B272B96
:10064C002F2B0030A3000030A2000030A10000309E
:10065C00A000A217A3013A2B0030A3000030A20087
:10066C000030A1000030A000230822042104200443
:10067C00031D412B422B5B2B0030A7000030A60042
:10068C000030A5000030A4008030A6047F30A70401
:10069C003108A8002808A7042708A3002608A200F0
:1006AC002508A1002408A000B62C3808031D5F2BD8
:1006BC00602B692B0030A3000030A2000030A10099
:1006CC000030A000B62C3808A800A9012908AB00FE
:1006DC0039082802AA00031CAB032A087F3EB2008B
:1006EC002B080318013E003EB3002708B000260873
:1006FC00AF002508AE002408AD000030A700003084
:10070C00A6000030A5000030A4000030B700003077
:10071C00B6000030B5000030B400B901DF2B390849
:10072C000319992B9A2BBA2B0130A8000310AD0D8D
:10073C00AE0DAF0DB00DA80B9C2B0130A800031013
:10074C00A40DA50DA60DA70DA80BA52BB71FAF2BA0
:10075C00B02BB12B24140130A8000310B40DB50D2F
:10076C00B60DB70DA80BB32B23083002031DC82BF5
:10077C0022082F02031DC82B21082E02031DC82B93
:10078C0020082D02031CCB2BCC2BDB2B371720087E
:10079C00AD022108031C210FAE022208031C220FFC
:1007AC00AF022308031C230FB0020130A800280855
:1007BC00B9071A303902031CE42BE52B952B3008B2
:1007CC002F042E042D040319EC2BED2B0C2C3414BC
:1007DC000C2C0130A8000310A40DA50DA60DA70D1F
:1007EC00A80BF12BB71FFB2BFC2BFD2B241401307A
:1007FC00A8000310B40DB50DB60DB70DA80BFF2B4B
:10080C00FF30B2070318B30AFF30B307A61F0F2C33
:10081C00102CEF2BB901B71F142C152C312CFF30D9
:10082C003405A800FF303505A900FF303605AA00B5
:10083C007F303705AB002B082A0429042804031940
:10084C00282C292C2C2CB901B90A312C241C2F2C26
:10085C00302C312C292C39080319352C362C672CCB
:10086C000130A407003003180130A507003003182D
:10087C000130A607003003180130A707271C472CAE
:10088C00482C672C2408A8002508A9002608AA00D3
:10089C002708AB000130AC002B0DAB0CAA0CA90C3B
:1008AC00A80CAC0B522C2B08A7002A08A600290870
:1008BC00A5002808A4000130B2070318B30A0030C1
:1008CC00B3073308803AFF0080307F02031D702C81
:1008DC00FF303202031C732C742C822CFF308312D9
:1008EC000313B2000030B3000030A7000030A600A4
:1008FC000030A5000030A400831203133308803AA3
:10090C00FF0080307F02031D8D2C01303202031852
:10091C00902C912C9E2C83120313B201B301003046
:10092C00A7000030A6000030A5000030A400B101E3
:10093C00831203133208B800381CA52CA62CA82C43
:10094C00A617AC2C7F30A8002808A6053808A800EC
:10095C000310280CA7003108A8002808A704522B64
:10096C000800831203133D088039C7003D08C200FC
:10097C004207CD00BC1FC32CC42CC52C4D144D08F4
:10098C000319C92CCA2CD92C4D0A031DCE2CCF2CE3
:10099C00D72C0030BD000030BC000030BB00003054
:1009AC00BA00BC17E12C0030BD000030BC00003098
:1009BC00BB000030BA0041088039C2004208C706AB
:1009CC004108C2004207CC00C01FED2CEE2CEF2CCE
:1009DC004C144C080319F32CF42C032D4C0A031D56
:1009EC00F82CF92C012D0030C1000030C000003073
:1009FC00BF000030BE00C0170B2D0030C10000300E
:100A0C00C0000030BF000030BE004C0803190F2D91
:100A1C00102D152D4D08031D142D152D1E2D0030D8
:100A2C00BD000030BC000030BB000030BA00FB2F12
:100A3C003A08F00040080A128A1156200A128A114C
:100A4C00710883120313D3007008D2005208C2003D
:100A5C00C301C401C5014508CB004408CA004308C2
:100A6C00C9004208C8005308C200C301C401C50133
:100A7C004508D1004408D0004308CF004208CE00FE
:100A8C003B08F0003F080A128A1156200A128A11FC
:100A9C00710883120313D3007008D2005208C200ED
:100AAC00C301C401C5014208C80743080311031858
:100ABC00013E0319622DC907440803110318013EB6
:100ACC000319692DCA07450803110318013E0319C0
:100ADC00702DCB075308C200C301C401C5014208E5
:100AEC00CE07430803110318013E03197E2DCF07CF
:100AFC00440803110318013E0319852DD00745083E
:100B0C0003110318013E03198C2DD1073C08F0008A
:100B1C003E080A128A1156200A128A117108831291
:100B2C000313D3007008D2005208C200C301C401E1
:100B3C00C5014208C807430803110318013E0319F5
:100B4C00A82DC907440803110318013E0319AF2D42
:100B5C00CA07450803110318013E0319B62DCB072C
:100B6C005308C200C301C401C5014208CE074308A3
:100B7C0003110318013E0319C42DCF0744080311B8
:100B8C000318013E0319CB2DD00745080311031898
:100B9C00013E0319D22DD1070830C2000310C80D35
:100BAC00C90DCA0DCB0DC20BD42D3B08F0003E086D
:100BBC000A128A1156200A128A1171088312031321
:100BCC00D3007008D2005208C2005308C300C401FD
:100BDC00C5014208C807430803110318013E031955
:100BEC00F82DC907440803110318013E0319FF2D02
:100BFC00CA07450803110318013E0319062ECB073B
:100C0C003A08F0003F080A128A1156200A128A117B
:100C1C00710883120313D3007008D2005208C2006B
:100C2C005308C300C401C5014208C8074308031197
:100C3C000318013E0319232EC90744080311031896
:100C4C00013E03192A2ECA07450803110318013E59
:100C5C000319312ECB070830C2000310C80DC90D83
:100C6C00CA0DCB0DC20B332E3A08F0003E080A1207
:100C7C008A1156200A128A11710883120313D300A9
:100C8C007008D2005208C2005308C300C401C50149
:100C9C004208C807430803110318013E0319572ED5
:100CAC00C907440803110318013E03195E2ECA0735
:100CBC00450803110318013E0319652ECB073B08A9
:100CCC00F00040080A128A1156200A128A11710883
:100CDC0083120313D3007008D2005208C2005308C9
:100CEC00C300C401C5014208CE0743080311031811
:100CFC00013E0319822ECF07440803110318013E4D
:100D0C000319892ED007450803110318013E031956
:100D1C00902ED1073C08F0003F080A128A11562089
:100D2C000A128A11710883120313D3007008D200BF
:100D3C005208C2005308C300C401C5014208CE07C3
:100D4C00430803110318013E0319AD2ECF074408C5
:100D5C0003110318013E0319B42ED00745080311E3
:100D6C000318013E0319BB2ED1073C08F0004008C4
:100D7C000A128A1156200A128A117108831203135F
:100D8C00D3007008D2005208C2005308C300C4013B
:100D9C00C50108300310C20DC30DC40DC50DFF3EB7
:100DAC00031DD02E4208CE07430803110318013E41
:100DBC000319E12ECF07440803110318013E031950
:100DCC00E82ED007450803110318013E0319EF2E36
:100DDC00D1074808C2004908C3004A08C4004B08A0
:100DEC00C50018300310C50CC40CC30CC20CFF3E5C
:100DFC00031DF82E4208CE07430803110318013EC9
:100E0C000319092FCF07440803110318013E0319D6
:100E1C00102FD007450803110318013E0319172F93
:100E2C00D1070830C2000310C80DC90DCA0DCB0D77
:100E3C00C20B192F4D084C07C200C301C30D420849
:100E4C00823ED20043080318013EFF3ED3004B2FD5
:100E5C000130C2000310CE0DCF0DD00DD10DC20B41
:100E6C00302FCB1F3A2F3B2F3C2F4E140130C2009A
:100E7C000310C80DC90DCA0DCB0DC20B3E2FFF3090
:100E8C00D2070318D30AFF30D307D01F4E2F4F2F92
:100E9C002E2FCC01CB1F532F542F702FFF30480512
:100EAC00C200FF304905C300FF304A05C4007F3043
:100EBC004B05C50045084404430442040319672F3D
:100ECC00682F6B2FCC01CC0A702F4E1C6E2F6F2FFE
:100EDC00702F682F4C080319742F752FA62F013013
:100EEC00CE07003003180130CF0700300318013053
:100EFC00D007003003180130D107511C862F872FE3
:100F0C00A62F4E08C2004F08C3005008C400510859
:100F1C00C5000130C600450DC50CC40CC30CC20C79
:100F2C00C60B912F4508D1004408D0004308CF00D0
:100F3C004208CE000130D2070318D30A0030D30781
:100F4C005308803AFF0080307F02031DAF2FFF3023
:100F5C005202031CB22FB32FBE2F7F308312031308
:100F6C00D1008030D0000030CF000030CE00EF2F09
:100F7C00831203135308803AFF0080307F02031D55
:100F8C00C92F013052020318CC2FCD2FD92F00308E
:100F9C0083120313D1000030D0000030CF0000309A
:100FAC00CE00C701EF2F831203135208CD00FF3080
:100FBC00CE05FF30CF057F30D0050030D1054D1C5C
:100FCC00E82FE92FEA2FD0174D08C2000310420C6E
:100FDC00D1004708C2004208D1045108BD00500896
:100FEC00BC004F08BB004E08BA00080083010A126F
:040FFC008A11EC2842
:02400E00F42F8D
:00000001FF
