:100000000A128A11EE2F00308A000408840A82073F
:10001000003457346F3472346C34643400344834F0
:0A00200065346C346C346F34003426
:1005280083120313A0007D08F90020080A128A111B
:1005380055250A128A11080007340034023403349E
:10054800043405340634073400340A340A340034D9
:1005580011340E34003400347E088A007F0882008B
:100568000A128A11B0220A128A118000840A040829
:100578007D0603190034FF0A0319FE0AB42AFD0098
:10058800F901F90A7D080A128A112B240A128A1124
:10059800033083120313A1009730A000A00BD22AC6
:1005A800A10BD22A080083120313A100EF2A7D08A9
:1005B80084000A128A1103200A128A11F9002108FC
:1005C8000A128A1155250A128A110130831203135F
:1005D800A0002008FD077D0884000A128A11032064
:1005E8000A128A11003A031DFA2AFB2ADB2A08009C
:1005F80083120313A500062B8030A400162BC030ED
:10060800A400162B2008A200A3012308003A03190E
:100618000E2B002B2208013A0319002B033A031969
:10062800032B002B2108FF3EA2002208A407240860
:10063800F90025080A128A112B240A128A110800C7
:1006480073080319282B292B3C2B0130F400720A5C
:100658002F2B0310F40DFF3E031D2D2B7408F500FE
:10066800700884008317711C8313750880044F2B4E
:100678000130F400720A422B0310F40DFF3E031DF3
:10068800402B7408FF3AF500700884008317711C2A
:100698008313750880050800F80078088400831320
:1006A8000008F000840A00088403F1007808033E7B
:1006B80084000008F200F301F30A0A128A112423C5
:1006C8000A128A110330F7009730F600F60B6A2BEE
:1006D800F70B6A2B6F2B7808840083130008F0004F
:1006E800840A00088403F1007808033E84000008A7
:1006F800F200F3010A128A1124230A128A1108004F
:1007080083120313A2000830200203188C2B8D2BB0
:10071800BC2B2008FD0002300310FD0DFF3E031D19
:10072800902B03107D0D403EF90022080A128A1111
:100738002B240A128A1183120313A3012308210709
:10074800FD007D08840083130008F90022080A12BE
:100758008A1155250A128A110130FD007D0883127D
:100768000313A30708302302031CBB2BBC2BA22BAB
:10077800080083120313A400143083120313A30088
:100788007930A200A20BC62BA30BC62B0330F900AD
:100798008312031324080A128A112B240A128A11BD
:1007A800073083120313A3007C30A200A20BDA2BBC
:1007B800A30BDA2B00000330F9008312031324087B
:1007C8000A128A112B240A128A1120308312031369
:1007D800A200A20BED2B00000330F90083120313D3
:1007E80024080A128A112B240A128A110230F900ED
:1007F8008312031324080A128A112B240A128A115D
:100808002830F9008312031324080A128A112B24B2
:100818000A128A110C30F9008312031324080A12F1
:100828008A112B240A128A110630F9008312031345
:1008380024080A128A112B240A128A11831203131C
:1008480024080A128A11C3220A128A110800FC001D
:100858007C08840083130008F000840A00088403DD
:10086800F1007C08043E84000008F2007908FB00CF
:1008780004300310FB0CFF3E031D3D2C7B18452C58
:10088800472C0130482C0030F3000A128A11242327
:100898000A128A117C08840083130008F000840A75
:1008A80000088403F1007C08053E84000008F2007B
:1008B8007908FB0005300310FB0CFF3E031D5F2C7D
:1008C8007B18672C692C01306A2C0030F3000A125F
:1008D8008A1124230A128A117C08840083130008D1
:1008E800F000840A00088403F1007C08063E8400B6
:1008F8000008F2007908FB0006300310FB0CFF3EED
:10090800031D812C7B18892C8B2C01308C2C0030FA
:10091800F3000A128A1124230A128A117C0884001F
:1009280083130008F000840A00088403F1007C089F
:10093800073E84000008F2007908FB000730031026
:10094800FB0CFF3E031DA32C7B18AB2CAD2C0130F8
:10095800AE2C0030F3000A128A1124230A128A11DD
:100968007C08840083130008F000840A00088403CC
:10097800F1007C08023E84000008F200F3010A122C
:100988008A1124230A128A117C080A128A11502318
:100998000A128A117C08840083130008F000840A74
:1009A80000088403F1007C08043E84000008F2007B
:1009B8007918DF2CE12C0130E22C0030F3000A1208
:1009C8008A1124230A128A117C08840083130008E0
:1009D800F000840A00088403F1007C08053E8400C6
:1009E8000008F2007908FB0001300310FB0CFF3E01
:1009F800031DF92C7B18012D032D0130042D003027
:100A0800F3000A128A1124230A128A117C0884002E
:100A180083130008F000840A00088403F1007C08AE
:100A2800063E84000008F2007908FB00023003103B
:100A3800FB0CFF3E031D1B2D7B18232D252D01309C
:100A4800262D0030F3000A128A1124230A128A1173
:100A58007C08840083130008F000840A00088403DB
:100A6800F1007C08073E84000008F2007908FB00CA
:100A780003300310FB0CFF3E031D3D2D7B18452D55
:100A8800472D0130482D0030F3000A128A11242323
:100A98000A128A117C080A128A1150230A128A1132
:100AA8000800FC007C08840083130008F000840A16
:100AB80000088403F1007C08043E84000008F2006A
:100AC8007908FB0004300310FB0CFF3E031D672D63
:100AD8007B186F2D712D0130722D0030F3000A1232
:100AE8008A1124230A128A117C08840083130008BF
:100AF800F000840A00088403F1007C08053E8400A5
:100B08000008F2007908FB0005300310FB0CFF3EDB
:100B1800031D892D7B18912D932D0130942D0030C4
:100B2800F3000A128A1124230A128A117C0884000D
:100B380083130008F000840A00088403F1007C088D
:100B4800063E84000008F2007908FB000630031016
:100B5800FB0CFF3E031DAB2D7B18B32DB52D0130CB
:100B6800B62D0030F3000A128A1124230A128A11C2
:100B78007C08840083130008F000840A00088403BA
:100B8800F1007C08073E84000008F2007908FB00A9
:100B980007300310FB0CFF3E031DCD2D7B18D52D10
:100BA800D72D0130D82D0030F3000A128A112423E2
:100BB8000A128A117C08840083130008F000840A52
:100BC80000088403F1007C08023E84000008F2005B
:100BD800F301F30A0A128A1124230A128A117C08E3
:100BE8000A128A1150230A128A117C08840083137E
:100BF8000008F000840A00088403F1007C08043E21
:100C080084000008F20079180A2E0C2E01300D2EEF
:100C18000030F3000A128A1124230A128A117C0870
:100C2800840083130008F000840A00088403F1009C
:100C38007C08053E84000008F2007908FB000130BA
:100C48000310FB0CFF3E031D242E7B182C2E2E2E8A
:100C580001302F2E0030F3000A128A1124230A12C1
:100C68008A117C08840083130008F000840A0008B5
:100C78008403F1007C08063E84000008F20079082D
:100C8800FB0002300310FB0CFF3E031D462E7B18B1
:100C98004E2E502E0130512E0030F3000A128A11C8
:100CA80024230A128A117C08840083130008F000A8
:100CB800840A00088403F1007C08073E84000008C9
:100CC800F2007908FB0003300310FB0CFF3E031D04
:100CD800682E7B18702E722E0130732E0030F300B0
:100CE8000A128A1124230A128A117C080A128A110C
:100CF80050230A128A1108008316031387012B3028
:100D08008400333083120313A6000408A7000830B8
:100D1800A8002608840083130008A900A60A27084B
:100D2800840029088000A70AA80B8D2E2B300A12F0
:100D38008A11BD230A128A112B300A128A11C32282
:100D48000A128A1183120313A001A00AA101A10AA1
:100D58002B300A128A11FC220A128A110730FD0070
:100D68002B300A128A11D7220A128A1102308312F2
:100D78000313A000A101A10A2B300A128A11FC2238
:100D88000A128A110130FD002B300A128A11D7226B
:100D98000A128A11333083120313A800BB30A7004C
:100DA800DF30A600A60BD62EA70BD62EA80BD62E64
:100DB8002B300A128A11C3220A128A1183120313D2
:100DC800A0013B30A1002B300A128A1184230A1299
:100DD8008A1183120313A001A00AA101A10A2B30D2
:100DE8000A128A11FC220A128A11FD012B300A12FA
:100DF8008A1194220A128A11333083120313A8002D
:100E0800BB30A700DF30A600A60B082FA70B082FC2
:100E1800A80B082F2B300A128A11C3220A128A1132
:100E280083120313AA01AA0AA001A00A2A08A10092
:100E38002B300A128A11FC220A128A118312031318
:100E48002A08403EF9002B300A128A1155250A1249
:100E58008A11033083120313A8000830A7007630E4
:100E6800A600A60B352FA70B352FA80B352F000092
:100E7800013083120313A6002608AA0711302A029C
:100E8800031C472F482F182F333083120313A80051
:100E9800BB30A700DF30A600A60B502FA70B502FA2
:100EA800A80B502F83120313AA01AA0A0230A0002C
:100EB8002A08A1002B300A128A11FC220A128A1170
:100EC800831203132A08483EF9002B300A128A11AC
:100ED80055250A128A11033083120313A80008301B
:100EE800A7007630A600A60B772FA70B772FA80BA5
:100EF800772F0000013083120313A6002608AA07E3
:100F080011302A02031C892F8A2F5A2F333083125B
:100F18000313A800BB30A700DF30A600A60B922F52
:100F2800A70B922FA80B922F83120313AA01AA0AC8
:100F3800A001A00A2A08A1002B300A128A11FC225B
:100F48000A128A11FD012B300A128A1194220A1200
:100F58008A11033083120313A8000830A7007630E3
:100F6800A600A60BB52FA70BB52FA80BB52F000011
:100F7800023083120313A0002A08A1002B300A12A2
:100F88008A11FC220A128A11FD012B300A128A11D9
:100F980094220A128A11033083120313A80008301E
:100FA800A7007630A600A60BD72FA70BD72FA80B24
:100FB800D72F0000013083120313A6002608AA07C2
:100FC80011302A02031CE92FEA2F9C2F0E2F0A1238
:100FD8008A11002883134330FD000230FE00A03040
:100FE800FF00333084000A128A11B4220A128A11CF
:080FF80083010A128A11802E08
:02400E003A3F37
:00000001FF
