:100000000A128A11EE2F00308A000408840A82073F
:10001000003457346F3472346C34643400344834F0
:0A00200065346C346C346F34003426
:1007FA00073400340234033404340534063407342D
:10080A007E088A007F0882000A128A1105240A12C9
:10081A008A118000840A04087D0603190034FF0A3D
:10082A000319FE0A092CFD00F901F90A7D080A12CA
:10083A008A1199250A128A11033083120313A1001F
:10084A009730A000A00B272CA10B272C080083129D
:10085A000313A100442C7D0884000A128A11032084
:10086A000A128A11F90021080A128A11C3260A12E9
:10087A008A11013083120313A0002008FD077D08A6
:10088A0084000A128A1103200A128A11003A031DEF
:10089A004F2C502C302C080083120313A4005B2C1D
:1008AA008030A5006B2CC030A5006B2C2008A2005C
:1008BA00A3012308003A0319632C552C2208013A94
:1008CA000319552C033A0319582C552C2108FF3EBD
:1008DA00A2002208A5072508F90024080A128A118D
:1008EA0099250A128A110800730803197D2C7E2C97
:1008FA00912C0130F400720A842C0310F40DFF3E8F
:10090A00031D822C7408F500700884008317711C7B
:10091A00831375088004A42C0130F400720A972C02
:10092A000310F40DFF3E031D952C7408FF3AF500E1
:10093A00700884008317711C8313750880050800EA
:10094A00F8007808840083130008F000840A00087D
:10095A008403F1007808033E84000008F200F301E2
:10096A00F30A0A128A1179240A128A110330F7004B
:10097A009730F600F60BBF2CF70BBF2CC42C780867
:10098A00840083130008F000840A00088403F1003D
:10099A007808033E84000008F200F3010A128A1163
:1009AA0079240A128A1108008316031387012A3050
:1009BA008400323083120313A6000408A70008300B
:1009CA00A8002608840083130008A900A60A27089D
:1009DA00840029088000A70AA80BE62C2A300A12EC
:1009EA008A112B250A128A112A300A128A1118240E
:1009FA000A128A1183120313A001A00AA101A10AF3
:100A0A002A300A128A1151240A128A110730FD006B
:100A1A002A300A128A112C240A128A1102308312ED
:100A2A000313A000A101A10A2A300A128A11512433
:100A3A000A128A110130FD002A300A128A112C2466
:100A4A000A128A11272D0A128A1100288312031307
:100A5A00A400143083120313A3007930A200A20B5E
:100A6A00342DA30B342D0330F90083120313240809
:100A7A000A128A1199250A128A110730831203135E
:100A8A00A3007C30A200A20B482DA30B482D000026
:100A9A000330F9008312031324080A128A119925D4
:100AAA000A128A11203083120313A200A20B5B2DB3
:100ABA0000000330F9008312031324080A128A1172
:100ACA0099250A128A110230F900831203132408A5
:100ADA000A128A1199250A128A112830F9008312FA
:100AEA00031324080A128A1199250A128A110C3052
:100AFA00F9008312031324080A128A1199250A128B
:100B0A008A110630F9008312031324080A128A1183
:100B1A0099250A128A118312031324080A128A11C8
:100B2A0018240A128A110800FC007C088400831326
:100B3A000008F000840A00088403F1007C08043EDF
:100B4A0084000008F2007908FB0004300310FB0C53
:100B5A00FF3E031DAB2D7B18B32DB52D0130B62DED
:100B6A000030F3000A128A1179240A128A117C08C9
:100B7A00840083130008F000840A00088403F1004B
:100B8A007C08053E84000008F2007908FB00053065
:100B9A000310FB0CFF3E031DCD2D7B18D52DD72D41
:100BAA000130D82D0030F3000A128A1179240A1272
:100BBA008A117C08840083130008F000840A000864
:100BCA008403F1007C08063E84000008F2007908DC
:100BDA00FB0006300310FB0CFF3E031DEF2D7B18B4
:100BEA00F72DF92D0130FA2D0030F3000A128A117F
:100BFA0079240A128A117C08840083130008F00001
:100C0A00840A00088403F1007C08073E8400000877
:100C1A00F2007908FB0007300310FB0CFF3E031DAE
:100C2A00112E7B18192E1B2E01301C2E0030F300BA
:100C3A000A128A1179240A128A117C088400831301
:100C4A000008F000840A00088403F1007C08023ED0
:100C5A0084000008F200F3010A128A1179240A12A8
:100C6A008A117C080A128A11A5240A128A117C08A0
:100C7A00840083130008F000840A00088403F1004A
:100C8A007C08043E84000008F20079184D2E4F2E8D
:100C9A000130502E0030F3000A128A1179240A1208
:100CAA008A117C08840083130008F000840A000873
:100CBA008403F1007C08053E84000008F2007908EC
:100CCA00FB0001300310FB0CFF3E031D672E7B184F
:100CDA006F2E712E0130722E0030F3000A128A1123
:100CEA0079240A128A117C08840083130008F00010
:100CFA00840A00088403F1007C08063E8400000888
:100D0A00F2007908FB0002300310FB0CFF3E031DC2
:100D1A00892E7B18912E932E0130942E0030F300E9
:100D2A000A128A1179240A128A117C088400831310
:100D3A000008F000840A00088403F1007C08073EDA
:100D4A0084000008F2007908FB0003300310FB0C52
:100D5A00FF3E031DAB2E7B18B32EB52E0130B62EE7
:100D6A000030F3000A128A1179240A128A117C08C7
:100D7A000A128A11A5240A128A110800FC007C08AA
:100D8A00840083130008F000840A00088403F10039
:100D9A007C08043E84000008F2007908FB00043055
:100DAA000310FB0CFF3E031DD52E7B18DD2EDF2E14
:100DBA000130E02E0030F3000A128A1179240A1257
:100DCA008A117C08840083130008F000840A000852
:100DDA008403F1007C08053E84000008F2007908CB
:100DEA00FB0005300310FB0CFF3E031DF72E7B189A
:100DFA00FF2E012F0130022F0030F3000A128A1150
:100E0A0079240A128A117C08840083130008F000EE
:100E1A00840A00088403F1007C08063E8400000866
:100E2A00F2007908FB0006300310FB0CFF3E031D9D
:100E3A00192F7B18212F232F0130242F0030F30084
:100E4A000A128A1179240A128A117C0884008313EF
:100E5A000008F000840A00088403F1007C08073EB9
:100E6A0084000008F2007908FB0007300310FB0C2D
:100E7A00FF3E031D3B2F7B18432F452F0130462F82
:100E8A000030F3000A128A1179240A128A117C08A6
:100E9A00840083130008F000840A00088403F10028
:100EAA007C08023E84000008F200F301F30A0A12E9
:100EBA008A1179240A128A117C080A128A11A52435
:100ECA000A128A117C08840083130008F000840A3D
:100EDA0000088403F1007C08043E84000008F20044
:100EEA007918782F7A2F01307B2F0030F3000A12FD
:100EFA008A1179240A128A117C0884008313000853
:100F0A00F000840A00088403F1007C08053E84008E
:100F1A000008F2007908FB0001300310FB0CFF3EC9
:100F2A00031D922F7B189A2F9C2F01309D2F003082
:100F3A00F3000A128A1179240A128A117C088400A1
:100F4A0083130008F000840A00088403F1007C0877
:100F5A00063E84000008F2007908FB000230031004
:100F6A00FB0CFF3E031DB42F7B18BC2FBE2F013094
:100F7A00BF2F0030F3000A128A1179240A128A114B
:100F8A007C08840083130008F000840A00088403A4
:100F9A00F1007C08073E84000008F2007908FB0093
:100FAA0003300310FB0CFF3E031DD62F7B18DE2FE8
:100FBA00E02F0130E12F0030F3000A128A11792460
:100FCA000A128A117C080A128A11A5240A128A11A5
:100FDA00080083133A30FD000330FE00FD30FF00A5
:100FEA00323084000A128A1109240A128A118301F2
:060FFA000A128A11D92C35
:02400E00383F39
:00000001FF
