:100000000A128A11EE2F00308A000408840A82073F
:10001000003457346F3472346C34643400344834F0
:0A00200065346C346C346F34003426
:1004DC0083120313B8007D08F90038080A128A1138
:1004EC0037250A128A1108007E088A007F088200CC
:1004FC000A128A117A220A128A118000840A0408CC
:10050C007D0603190034FF0A0319FE0A7E2AFD003A
:10051C00F901F90A7D080A128A110D240A128A11AE
:10052C00033083120313B9009730B800B80B9C2A20
:10053C00B90B9C2A08000734003402340334043409
:10054C0005340634073400340A340A3400340034D9
:10055C000E341134003400340A340A3400341134AB
:10056C000E340034003483120313B900D12A7D08F1
:10057C0084000A128A1103200A128A11F900390820
:10058C000A128A1137250A128A11013083120313B9
:10059C00B8003808FD077D0884000A128A11032070
:1005AC000A128A11003A031DDC2ADD2ABD2A080032
:1005BC0083120313BD00E82A8030BC00F82AC03037
:1005CC00BC00F82A3808BA00BB013B08003A0319F2
:1005DC00F02AE22A3A08013A0319E22A033A0319EB
:1005EC00E52AE22A3908FF3EBA003A08BC073C0863
:1005FC00F9003D080A128A110D240A128A1108000A
:10060C00730803190A2B0B2B1E2B0130F400720AF2
:10061C00112B0310F40DFF3E031D0F2B7408F50076
:10062C00700884008317711C831375088004312BA8
:10063C000130F400720A242B0310F40DFF3E031D4D
:10064C00222B7408FF3AF500700884008317711C84
:10065C008313750880050800F8007808840083135C
:10066C000008F000840A00088403F1007808033EB7
:10067C0084000008F200F301F30A0A128A1106231F
:10068C000A128A110330F7009730F600F60B4C2B48
:10069C00F70B4C2B512B7808840083130008F000C7
:1006AC00840A00088403F1007808033E84000008E3
:1006BC00F200F3010A128A1106230A128A110800A9
:1006CC0083120313BA000830380203186E2B6F2BF9
:1006DC009E2B3808FD0002300310FD0DFF3E031D5C
:1006EC00722B03107D0D403EF9003A080A128A1154
:1006FC000D240A128A1183120313BB013B0839071C
:10070C00FD007D08840083130008F9003A080A12E2
:10071C008A1137250A128A110130FD007D088312D7
:10072C000313BB0708303B02031C9D2B9E2B842B11
:10073C00080083120313BC00143083120313BB0094
:10074C007930BA00BA0BA82BBB0BA82B0330F900DD
:10075C00831203133C080A128A110D240A128A11FF
:10076C00073083120313BB007C30BA00BA0BBC2BCE
:10077C00BB0BBC2B00000330F900831203133C08A5
:10078C000A128A110D240A128A11203083120313C3
:10079C00BA00BA0BCF2B00000330F90083120313FD
:1007AC003C080A128A110D240A128A110230F9002F
:1007BC00831203133C080A128A110D240A128A119F
:1007CC002830F900831203133C080A128A110D24F5
:1007DC000A128A110C30F900831203133C080A1216
:1007EC008A110D240A128A110630F90083120313A0
:1007FC003C080A128A110D240A128A11831203135F
:10080C003C080A128A118D220A128A110800FC0077
:10081C007C08840083130008F000840A0008840319
:10082C00F1007C08043E84000008F2007908FB000B
:10083C0004300310FB0CFF3E031D1F2C7B18272CD0
:10084C00292C01302A2C0030F3000A128A110623BD
:10085C000A128A117C08840083130008F000840AB1
:10086C0000088403F1007C08053E84000008F200B7
:10087C007908FB0005300310FB0CFF3E031D412CD7
:10088C007B18492C4B2C01304C2C0030F3000A12F5
:10089C008A1106230A128A117C088400831300082B
:1008AC00F000840A00088403F1007C08063E8400F2
:1008BC000008F2007908FB0006300310FB0CFF3E29
:1008CC00031D632C7B186B2C6D2C01306E2C0030AF
:1008DC00F3000A128A1106230A128A117C0884007A
:1008EC0083130008F000840A00088403F1007C08DC
:1008FC00073E84000008F2007908FB000730031063
:10090C00FB0CFF3E031D852C7B188D2C8F2C01308E
:10091C00902C0030F3000A128A1106230A128A1155
:10092C007C08840083130008F000840A0008840308
:10093C00F1007C08023E84000008F200F3010A1268
:10094C008A1106230A128A117C080A128A11322390
:10095C000A128A117C08840083130008F000840AB0
:10096C0000088403F1007C08043E84000008F200B7
:10097C007918C12CC32C0130C42C0030F3000A129E
:10098C008A1106230A128A117C088400831300083A
:10099C00F000840A00088403F1007C08053E840002
:1009AC000008F2007908FB0001300310FB0CFF3E3D
:1009BC00031DDB2C7B18E32CE52C0130E62C0030DE
:1009CC00F3000A128A1106230A128A117C08840089
:1009DC0083130008F000840A00088403F1007C08EB
:1009EC00063E84000008F2007908FB000230031078
:1009FC00FB0CFF3E031DFD2C7B18052D072D013034
:100A0C00082D0030F3000A128A1106230A128A11EB
:100A1C007C08840083130008F000840A0008840317
:100A2C00F1007C08073E84000008F2007908FB0006
:100A3C0003300310FB0CFF3E031D1F2D7B18272DCD
:100A4C00292D01302A2D0030F3000A128A110623B9
:100A5C000A128A117C080A128A1132230A128A118C
:100A6C000800FC007C08840083130008F000840A52
:100A7C0000088403F1007C08043E84000008F200A6
:100A8C007908FB0004300310FB0CFF3E031D492DBD
:100A9C007B18512D532D0130542D0030F3000A12C8
:100AAC008A1106230A128A117C0884008313000819
:100ABC00F000840A00088403F1007C08053E8400E1
:100ACC000008F2007908FB0005300310FB0CFF3E18
:100ADC00031D6B2D7B18732D752D0130762D003079
:100AEC00F3000A128A1106230A128A117C08840068
:100AFC0083130008F000840A00088403F1007C08CA
:100B0C00063E84000008F2007908FB000630031052
:100B1C00FB0CFF3E031D8D2D7B18952D972D013061
:100B2C00982D0030F3000A128A1106230A128A113A
:100B3C007C08840083130008F000840A00088403F6
:100B4C00F1007C08073E84000008F2007908FB00E5
:100B5C0007300310FB0CFF3E031DAF2D7B18B72D88
:100B6C00B92D0130BA2D0030F3000A128A11062378
:100B7C000A128A117C08840083130008F000840A8E
:100B8C0000088403F1007C08023E84000008F20097
:100B9C00F301F30A0A128A1106230A128A117C083D
:100BAC000A128A1132230A128A117C0884008313D8
:100BBC000008F000840A00088403F1007C08043E5D
:100BCC0084000008F2007918EC2DEE2D0130EF2D89
:100BDC000030F3000A128A1106230A128A117C08CB
:100BEC00840083130008F000840A00088403F100D9
:100BFC007C08053E84000008F2007908FB000130F7
:100C0C000310FB0CFF3E031D062E7B180E2E102E20
:100C1C000130112E0030F3000A128A1106230A1239
:100C2C008A117C08840083130008F000840A0008F1
:100C3C008403F1007C08063E84000008F200790869
:100C4C00FB0002300310FB0CFF3E031D282E7B180B
:100C5C00302E322E0130332E0030F3000A128A115E
:100C6C0006230A128A117C08840083130008F00002
:100C7C00840A00088403F1007C08073E8400000805
:100C8C00F2007908FB0003300310FB0CFF3E031D40
:100C9C004A2E7B18522E542E0130552E0030F30064
:100CAC000A128A1106230A128A117C080A128A1166
:100CBC0032230A128A11080083160313870143306A
:100CCC008400203083120313BE000408BF000830D8
:100CDC00C0003E08840083130008C100BE0A3F0810
:100CEC00840041088000BF0AC00B6F2E43300A12EB
:100CFC008A119F230A128A1143300A128A118D22FB
:100D0C000A128A1183120313B801B80AB901B90A7D
:100D1C0043300A128A11DE220A128A110730FD00B2
:100D2C0043300A128A11B9220A128A110230831234
:100D3C000313B800B901B90A43300A128A11DE2232
:100D4C000A128A110130FD0043300A128A11B922AD
:100D5C000A128A11333083120313C000BB30BF0058
:100D6C00DF30BE00BE0BB82EBF0BB82EC00BB82E9A
:100D7C0043300A128A118D220A128A11831203132C
:100D8C00B8013030B90043300A128A1166230A12B6
:100D9C008A1183120313B801B80A2830B900433002
:100DAC000A128A1166230A128A1183120313B801DC
:100DBC00B80AB901B90A43300A128A11DE220A12A2
:100DCC008A11FD0143300A128A116E220A128A110D
:100DDC00333083120313C000BB30BF00DF30BE00C2
:100DEC00BE0BF62EBF0BF62EC00BF62E43300A129E
:100DFC008A118D220A128A1183120313C201C20AAC
:100E0C00B801B80A4208B90043300A128A11DE222E
:100E1C000A128A11831203134208403EF900433030
:100E2C000A128A1137250A128A110230831203130F
:100E3C00C0008630BF009830BE00BE0B232FBF0B06
:100E4C00232FC00B232F0000013083120313BE008D
:100E5C003E08C20711304202031C352F362F062FD5
:100E6C00153083120313C0004B30BF00BD30BE00E1
:100E7C00BE0B3E2FBF0B3E2FC00B3E2F452F8312B8
:100E8C000313C201C20A0230B8004208B900433051
:100E9C000A128A11DE220A128A11831203134208E3
:100EAC00503EF90043300A128A1137250A128A1172
:100EBC00023083120313C0008630BF009830BE008E
:100ECC00BE0B662FBF0B662FC00B662F00000130C8
:100EDC0083120313BE003E08C20711304202031CEA
:100EEC00782F792F492F153083120313C0004B3004
:100EFC00BF00BD30BE00BE0B812FBF0B812FC00BBE
:100F0C00812F882F83120313C201C20AB801B80AB9
:100F1C004208B90043300A128A11DE220A128A11E1
:100F2C00FD0143300A128A116E220A128A11023014
:100F3C0083120313C0008630BF009830BE00BE0B76
:100F4C00A52FBF0BA52FC00BA52F000002308312BD
:100F5C000313B8004208B90043300A128A11DE228A
:100F6C000A128A11FD01FD0A43300A128A116E22FF
:100F7C000A128A11033083120313C0000830BF0019
:100F8C007630BE00BE0BC82FBF0BC82FC00BC82FAE
:100F9C000000013083120313BE003E08C20711305B
:100FAC004202031CDA2FDB2F8C2F15308312031314
:100FBC00C0004B30BF00BD30BE00BE0BE32FBF0BDB
:100FCC00E32FC00BE32FEA2FFC2E0A128A11002804
:100FDC0083133830FD000230FE00A130FF002030BA
:100FEC0084000A128A117E220A128A1183010A12C3
:040FFC008A11622EC6
:02400E003A3F37
:00000001FF
