:100000000A128A11EE2F00308A000408840A82073F
:10001000003457346F3472346C34643400344834F0
:0A00200065346C346C346F34003426
:1006EA00073400340234033404340534063407343E
:1006FA007E088A007F0882000A128A117D230A1264
:10070A008A118000840A04087D0603190034FF0A4E
:10071A000319FE0A812BFD00F901F90A7D080A1264
:10072A008A1199250A128A11033083120313A10030
:10073A009730A000A00B9F2BA10B9F2B08008312C0
:10074A000313A100BC2B7D0884000A128A1103201E
:10075A000A128A11F90021080A128A11C3260A12FA
:10076A008A11013083120313A0002008FD077D08B7
:10077A0084000A128A1103200A128A11003A031D00
:10078A00C72BC82BA82B080083120313A500D32B51
:10079A008030A400E32BC030A400E32B2008A20081
:1007AA00A3012308003A0319DB2BCD2B2208013AB7
:1007BA000319CD2B033A0319D02BCD2B2108FF3E69
:1007CA00A2002208A4072408F90025080A128A119F
:1007DA0099250A128A11080073080319F52BF62BBA
:1007EA00092C0130F400720AFC2B0310F40DFF3EB1
:1007FA00031DFA2B7408F500700884008317711C16
:10080A008313750880041C2C0130F400720A0F2C23
:10081A000310F40DFF3E031D0D2C7408FF3AF5007A
:10082A00700884008317711C8313750880050800FB
:10083A00F8007808840083130008F000840A00088E
:10084A008403F1007808033E84000008F200F301F3
:10085A00F30A0A128A11F1230A128A110330F700E5
:10086A009730F600F60B372CF70B372C3C2C780810
:10087A00840083130008F000840A00088403F1004E
:10088A007808033E84000008F200F3010A128A1174
:10089A00F1230A128A11080083120313A4001430E8
:1008AA0083120313A3007930A200A20B5A2CA30BC4
:1008BA005A2C0330F9008312031324080A128A11EE
:1008CA0099250A128A11073083120313A3007C3078
:1008DA00A200A20B6E2CA30B6E2C00000330F900B1
:1008EA008312031324080A128A1199250A128A11FB
:1008FA00203083120313A200A20B812C00000330C4
:10090A00F9008312031324080A128A1199250A127C
:10091A008A110230F9008312031324080A128A1179
:10092A0099250A128A112830F90083120313240820
:10093A000A128A1199250A128A110C30F9008312B7
:10094A00031324080A128A1199250A128A110630F9
:10095A00F9008312031324080A128A1199250A122C
:10096A008A118312031324080A128A1190230A1285
:10097A008A1108008316031387012B308400333051
:10098A0083120313A6000408A7000830A80026084B
:10099A00840083130008A900A60A270884002908EE
:1009AA008000A70AA80BCC2C2B300A128A115124DA
:1009BA000A128A112B300A128A1190230A128A11FA
:1009CA0083120313A001A00AA101A10A2B300A1263
:1009DA008A11C9230A128A110730FD002B300A1224
:1009EA008A11A4230A128A11023083120313A00067
:1009FA00A101A10A2B300A128A11C9230A128A11EB
:100A0A000130FD002B300A128A11A4230A128A111E
:100A1A00333083120313A800BB30A700DF30A600CF
:100A2A00A60B152DA70B152DA80B152D2B300A1269
:100A3A008A1190230A128A1183120313AA01AA0A9D
:100A4A00A001A00A2A08A1002B300A128A11C92380
:100A5A000A128A11831203132A08403EF9002B3026
:100A6A000A128A11C3260A128A1106308312031344
:100A7A00A8001330A700AD30A600A60B422DA70B85
:100A8A00422DA80B422D013083120313A60026081B
:100A9A00AA0711302A02031C532D542D252D333059
:100AAA0083120313A800BB30A700DF30A600A60BF1
:100ABA005C2DA70B5C2DA80B5C2D83120313AA01D6
:100ACA00AA0A0230A0002A08A1002B300A128A11B1
:100ADA00C9230A128A11831203132A08483EF9000D
:100AEA002B300A128A11C3260A128A11063083127F
:100AFA000313A8001330A700AD30A600A60B832D60
:100B0A00A70B832DA80B832D013083120313A60094
:100B1A002608AA0711302A02031C942D952D662D4A
:100B2A000D2D0A128A110028FC007C088400831308
:100B3A000008F000840A00088403F1007C08043EDF
:100B4A0084000008F2007908FB0004300310FB0C53
:100B5A00FF3E031DAB2D7B18B32DB52D0130B62DED
:100B6A000030F3000A128A11F1230A128A117C0852
:100B7A00840083130008F000840A00088403F1004B
:100B8A007C08053E84000008F2007908FB00053065
:100B9A000310FB0CFF3E031DCD2D7B18D52DD72D41
:100BAA000130D82D0030F3000A128A11F1230A12FB
:100BBA008A117C08840083130008F000840A000864
:100BCA008403F1007C08063E84000008F2007908DC
:100BDA00FB0006300310FB0CFF3E031DEF2D7B18B4
:100BEA00F72DF92D0130FA2D0030F3000A128A117F
:100BFA00F1230A128A117C08840083130008F0008A
:100C0A00840A00088403F1007C08073E8400000877
:100C1A00F2007908FB0007300310FB0CFF3E031DAE
:100C2A00112E7B18192E1B2E01301C2E0030F300BA
:100C3A000A128A11F1230A128A117C08840083138A
:100C4A000008F000840A00088403F1007C08023ED0
:100C5A0084000008F200F3010A128A11F1230A1231
:100C6A008A117C080A128A111D240A128A117C0828
:100C7A00840083130008F000840A00088403F1004A
:100C8A007C08043E84000008F20079184D2E4F2E8D
:100C9A000130502E0030F3000A128A11F1230A1291
:100CAA008A117C08840083130008F000840A000873
:100CBA008403F1007C08053E84000008F2007908EC
:100CCA00FB0001300310FB0CFF3E031D672E7B184F
:100CDA006F2E712E0130722E0030F3000A128A1123
:100CEA00F1230A128A117C08840083130008F00099
:100CFA00840A00088403F1007C08063E8400000888
:100D0A00F2007908FB0002300310FB0CFF3E031DC2
:100D1A00892E7B18912E932E0130942E0030F300E9
:100D2A000A128A11F1230A128A117C088400831399
:100D3A000008F000840A00088403F1007C08073EDA
:100D4A0084000008F2007908FB0003300310FB0C52
:100D5A00FF3E031DAB2E7B18B32EB52E0130B62EE7
:100D6A000030F3000A128A11F1230A128A117C0850
:100D7A000A128A111D240A128A110800FC007C0832
:100D8A00840083130008F000840A00088403F10039
:100D9A007C08043E84000008F2007908FB00043055
:100DAA000310FB0CFF3E031DD52E7B18DD2EDF2E14
:100DBA000130E02E0030F3000A128A11F1230A12E0
:100DCA008A117C08840083130008F000840A000852
:100DDA008403F1007C08053E84000008F2007908CB
:100DEA00FB0005300310FB0CFF3E031DF72E7B189A
:100DFA00FF2E012F0130022F0030F3000A128A1150
:100E0A00F1230A128A117C08840083130008F00077
:100E1A00840A00088403F1007C08063E8400000866
:100E2A00F2007908FB0006300310FB0CFF3E031D9D
:100E3A00192F7B18212F232F0130242F0030F30084
:100E4A000A128A11F1230A128A117C088400831378
:100E5A000008F000840A00088403F1007C08073EB9
:100E6A0084000008F2007908FB0007300310FB0C2D
:100E7A00FF3E031D3B2F7B18432F452F0130462F82
:100E8A000030F3000A128A11F1230A128A117C082F
:100E9A00840083130008F000840A00088403F10028
:100EAA007C08023E84000008F200F301F30A0A12E9
:100EBA008A11F1230A128A117C080A128A111D2446
:100ECA000A128A117C08840083130008F000840A3D
:100EDA0000088403F1007C08043E84000008F20044
:100EEA007918782F7A2F01307B2F0030F3000A12FD
:100EFA008A11F1230A128A117C08840083130008DC
:100F0A00F000840A00088403F1007C08053E84008E
:100F1A000008F2007908FB0001300310FB0CFF3EC9
:100F2A00031D922F7B189A2F9C2F01309D2F003082
:100F3A00F3000A128A11F1230A128A117C0884002A
:100F4A0083130008F000840A00088403F1007C0877
:100F5A00063E84000008F2007908FB000230031004
:100F6A00FB0CFF3E031DB42F7B18BC2FBE2F013094
:100F7A00BF2F0030F3000A128A11F1230A128A11D4
:100F8A007C08840083130008F000840A00088403A4
:100F9A00F1007C08073E84000008F2007908FB0093
:100FAA0003300310FB0CFF3E031DD62F7B18DE2FE8
:100FBA00E02F0130E12F0030F3000A128A11F123E9
:100FCA000A128A117C080A128A111D240A128A112D
:100FDA00080083133B30FD000330FE007530FF002C
:100FEA00333084000A128A1181230A128A1183017A
:060FFA000A128A11BF2C4F
:02400E003A3F37
:00000001FF
